{
	"SimpleDEX.sol": {
		"SimpleDEX": {
			"abi": [
				{
					"inputs": [
						{
							"internalType": "address",
							"name": "_tokenA",
							"type": "address"
						},
						{
							"internalType": "address",
							"name": "_tokenB",
							"type": "address"
						}
					],
					"stateMutability": "nonpayable",
					"type": "constructor"
				},
				{
					"inputs": [
						{
							"internalType": "address",
							"name": "owner",
							"type": "address"
						}
					],
					"name": "OwnableInvalidOwner",
					"type": "error"
				},
				{
					"inputs": [
						{
							"internalType": "address",
							"name": "account",
							"type": "address"
						}
					],
					"name": "OwnableUnauthorizedAccount",
					"type": "error"
				},
				{
					"anonymous": false,
					"inputs": [
						{
							"indexed": false,
							"internalType": "uint256",
							"name": "amountA",
							"type": "uint256"
						},
						{
							"indexed": false,
							"internalType": "uint256",
							"name": "amountB",
							"type": "uint256"
						}
					],
					"name": "LiquidityAdded",
					"type": "event"
				},
				{
					"anonymous": false,
					"inputs": [
						{
							"indexed": false,
							"internalType": "uint256",
							"name": "amountA",
							"type": "uint256"
						},
						{
							"indexed": false,
							"internalType": "uint256",
							"name": "amountB",
							"type": "uint256"
						}
					],
					"name": "LiquidityRemoved",
					"type": "event"
				},
				{
					"anonymous": false,
					"inputs": [
						{
							"indexed": true,
							"internalType": "address",
							"name": "previousOwner",
							"type": "address"
						},
						{
							"indexed": true,
							"internalType": "address",
							"name": "newOwner",
							"type": "address"
						}
					],
					"name": "OwnershipTransferred",
					"type": "event"
				},
				{
					"anonymous": false,
					"inputs": [
						{
							"indexed": true,
							"internalType": "address",
							"name": "user",
							"type": "address"
						},
						{
							"indexed": false,
							"internalType": "uint256",
							"name": "amountIn",
							"type": "uint256"
						},
						{
							"indexed": false,
							"internalType": "uint256",
							"name": "amountOut",
							"type": "uint256"
						}
					],
					"name": "TokenSwappedA",
					"type": "event"
				},
				{
					"anonymous": false,
					"inputs": [
						{
							"indexed": true,
							"internalType": "address",
							"name": "user",
							"type": "address"
						},
						{
							"indexed": false,
							"internalType": "uint256",
							"name": "amountIn",
							"type": "uint256"
						},
						{
							"indexed": false,
							"internalType": "uint256",
							"name": "amountOut",
							"type": "uint256"
						}
					],
					"name": "TokenSwappedB",
					"type": "event"
				},
				{
					"inputs": [
						{
							"internalType": "uint256",
							"name": "amountA",
							"type": "uint256"
						},
						{
							"internalType": "uint256",
							"name": "amountB",
							"type": "uint256"
						}
					],
					"name": "addLiquidity",
					"outputs": [],
					"stateMutability": "nonpayable",
					"type": "function"
				},
				{
					"inputs": [
						{
							"internalType": "address",
							"name": "_token",
							"type": "address"
						}
					],
					"name": "getPrice",
					"outputs": [
						{
							"internalType": "uint256",
							"name": "",
							"type": "uint256"
						}
					],
					"stateMutability": "view",
					"type": "function"
				},
				{
					"inputs": [],
					"name": "owner",
					"outputs": [
						{
							"internalType": "address",
							"name": "",
							"type": "address"
						}
					],
					"stateMutability": "view",
					"type": "function"
				},
				{
					"inputs": [
						{
							"internalType": "uint256",
							"name": "amountA",
							"type": "uint256"
						},
						{
							"internalType": "uint256",
							"name": "amountB",
							"type": "uint256"
						}
					],
					"name": "removeLiquidity",
					"outputs": [],
					"stateMutability": "nonpayable",
					"type": "function"
				},
				{
					"inputs": [],
					"name": "renounceOwnership",
					"outputs": [],
					"stateMutability": "nonpayable",
					"type": "function"
				},
				{
					"inputs": [
						{
							"internalType": "uint256",
							"name": "amountAIn",
							"type": "uint256"
						}
					],
					"name": "swapAforB",
					"outputs": [],
					"stateMutability": "nonpayable",
					"type": "function"
				},
				{
					"inputs": [
						{
							"internalType": "uint256",
							"name": "amountBIn",
							"type": "uint256"
						}
					],
					"name": "swapBforA",
					"outputs": [],
					"stateMutability": "nonpayable",
					"type": "function"
				},
				{
					"inputs": [],
					"name": "tokenA",
					"outputs": [
						{
							"internalType": "contract IERC20",
							"name": "",
							"type": "address"
						}
					],
					"stateMutability": "view",
					"type": "function"
				},
				{
					"inputs": [],
					"name": "tokenB",
					"outputs": [
						{
							"internalType": "contract IERC20",
							"name": "",
							"type": "address"
						}
					],
					"stateMutability": "view",
					"type": "function"
				},
				{
					"inputs": [
						{
							"internalType": "address",
							"name": "newOwner",
							"type": "address"
						}
					],
					"name": "transferOwnership",
					"outputs": [],
					"stateMutability": "nonpayable",
					"type": "function"
				}
			],
			"devdoc": {
				"errors": {
					"OwnableInvalidOwner(address)": [
						{
							"details": "The owner is not a valid owner account. (eg. `address(0)`)"
						}
					],
					"OwnableUnauthorizedAccount(address)": [
						{
							"details": "The caller account is not authorized to perform an operation."
						}
					]
				},
				"kind": "dev",
				"methods": {
					"owner()": {
						"details": "Returns the address of the current owner."
					},
					"renounceOwnership()": {
						"details": "Leaves the contract without owner. It will not be possible to call `onlyOwner` functions. Can only be called by the current owner. NOTE: Renouncing ownership will leave the contract without an owner, thereby disabling any functionality that is only available to the owner."
					},
					"transferOwnership(address)": {
						"details": "Transfers ownership of the contract to a new account (`newOwner`). Can only be called by the current owner."
					}
				},
				"version": 1
			},
			"evm": {
				"assembly": "    /* \"SimpleDEX.sol\":289:3867  contract SimpleDEX is Ownable{... */\n  mstore(0x40, 0x80)\n    /* \"SimpleDEX.sol\":825:967  constructor(address _tokenA, address _tokenB) Ownable (msg.sender) {... */\n  callvalue\n  dup1\n  iszero\n  tag_1\n  jumpi\n  0x00\n  dup1\n  revert\ntag_1:\n  pop\n  mload(0x40)\n  sub(codesize, bytecodeSize)\n  dup1\n  bytecodeSize\n  dup4\n  codecopy\n  dup2\n  dup2\n  add\n  0x40\n  mstore\n  dup2\n  add\n  swap1\n  tag_2\n  swap2\n  swap1\n  tag_3\n  jump\t// in\ntag_2:\n    /* \"SimpleDEX.sol\":880:890  msg.sender */\n  caller\n    /* \"@openzeppelin/contracts/access/Ownable.sol\":1297:1298  0 */\n  0x00\n    /* \"@openzeppelin/contracts/access/Ownable.sol\":1273:1299  initialOwner == address(0) */\n  0xffffffffffffffffffffffffffffffffffffffff\n  and\n    /* \"@openzeppelin/contracts/access/Ownable.sol\":1273:1285  initialOwner */\n  dup2\n    /* \"@openzeppelin/contracts/access/Ownable.sol\":1273:1299  initialOwner == address(0) */\n  0xffffffffffffffffffffffffffffffffffffffff\n  and\n  sub\n    /* \"@openzeppelin/contracts/access/Ownable.sol\":1269:1364  if (initialOwner == address(0)) {... */\n  tag_7\n  jumpi\n    /* \"@openzeppelin/contracts/access/Ownable.sol\":1350:1351  0 */\n  0x00\n    /* \"@openzeppelin/contracts/access/Ownable.sol\":1322:1353  OwnableInvalidOwner(address(0)) */\n  mload(0x40)\n  0x1e4fbdf700000000000000000000000000000000000000000000000000000000\n  dup2\n  mstore\n  0x04\n  add\n  tag_8\n  swap2\n  swap1\n  tag_9\n  jump\t// in\ntag_8:\n  mload(0x40)\n  dup1\n  swap2\n  sub\n  swap1\n  revert\n    /* \"@openzeppelin/contracts/access/Ownable.sol\":1269:1364  if (initialOwner == address(0)) {... */\ntag_7:\n    /* \"@openzeppelin/contracts/access/Ownable.sol\":1373:1405  _transferOwnership(initialOwner) */\n  tag_10\n    /* \"@openzeppelin/contracts/access/Ownable.sol\":1392:1404  initialOwner */\n  dup2\n    /* \"@openzeppelin/contracts/access/Ownable.sol\":1373:1391  _transferOwnership */\n  shl(0x20, tag_11)\n    /* \"@openzeppelin/contracts/access/Ownable.sol\":1373:1405  _transferOwnership(initialOwner) */\n  0x20\n  shr\n  jump\t// in\ntag_10:\n    /* \"@openzeppelin/contracts/access/Ownable.sol\":1225:1412  constructor(address initialOwner) {... */\n  pop\n    /* \"SimpleDEX.sol\":918:925  _tokenA */\n  dup2\n    /* \"SimpleDEX.sol\":902:908  tokenA */\n  0x01\n  0x00\n    /* \"SimpleDEX.sol\":902:926  tokenA = IERC20(_tokenA) */\n  0x0100\n  exp\n  dup2\n  sload\n  dup2\n  0xffffffffffffffffffffffffffffffffffffffff\n  mul\n  not\n  and\n  swap1\n  dup4\n  0xffffffffffffffffffffffffffffffffffffffff\n  and\n  mul\n  or\n  swap1\n  sstore\n  pop\n    /* \"SimpleDEX.sol\":952:959  _tokenB */\n  dup1\n    /* \"SimpleDEX.sol\":936:942  tokenB */\n  0x02\n  0x00\n    /* \"SimpleDEX.sol\":936:960  tokenB = IERC20(_tokenB) */\n  0x0100\n  exp\n  dup2\n  sload\n  dup2\n  0xffffffffffffffffffffffffffffffffffffffff\n  mul\n  not\n  and\n  swap1\n  dup4\n  0xffffffffffffffffffffffffffffffffffffffff\n  and\n  mul\n  or\n  swap1\n  sstore\n  pop\n    /* \"SimpleDEX.sol\":825:967  constructor(address _tokenA, address _tokenB) Ownable (msg.sender) {... */\n  pop\n  pop\n    /* \"SimpleDEX.sol\":289:3867  contract SimpleDEX is Ownable{... */\n  jump(tag_13)\n    /* \"@openzeppelin/contracts/access/Ownable.sol\":2912:3099  function _transferOwnership(address newOwner) internal virtual {... */\ntag_11:\n    /* \"@openzeppelin/contracts/access/Ownable.sol\":2985:3001  address oldOwner */\n  0x00\n    /* \"@openzeppelin/contracts/access/Ownable.sol\":3004:3010  _owner */\n  dup1\n  0x00\n  swap1\n  sload\n  swap1\n  0x0100\n  exp\n  swap1\n  div\n  0xffffffffffffffffffffffffffffffffffffffff\n  and\n    /* \"@openzeppelin/contracts/access/Ownable.sol\":2985:3010  address oldOwner = _owner */\n  swap1\n  pop\n    /* \"@openzeppelin/contracts/access/Ownable.sol\":3029:3037  newOwner */\n  dup2\n    /* \"@openzeppelin/contracts/access/Ownable.sol\":3020:3026  _owner */\n  0x00\n  dup1\n    /* \"@openzeppelin/contracts/access/Ownable.sol\":3020:3037  _owner = newOwner */\n  0x0100\n  exp\n  dup2\n  sload\n  dup2\n  0xffffffffffffffffffffffffffffffffffffffff\n  mul\n  not\n  and\n  swap1\n  dup4\n  0xffffffffffffffffffffffffffffffffffffffff\n  and\n  mul\n  or\n  swap1\n  sstore\n  pop\n    /* \"@openzeppelin/contracts/access/Ownable.sol\":3083:3091  newOwner */\n  dup2\n    /* \"@openzeppelin/contracts/access/Ownable.sol\":3052:3092  OwnershipTransferred(oldOwner, newOwner) */\n  0xffffffffffffffffffffffffffffffffffffffff\n  and\n    /* \"@openzeppelin/contracts/access/Ownable.sol\":3073:3081  oldOwner */\n  dup2\n    /* \"@openzeppelin/contracts/access/Ownable.sol\":3052:3092  OwnershipTransferred(oldOwner, newOwner) */\n  0xffffffffffffffffffffffffffffffffffffffff\n  and\n  0x8be0079c531659141344cd1fd0a4f28419497f9722a3daafe3b4186f6b6457e0\n  mload(0x40)\n  mload(0x40)\n  dup1\n  swap2\n  sub\n  swap1\n  log3\n    /* \"@openzeppelin/contracts/access/Ownable.sol\":2975:3099  {... */\n  pop\n    /* \"@openzeppelin/contracts/access/Ownable.sol\":2912:3099  function _transferOwnership(address newOwner) internal virtual {... */\n  pop\n  jump\t// out\n    /* \"#utility.yul\":88:205   */\ntag_16:\n    /* \"#utility.yul\":197:198   */\n  0x00\n    /* \"#utility.yul\":194:195   */\n  dup1\n    /* \"#utility.yul\":187:199   */\n  revert\n    /* \"#utility.yul\":334:460   */\ntag_18:\n    /* \"#utility.yul\":371:378   */\n  0x00\n    /* \"#utility.yul\":411:453   */\n  0xffffffffffffffffffffffffffffffffffffffff\n    /* \"#utility.yul\":404:409   */\n  dup3\n    /* \"#utility.yul\":400:454   */\n  and\n    /* \"#utility.yul\":389:454   */\n  swap1\n  pop\n    /* \"#utility.yul\":334:460   */\n  swap2\n  swap1\n  pop\n  jump\t// out\n    /* \"#utility.yul\":466:562   */\ntag_19:\n    /* \"#utility.yul\":503:510   */\n  0x00\n    /* \"#utility.yul\":532:556   */\n  tag_29\n    /* \"#utility.yul\":550:555   */\n  dup3\n    /* \"#utility.yul\":532:556   */\n  tag_18\n  jump\t// in\ntag_29:\n    /* \"#utility.yul\":521:556   */\n  swap1\n  pop\n    /* \"#utility.yul\":466:562   */\n  swap2\n  swap1\n  pop\n  jump\t// out\n    /* \"#utility.yul\":568:690   */\ntag_20:\n    /* \"#utility.yul\":641:665   */\n  tag_31\n    /* \"#utility.yul\":659:664   */\n  dup2\n    /* \"#utility.yul\":641:665   */\n  tag_19\n  jump\t// in\ntag_31:\n    /* \"#utility.yul\":634:639   */\n  dup2\n    /* \"#utility.yul\":631:666   */\n  eq\n    /* \"#utility.yul\":621:684   */\n  tag_32\n  jumpi\n    /* \"#utility.yul\":680:681   */\n  0x00\n    /* \"#utility.yul\":677:678   */\n  dup1\n    /* \"#utility.yul\":670:682   */\n  revert\n    /* \"#utility.yul\":621:684   */\ntag_32:\n    /* \"#utility.yul\":568:690   */\n  pop\n  jump\t// out\n    /* \"#utility.yul\":696:839   */\ntag_21:\n    /* \"#utility.yul\":753:758   */\n  0x00\n    /* \"#utility.yul\":784:790   */\n  dup2\n    /* \"#utility.yul\":778:791   */\n  mload\n    /* \"#utility.yul\":769:791   */\n  swap1\n  pop\n    /* \"#utility.yul\":800:833   */\n  tag_34\n    /* \"#utility.yul\":827:832   */\n  dup2\n    /* \"#utility.yul\":800:833   */\n  tag_20\n  jump\t// in\ntag_34:\n    /* \"#utility.yul\":696:839   */\n  swap3\n  swap2\n  pop\n  pop\n  jump\t// out\n    /* \"#utility.yul\":845:1352   */\ntag_3:\n    /* \"#utility.yul\":924:930   */\n  0x00\n    /* \"#utility.yul\":932:938   */\n  dup1\n    /* \"#utility.yul\":981:983   */\n  0x40\n    /* \"#utility.yul\":969:978   */\n  dup4\n    /* \"#utility.yul\":960:967   */\n  dup6\n    /* \"#utility.yul\":956:979   */\n  sub\n    /* \"#utility.yul\":952:984   */\n  slt\n    /* \"#utility.yul\":949:1068   */\n  iszero\n  tag_36\n  jumpi\n    /* \"#utility.yul\":987:1066   */\n  tag_37\n  tag_16\n  jump\t// in\ntag_37:\n    /* \"#utility.yul\":949:1068   */\ntag_36:\n    /* \"#utility.yul\":1107:1108   */\n  0x00\n    /* \"#utility.yul\":1132:1196   */\n  tag_38\n    /* \"#utility.yul\":1188:1195   */\n  dup6\n    /* \"#utility.yul\":1179:1185   */\n  dup3\n    /* \"#utility.yul\":1168:1177   */\n  dup7\n    /* \"#utility.yul\":1164:1186   */\n  add\n    /* \"#utility.yul\":1132:1196   */\n  tag_21\n  jump\t// in\ntag_38:\n    /* \"#utility.yul\":1122:1196   */\n  swap3\n  pop\n    /* \"#utility.yul\":1078:1206   */\n  pop\n    /* \"#utility.yul\":1245:1247   */\n  0x20\n    /* \"#utility.yul\":1271:1335   */\n  tag_39\n    /* \"#utility.yul\":1327:1334   */\n  dup6\n    /* \"#utility.yul\":1318:1324   */\n  dup3\n    /* \"#utility.yul\":1307:1316   */\n  dup7\n    /* \"#utility.yul\":1303:1325   */\n  add\n    /* \"#utility.yul\":1271:1335   */\n  tag_21\n  jump\t// in\ntag_39:\n    /* \"#utility.yul\":1261:1335   */\n  swap2\n  pop\n    /* \"#utility.yul\":1216:1345   */\n  pop\n    /* \"#utility.yul\":845:1352   */\n  swap3\n  pop\n  swap3\n  swap1\n  pop\n  jump\t// out\n    /* \"#utility.yul\":1358:1476   */\ntag_22:\n    /* \"#utility.yul\":1445:1469   */\n  tag_41\n    /* \"#utility.yul\":1463:1468   */\n  dup2\n    /* \"#utility.yul\":1445:1469   */\n  tag_19\n  jump\t// in\ntag_41:\n    /* \"#utility.yul\":1440:1443   */\n  dup3\n    /* \"#utility.yul\":1433:1470   */\n  mstore\n    /* \"#utility.yul\":1358:1476   */\n  pop\n  pop\n  jump\t// out\n    /* \"#utility.yul\":1482:1704   */\ntag_9:\n    /* \"#utility.yul\":1575:1579   */\n  0x00\n    /* \"#utility.yul\":1613:1615   */\n  0x20\n    /* \"#utility.yul\":1602:1611   */\n  dup3\n    /* \"#utility.yul\":1598:1616   */\n  add\n    /* \"#utility.yul\":1590:1616   */\n  swap1\n  pop\n    /* \"#utility.yul\":1626:1697   */\n  tag_43\n    /* \"#utility.yul\":1694:1695   */\n  0x00\n    /* \"#utility.yul\":1683:1692   */\n  dup4\n    /* \"#utility.yul\":1679:1696   */\n  add\n    /* \"#utility.yul\":1670:1676   */\n  dup5\n    /* \"#utility.yul\":1626:1697   */\n  tag_22\n  jump\t// in\ntag_43:\n    /* \"#utility.yul\":1482:1704   */\n  swap3\n  swap2\n  pop\n  pop\n  jump\t// out\n    /* \"SimpleDEX.sol\":289:3867  contract SimpleDEX is Ownable{... */\ntag_13:\n  dataSize(sub_0)\n  dup1\n  dataOffset(sub_0)\n  0x00\n  codecopy\n  0x00\n  return\nstop\n\nsub_0: assembly {\n        /* \"SimpleDEX.sol\":289:3867  contract SimpleDEX is Ownable{... */\n      mstore(0x40, 0x80)\n      callvalue\n      dup1\n      iszero\n      tag_1\n      jumpi\n      0x00\n      dup1\n      revert\n    tag_1:\n      pop\n      jumpi(tag_2, lt(calldatasize, 0x04))\n      shr(0xe0, calldataload(0x00))\n      dup1\n      0x8da5cb5b\n      gt\n      tag_13\n      jumpi\n      dup1\n      0x8da5cb5b\n      eq\n      tag_8\n      jumpi\n      dup1\n      0x9cd441da\n      eq\n      tag_9\n      jumpi\n      dup1\n      0x9d7de6b3\n      eq\n      tag_10\n      jumpi\n      dup1\n      0xe4f1f70a\n      eq\n      tag_11\n      jumpi\n      dup1\n      0xf2fde38b\n      eq\n      tag_12\n      jumpi\n      jump(tag_2)\n    tag_13:\n      dup1\n      0x0fc63d10\n      eq\n      tag_3\n      jumpi\n      dup1\n      0x41976e09\n      eq\n      tag_4\n      jumpi\n      dup1\n      0x5f64b55b\n      eq\n      tag_5\n      jumpi\n      dup1\n      0x715018a6\n      eq\n      tag_6\n      jumpi\n      dup1\n      0x8014a7aa\n      eq\n      tag_7\n      jumpi\n    tag_2:\n      0x00\n      dup1\n      revert\n        /* \"SimpleDEX.sol\":324:344  IERC20 public tokenA */\n    tag_3:\n      tag_14\n      tag_15\n      jump\t// in\n    tag_14:\n      mload(0x40)\n      tag_16\n      swap2\n      swap1\n      tag_17\n      jump\t// in\n    tag_16:\n      mload(0x40)\n      dup1\n      swap2\n      sub\n      swap1\n      return\n        /* \"SimpleDEX.sol\":3170:3546  function getPrice(address _token) external view returns (uint256) {... */\n    tag_4:\n      tag_18\n      0x04\n      dup1\n      calldatasize\n      sub\n      dup2\n      add\n      swap1\n      tag_19\n      swap2\n      swap1\n      tag_20\n      jump\t// in\n    tag_19:\n      tag_21\n      jump\t// in\n    tag_18:\n      mload(0x40)\n      tag_22\n      swap2\n      swap1\n      tag_23\n      jump\t// in\n    tag_22:\n      mload(0x40)\n      dup1\n      swap2\n      sub\n      swap1\n      return\n        /* \"SimpleDEX.sol\":350:370  IERC20 public tokenB */\n    tag_5:\n      tag_24\n      tag_25\n      jump\t// in\n    tag_24:\n      mload(0x40)\n      tag_26\n      swap2\n      swap1\n      tag_17\n      jump\t// in\n    tag_26:\n      mload(0x40)\n      dup1\n      swap2\n      sub\n      swap1\n      return\n        /* \"@openzeppelin/contracts/access/Ownable.sol\":2293:2394  function renounceOwnership() public virtual onlyOwner {... */\n    tag_6:\n      tag_27\n      tag_28\n      jump\t// in\n    tag_27:\n      stop\n        /* \"SimpleDEX.sol\":2605:3132  function swapBforA(uint256 amountBIn) external {... */\n    tag_7:\n      tag_29\n      0x04\n      dup1\n      calldatasize\n      sub\n      dup2\n      add\n      swap1\n      tag_30\n      swap2\n      swap1\n      tag_31\n      jump\t// in\n    tag_30:\n      tag_32\n      jump\t// in\n    tag_29:\n      stop\n        /* \"@openzeppelin/contracts/access/Ownable.sol\":1638:1723  function owner() public view virtual returns (address) {... */\n    tag_8:\n      tag_33\n      tag_34\n      jump\t// in\n    tag_33:\n      mload(0x40)\n      tag_35\n      swap2\n      swap1\n      tag_36\n      jump\t// in\n    tag_35:\n      mload(0x40)\n      dup1\n      swap2\n      sub\n      swap1\n      return\n        /* \"SimpleDEX.sol\":1023:1447  function addLiquidity(uint256 amountA, uint256 amountB) external onlyOwner{... */\n    tag_9:\n      tag_37\n      0x04\n      dup1\n      calldatasize\n      sub\n      dup2\n      add\n      swap1\n      tag_38\n      swap2\n      swap1\n      tag_39\n      jump\t// in\n    tag_38:\n      tag_40\n      jump\t// in\n    tag_37:\n      stop\n        /* \"SimpleDEX.sol\":1504:1967  function removeLiquidity(uint256 amountA, uint256 amountB) external onlyOwner{... */\n    tag_10:\n      tag_41\n      0x04\n      dup1\n      calldatasize\n      sub\n      dup2\n      add\n      swap1\n      tag_42\n      swap2\n      swap1\n      tag_39\n      jump\t// in\n    tag_42:\n      tag_43\n      jump\t// in\n    tag_41:\n      stop\n        /* \"SimpleDEX.sol\":2022:2549  function swapAforB(uint256 amountAIn) external {... */\n    tag_11:\n      tag_44\n      0x04\n      dup1\n      calldatasize\n      sub\n      dup2\n      add\n      swap1\n      tag_45\n      swap2\n      swap1\n      tag_31\n      jump\t// in\n    tag_45:\n      tag_46\n      jump\t// in\n    tag_44:\n      stop\n        /* \"@openzeppelin/contracts/access/Ownable.sol\":2543:2758  function transferOwnership(address newOwner) public virtual onlyOwner {... */\n    tag_12:\n      tag_47\n      0x04\n      dup1\n      calldatasize\n      sub\n      dup2\n      add\n      swap1\n      tag_48\n      swap2\n      swap1\n      tag_20\n      jump\t// in\n    tag_48:\n      tag_49\n      jump\t// in\n    tag_47:\n      stop\n        /* \"SimpleDEX.sol\":324:344  IERC20 public tokenA */\n    tag_15:\n      0x01\n      0x00\n      swap1\n      sload\n      swap1\n      0x0100\n      exp\n      swap1\n      div\n      0xffffffffffffffffffffffffffffffffffffffff\n      and\n      dup2\n      jump\t// out\n        /* \"SimpleDEX.sol\":3170:3546  function getPrice(address _token) external view returns (uint256) {... */\n    tag_21:\n        /* \"SimpleDEX.sol\":3227:3234  uint256 */\n      0x00\n        /* \"SimpleDEX.sol\":3272:3278  tokenA */\n      0x01\n      0x00\n      swap1\n      sload\n      swap1\n      0x0100\n      exp\n      swap1\n      div\n      0xffffffffffffffffffffffffffffffffffffffff\n      and\n        /* \"SimpleDEX.sol\":3254:3279  _token == address(tokenA) */\n      0xffffffffffffffffffffffffffffffffffffffff\n      and\n        /* \"SimpleDEX.sol\":3254:3260  _token */\n      dup3\n        /* \"SimpleDEX.sol\":3254:3279  _token == address(tokenA) */\n      0xffffffffffffffffffffffffffffffffffffffff\n      and\n      eq\n        /* \"SimpleDEX.sol\":3254:3308  _token == address(tokenA) || _token == address(tokenB) */\n      dup1\n      tag_51\n      jumpi\n      pop\n        /* \"SimpleDEX.sol\":3301:3307  tokenB */\n      0x02\n      0x00\n      swap1\n      sload\n      swap1\n      0x0100\n      exp\n      swap1\n      div\n      0xffffffffffffffffffffffffffffffffffffffff\n      and\n        /* \"SimpleDEX.sol\":3283:3308  _token == address(tokenB) */\n      0xffffffffffffffffffffffffffffffffffffffff\n      and\n        /* \"SimpleDEX.sol\":3283:3289  _token */\n      dup3\n        /* \"SimpleDEX.sol\":3283:3308  _token == address(tokenB) */\n      0xffffffffffffffffffffffffffffffffffffffff\n      and\n      eq\n        /* \"SimpleDEX.sol\":3254:3308  _token == address(tokenA) || _token == address(tokenB) */\n    tag_51:\n        /* \"SimpleDEX.sol\":3246:3326  require(_token == address(tokenA) || _token == address(tokenB), \"invalid token\") */\n      tag_52\n      jumpi\n      mload(0x40)\n      0x08c379a000000000000000000000000000000000000000000000000000000000\n      dup2\n      mstore\n      0x04\n      add\n      tag_53\n      swap1\n      tag_54\n      jump\t// in\n    tag_53:\n      mload(0x40)\n      dup1\n      swap2\n      sub\n      swap1\n      revert\n    tag_52:\n        /* \"SimpleDEX.sol\":3362:3368  tokenA */\n      0x01\n      0x00\n      swap1\n      sload\n      swap1\n      0x0100\n      exp\n      swap1\n      div\n      0xffffffffffffffffffffffffffffffffffffffff\n      and\n        /* \"SimpleDEX.sol\":3344:3369  _token == address(tokenA) */\n      0xffffffffffffffffffffffffffffffffffffffff\n      and\n        /* \"SimpleDEX.sol\":3344:3350  _token */\n      dup3\n        /* \"SimpleDEX.sol\":3344:3369  _token == address(tokenA) */\n      0xffffffffffffffffffffffffffffffffffffffff\n      and\n      eq\n        /* \"SimpleDEX.sol\":3344:3539  _token == address(tokenA)... */\n      tag_55\n      jumpi\n        /* \"SimpleDEX.sol\":3508:3514  tokenB */\n      0x02\n      0x00\n      swap1\n      sload\n      swap1\n      0x0100\n      exp\n      swap1\n      div\n      0xffffffffffffffffffffffffffffffffffffffff\n      and\n        /* \"SimpleDEX.sol\":3508:3524  tokenB.balanceOf */\n      0xffffffffffffffffffffffffffffffffffffffff\n      and\n      0x70a08231\n        /* \"SimpleDEX.sol\":3533:3537  this */\n      address\n        /* \"SimpleDEX.sol\":3508:3539  tokenB.balanceOf(address(this)) */\n      mload(0x40)\n      dup3\n      0xffffffff\n      and\n      0xe0\n      shl\n      dup2\n      mstore\n      0x04\n      add\n      tag_56\n      swap2\n      swap1\n      tag_36\n      jump\t// in\n    tag_56:\n      0x20\n      mload(0x40)\n      dup1\n      dup4\n      sub\n      dup2\n      dup7\n      gas\n      staticcall\n      iszero\n      dup1\n      iszero\n      tag_58\n      jumpi\n      returndatasize\n      0x00\n      dup1\n      returndatacopy\n      revert(0x00, returndatasize)\n    tag_58:\n      pop\n      pop\n      pop\n      pop\n      mload(0x40)\n      returndatasize\n      not(0x1f)\n      0x1f\n      dup3\n      add\n      and\n      dup3\n      add\n      dup1\n      0x40\n      mstore\n      pop\n      dup2\n      add\n      swap1\n      tag_59\n      swap2\n      swap1\n      tag_60\n      jump\t// in\n    tag_59:\n        /* \"SimpleDEX.sol\":3500:3504  1e18 */\n      0x0de0b6b3a7640000\n        /* \"SimpleDEX.sol\":3466:3472  tokenA */\n      0x01\n      0x00\n      swap1\n      sload\n      swap1\n      0x0100\n      exp\n      swap1\n      div\n      0xffffffffffffffffffffffffffffffffffffffff\n      and\n        /* \"SimpleDEX.sol\":3466:3482  tokenA.balanceOf */\n      0xffffffffffffffffffffffffffffffffffffffff\n      and\n      0x70a08231\n        /* \"SimpleDEX.sol\":3491:3495  this */\n      address\n        /* \"SimpleDEX.sol\":3466:3497  tokenA.balanceOf(address(this)) */\n      mload(0x40)\n      dup3\n      0xffffffff\n      and\n      0xe0\n      shl\n      dup2\n      mstore\n      0x04\n      add\n      tag_61\n      swap2\n      swap1\n      tag_36\n      jump\t// in\n    tag_61:\n      0x20\n      mload(0x40)\n      dup1\n      dup4\n      sub\n      dup2\n      dup7\n      gas\n      staticcall\n      iszero\n      dup1\n      iszero\n      tag_63\n      jumpi\n      returndatasize\n      0x00\n      dup1\n      returndatacopy\n      revert(0x00, returndatasize)\n    tag_63:\n      pop\n      pop\n      pop\n      pop\n      mload(0x40)\n      returndatasize\n      not(0x1f)\n      0x1f\n      dup3\n      add\n      and\n      dup3\n      add\n      dup1\n      0x40\n      mstore\n      pop\n      dup2\n      add\n      swap1\n      tag_64\n      swap2\n      swap1\n      tag_60\n      jump\t// in\n    tag_64:\n        /* \"SimpleDEX.sol\":3466:3504  tokenA.balanceOf(address(this)) * 1e18 */\n      tag_65\n      swap2\n      swap1\n      tag_66\n      jump\t// in\n    tag_65:\n        /* \"SimpleDEX.sol\":3465:3539  (tokenA.balanceOf(address(this)) * 1e18) / tokenB.balanceOf(address(this)) */\n      tag_67\n      swap2\n      swap1\n      tag_68\n      jump\t// in\n    tag_67:\n        /* \"SimpleDEX.sol\":3344:3539  _token == address(tokenA)... */\n      jump(tag_69)\n    tag_55:\n        /* \"SimpleDEX.sol\":3423:3429  tokenA */\n      0x01\n      0x00\n      swap1\n      sload\n      swap1\n      0x0100\n      exp\n      swap1\n      div\n      0xffffffffffffffffffffffffffffffffffffffff\n      and\n        /* \"SimpleDEX.sol\":3423:3439  tokenA.balanceOf */\n      0xffffffffffffffffffffffffffffffffffffffff\n      and\n      0x70a08231\n        /* \"SimpleDEX.sol\":3448:3452  this */\n      address\n        /* \"SimpleDEX.sol\":3423:3454  tokenA.balanceOf(address(this)) */\n      mload(0x40)\n      dup3\n      0xffffffff\n      and\n      0xe0\n      shl\n      dup2\n      mstore\n      0x04\n      add\n      tag_70\n      swap2\n      swap1\n      tag_36\n      jump\t// in\n    tag_70:\n      0x20\n      mload(0x40)\n      dup1\n      dup4\n      sub\n      dup2\n      dup7\n      gas\n      staticcall\n      iszero\n      dup1\n      iszero\n      tag_72\n      jumpi\n      returndatasize\n      0x00\n      dup1\n      returndatacopy\n      revert(0x00, returndatasize)\n    tag_72:\n      pop\n      pop\n      pop\n      pop\n      mload(0x40)\n      returndatasize\n      not(0x1f)\n      0x1f\n      dup3\n      add\n      and\n      dup3\n      add\n      dup1\n      0x40\n      mstore\n      pop\n      dup2\n      add\n      swap1\n      tag_73\n      swap2\n      swap1\n      tag_60\n      jump\t// in\n    tag_73:\n        /* \"SimpleDEX.sol\":3415:3419  1e18 */\n      0x0de0b6b3a7640000\n        /* \"SimpleDEX.sol\":3381:3387  tokenB */\n      0x02\n      0x00\n      swap1\n      sload\n      swap1\n      0x0100\n      exp\n      swap1\n      div\n      0xffffffffffffffffffffffffffffffffffffffff\n      and\n        /* \"SimpleDEX.sol\":3381:3397  tokenB.balanceOf */\n      0xffffffffffffffffffffffffffffffffffffffff\n      and\n      0x70a08231\n        /* \"SimpleDEX.sol\":3406:3410  this */\n      address\n        /* \"SimpleDEX.sol\":3381:3412  tokenB.balanceOf(address(this)) */\n      mload(0x40)\n      dup3\n      0xffffffff\n      and\n      0xe0\n      shl\n      dup2\n      mstore\n      0x04\n      add\n      tag_74\n      swap2\n      swap1\n      tag_36\n      jump\t// in\n    tag_74:\n      0x20\n      mload(0x40)\n      dup1\n      dup4\n      sub\n      dup2\n      dup7\n      gas\n      staticcall\n      iszero\n      dup1\n      iszero\n      tag_76\n      jumpi\n      returndatasize\n      0x00\n      dup1\n      returndatacopy\n      revert(0x00, returndatasize)\n    tag_76:\n      pop\n      pop\n      pop\n      pop\n      mload(0x40)\n      returndatasize\n      not(0x1f)\n      0x1f\n      dup3\n      add\n      and\n      dup3\n      add\n      dup1\n      0x40\n      mstore\n      pop\n      dup2\n      add\n      swap1\n      tag_77\n      swap2\n      swap1\n      tag_60\n      jump\t// in\n    tag_77:\n        /* \"SimpleDEX.sol\":3381:3419  tokenB.balanceOf(address(this)) * 1e18 */\n      tag_78\n      swap2\n      swap1\n      tag_66\n      jump\t// in\n    tag_78:\n        /* \"SimpleDEX.sol\":3380:3454  (tokenB.balanceOf(address(this)) * 1e18) / tokenA.balanceOf(address(this)) */\n      tag_79\n      swap2\n      swap1\n      tag_68\n      jump\t// in\n    tag_79:\n        /* \"SimpleDEX.sol\":3344:3539  _token == address(tokenA)... */\n    tag_69:\n        /* \"SimpleDEX.sol\":3337:3539  return _token == address(tokenA)... */\n      swap1\n      pop\n        /* \"SimpleDEX.sol\":3170:3546  function getPrice(address _token) external view returns (uint256) {... */\n      swap2\n      swap1\n      pop\n      jump\t// out\n        /* \"SimpleDEX.sol\":350:370  IERC20 public tokenB */\n    tag_25:\n      0x02\n      0x00\n      swap1\n      sload\n      swap1\n      0x0100\n      exp\n      swap1\n      div\n      0xffffffffffffffffffffffffffffffffffffffff\n      and\n      dup2\n      jump\t// out\n        /* \"@openzeppelin/contracts/access/Ownable.sol\":2293:2394  function renounceOwnership() public virtual onlyOwner {... */\n    tag_28:\n        /* \"@openzeppelin/contracts/access/Ownable.sol\":1531:1544  _checkOwner() */\n      tag_81\n        /* \"@openzeppelin/contracts/access/Ownable.sol\":1531:1542  _checkOwner */\n      tag_82\n        /* \"@openzeppelin/contracts/access/Ownable.sol\":1531:1544  _checkOwner() */\n      jump\t// in\n    tag_81:\n        /* \"@openzeppelin/contracts/access/Ownable.sol\":2357:2387  _transferOwnership(address(0)) */\n      tag_84\n        /* \"@openzeppelin/contracts/access/Ownable.sol\":2384:2385  0 */\n      0x00\n        /* \"@openzeppelin/contracts/access/Ownable.sol\":2357:2375  _transferOwnership */\n      tag_85\n        /* \"@openzeppelin/contracts/access/Ownable.sol\":2357:2387  _transferOwnership(address(0)) */\n      jump\t// in\n    tag_84:\n        /* \"@openzeppelin/contracts/access/Ownable.sol\":2293:2394  function renounceOwnership() public virtual onlyOwner {... */\n      jump\t// out\n        /* \"SimpleDEX.sol\":2605:3132  function swapBforA(uint256 amountBIn) external {... */\n    tag_32:\n        /* \"SimpleDEX.sol\":2682:2683  0 */\n      0x00\n        /* \"SimpleDEX.sol\":2670:2679  amountBIn */\n      dup2\n        /* \"SimpleDEX.sol\":2670:2683  amountBIn > 0 */\n      gt\n        /* \"SimpleDEX.sol\":2662:2708  require(amountBIn > 0, \"Invalid input amount\") */\n      tag_87\n      jumpi\n      mload(0x40)\n      0x08c379a000000000000000000000000000000000000000000000000000000000\n      dup2\n      mstore\n      0x04\n      add\n      tag_88\n      swap1\n      tag_89\n      jump\t// in\n    tag_88:\n      mload(0x40)\n      dup1\n      swap2\n      sub\n      swap1\n      revert\n    tag_87:\n        /* \"SimpleDEX.sol\":2719:2737  uint256 amountAOut */\n      0x00\n        /* \"SimpleDEX.sol\":2740:2829  getAmountOut(amountBIn, tokenB.balanceOf(address(this)), tokenA.balanceOf(address(this))) */\n      tag_90\n        /* \"SimpleDEX.sol\":2753:2762  amountBIn */\n      dup3\n        /* \"SimpleDEX.sol\":2764:2770  tokenB */\n      0x02\n      0x00\n      swap1\n      sload\n      swap1\n      0x0100\n      exp\n      swap1\n      div\n      0xffffffffffffffffffffffffffffffffffffffff\n      and\n        /* \"SimpleDEX.sol\":2764:2780  tokenB.balanceOf */\n      0xffffffffffffffffffffffffffffffffffffffff\n      and\n      0x70a08231\n        /* \"SimpleDEX.sol\":2789:2793  this */\n      address\n        /* \"SimpleDEX.sol\":2764:2795  tokenB.balanceOf(address(this)) */\n      mload(0x40)\n      dup3\n      0xffffffff\n      and\n      0xe0\n      shl\n      dup2\n      mstore\n      0x04\n      add\n      tag_91\n      swap2\n      swap1\n      tag_36\n      jump\t// in\n    tag_91:\n      0x20\n      mload(0x40)\n      dup1\n      dup4\n      sub\n      dup2\n      dup7\n      gas\n      staticcall\n      iszero\n      dup1\n      iszero\n      tag_93\n      jumpi\n      returndatasize\n      0x00\n      dup1\n      returndatacopy\n      revert(0x00, returndatasize)\n    tag_93:\n      pop\n      pop\n      pop\n      pop\n      mload(0x40)\n      returndatasize\n      not(0x1f)\n      0x1f\n      dup3\n      add\n      and\n      dup3\n      add\n      dup1\n      0x40\n      mstore\n      pop\n      dup2\n      add\n      swap1\n      tag_94\n      swap2\n      swap1\n      tag_60\n      jump\t// in\n    tag_94:\n        /* \"SimpleDEX.sol\":2797:2803  tokenA */\n      0x01\n      0x00\n      swap1\n      sload\n      swap1\n      0x0100\n      exp\n      swap1\n      div\n      0xffffffffffffffffffffffffffffffffffffffff\n      and\n        /* \"SimpleDEX.sol\":2797:2813  tokenA.balanceOf */\n      0xffffffffffffffffffffffffffffffffffffffff\n      and\n      0x70a08231\n        /* \"SimpleDEX.sol\":2822:2826  this */\n      address\n        /* \"SimpleDEX.sol\":2797:2828  tokenA.balanceOf(address(this)) */\n      mload(0x40)\n      dup3\n      0xffffffff\n      and\n      0xe0\n      shl\n      dup2\n      mstore\n      0x04\n      add\n      tag_95\n      swap2\n      swap1\n      tag_36\n      jump\t// in\n    tag_95:\n      0x20\n      mload(0x40)\n      dup1\n      dup4\n      sub\n      dup2\n      dup7\n      gas\n      staticcall\n      iszero\n      dup1\n      iszero\n      tag_97\n      jumpi\n      returndatasize\n      0x00\n      dup1\n      returndatacopy\n      revert(0x00, returndatasize)\n    tag_97:\n      pop\n      pop\n      pop\n      pop\n      mload(0x40)\n      returndatasize\n      not(0x1f)\n      0x1f\n      dup3\n      add\n      and\n      dup3\n      add\n      dup1\n      0x40\n      mstore\n      pop\n      dup2\n      add\n      swap1\n      tag_98\n      swap2\n      swap1\n      tag_60\n      jump\t// in\n    tag_98:\n        /* \"SimpleDEX.sol\":2740:2752  getAmountOut */\n      tag_99\n        /* \"SimpleDEX.sol\":2740:2829  getAmountOut(amountBIn, tokenB.balanceOf(address(this)), tokenA.balanceOf(address(this))) */\n      jump\t// in\n    tag_90:\n        /* \"SimpleDEX.sol\":2719:2829  uint256 amountAOut = getAmountOut(amountBIn, tokenB.balanceOf(address(this)), tokenA.balanceOf(address(this))) */\n      swap1\n      pop\n        /* \"SimpleDEX.sol\":2902:2908  tokenB */\n      0x02\n      0x00\n      swap1\n      sload\n      swap1\n      0x0100\n      exp\n      swap1\n      div\n      0xffffffffffffffffffffffffffffffffffffffff\n      and\n        /* \"SimpleDEX.sol\":2902:2921  tokenB.transferFrom */\n      0xffffffffffffffffffffffffffffffffffffffff\n      and\n      0x23b872dd\n        /* \"SimpleDEX.sol\":2922:2932  msg.sender */\n      caller\n        /* \"SimpleDEX.sol\":2942:2946  this */\n      address\n        /* \"SimpleDEX.sol\":2949:2958  amountBIn */\n      dup6\n        /* \"SimpleDEX.sol\":2902:2959  tokenB.transferFrom(msg.sender, address(this), amountBIn) */\n      mload(0x40)\n      dup5\n      0xffffffff\n      and\n      0xe0\n      shl\n      dup2\n      mstore\n      0x04\n      add\n      tag_100\n      swap4\n      swap3\n      swap2\n      swap1\n      tag_101\n      jump\t// in\n    tag_100:\n      0x20\n      mload(0x40)\n      dup1\n      dup4\n      sub\n      dup2\n      0x00\n      dup8\n      gas\n      call\n      iszero\n      dup1\n      iszero\n      tag_103\n      jumpi\n      returndatasize\n      0x00\n      dup1\n      returndatacopy\n      revert(0x00, returndatasize)\n    tag_103:\n      pop\n      pop\n      pop\n      pop\n      mload(0x40)\n      returndatasize\n      not(0x1f)\n      0x1f\n      dup3\n      add\n      and\n      dup3\n      add\n      dup1\n      0x40\n      mstore\n      pop\n      dup2\n      add\n      swap1\n      tag_104\n      swap2\n      swap1\n      tag_105\n      jump\t// in\n    tag_104:\n      pop\n        /* \"SimpleDEX.sol\":3022:3028  tokenA */\n      0x01\n      0x00\n      swap1\n      sload\n      swap1\n      0x0100\n      exp\n      swap1\n      div\n      0xffffffffffffffffffffffffffffffffffffffff\n      and\n        /* \"SimpleDEX.sol\":3022:3037  tokenA.transfer */\n      0xffffffffffffffffffffffffffffffffffffffff\n      and\n      0xa9059cbb\n        /* \"SimpleDEX.sol\":3038:3048  msg.sender */\n      caller\n        /* \"SimpleDEX.sol\":3050:3060  amountAOut */\n      dup4\n        /* \"SimpleDEX.sol\":3022:3061  tokenA.transfer(msg.sender, amountAOut) */\n      mload(0x40)\n      dup4\n      0xffffffff\n      and\n      0xe0\n      shl\n      dup2\n      mstore\n      0x04\n      add\n      tag_106\n      swap3\n      swap2\n      swap1\n      tag_107\n      jump\t// in\n    tag_106:\n      0x20\n      mload(0x40)\n      dup1\n      dup4\n      sub\n      dup2\n      0x00\n      dup8\n      gas\n      call\n      iszero\n      dup1\n      iszero\n      tag_109\n      jumpi\n      returndatasize\n      0x00\n      dup1\n      returndatacopy\n      revert(0x00, returndatasize)\n    tag_109:\n      pop\n      pop\n      pop\n      pop\n      mload(0x40)\n      returndatasize\n      not(0x1f)\n      0x1f\n      dup3\n      add\n      and\n      dup3\n      add\n      dup1\n      0x40\n      mstore\n      pop\n      dup2\n      add\n      swap1\n      tag_110\n      swap2\n      swap1\n      tag_105\n      jump\t// in\n    tag_110:\n      pop\n        /* \"SimpleDEX.sol\":3091:3101  msg.sender */\n      caller\n        /* \"SimpleDEX.sol\":3077:3125  TokenSwappedB(msg.sender, amountBIn, amountAOut) */\n      0xffffffffffffffffffffffffffffffffffffffff\n      and\n      0x4d2686a74a4dd58b9157e4d394f3174eb9597147f1c59ddd5c95e86c8fc58fb3\n        /* \"SimpleDEX.sol\":3103:3112  amountBIn */\n      dup4\n        /* \"SimpleDEX.sol\":3114:3124  amountAOut */\n      dup4\n        /* \"SimpleDEX.sol\":3077:3125  TokenSwappedB(msg.sender, amountBIn, amountAOut) */\n      mload(0x40)\n      tag_111\n      swap3\n      swap2\n      swap1\n      tag_112\n      jump\t// in\n    tag_111:\n      mload(0x40)\n      dup1\n      swap2\n      sub\n      swap1\n      log2\n        /* \"SimpleDEX.sol\":2652:3132  {... */\n      pop\n        /* \"SimpleDEX.sol\":2605:3132  function swapBforA(uint256 amountBIn) external {... */\n      pop\n      jump\t// out\n        /* \"@openzeppelin/contracts/access/Ownable.sol\":1638:1723  function owner() public view virtual returns (address) {... */\n    tag_34:\n        /* \"@openzeppelin/contracts/access/Ownable.sol\":1684:1691  address */\n      0x00\n        /* \"@openzeppelin/contracts/access/Ownable.sol\":1710:1716  _owner */\n      dup1\n      0x00\n      swap1\n      sload\n      swap1\n      0x0100\n      exp\n      swap1\n      div\n      0xffffffffffffffffffffffffffffffffffffffff\n      and\n        /* \"@openzeppelin/contracts/access/Ownable.sol\":1703:1716  return _owner */\n      swap1\n      pop\n        /* \"@openzeppelin/contracts/access/Ownable.sol\":1638:1723  function owner() public view virtual returns (address) {... */\n      swap1\n      jump\t// out\n        /* \"SimpleDEX.sol\":1023:1447  function addLiquidity(uint256 amountA, uint256 amountB) external onlyOwner{... */\n    tag_40:\n        /* \"@openzeppelin/contracts/access/Ownable.sol\":1531:1544  _checkOwner() */\n      tag_115\n        /* \"@openzeppelin/contracts/access/Ownable.sol\":1531:1542  _checkOwner */\n      tag_82\n        /* \"@openzeppelin/contracts/access/Ownable.sol\":1531:1544  _checkOwner() */\n      jump\t// in\n    tag_115:\n        /* \"SimpleDEX.sol\":1125:1126  0 */\n      0x00\n        /* \"SimpleDEX.sol\":1115:1122  amountA */\n      dup3\n        /* \"SimpleDEX.sol\":1115:1126  amountA > 0 */\n      gt\n        /* \"SimpleDEX.sol\":1115:1141  amountA > 0 && amountB > 0 */\n      dup1\n      iszero\n      tag_117\n      jumpi\n      pop\n        /* \"SimpleDEX.sol\":1140:1141  0 */\n      0x00\n        /* \"SimpleDEX.sol\":1130:1137  amountB */\n      dup2\n        /* \"SimpleDEX.sol\":1130:1141  amountB > 0 */\n      gt\n        /* \"SimpleDEX.sol\":1115:1141  amountA > 0 && amountB > 0 */\n    tag_117:\n        /* \"SimpleDEX.sol\":1107:1161  require(amountA > 0 && amountB > 0, \"Invalid amounts\") */\n      tag_118\n      jumpi\n      mload(0x40)\n      0x08c379a000000000000000000000000000000000000000000000000000000000\n      dup2\n      mstore\n      0x04\n      add\n      tag_119\n      swap1\n      tag_120\n      jump\t// in\n    tag_119:\n      mload(0x40)\n      dup1\n      swap2\n      sub\n      swap1\n      revert\n    tag_118:\n        /* \"SimpleDEX.sol\":1219:1225  tokenA */\n      0x01\n      0x00\n      swap1\n      sload\n      swap1\n      0x0100\n      exp\n      swap1\n      div\n      0xffffffffffffffffffffffffffffffffffffffff\n      and\n        /* \"SimpleDEX.sol\":1219:1238  tokenA.transferFrom */\n      0xffffffffffffffffffffffffffffffffffffffff\n      and\n      0x23b872dd\n        /* \"SimpleDEX.sol\":1239:1249  msg.sender */\n      caller\n        /* \"SimpleDEX.sol\":1259:1263  this */\n      address\n        /* \"SimpleDEX.sol\":1266:1273  amountA */\n      dup6\n        /* \"SimpleDEX.sol\":1219:1274  tokenA.transferFrom(msg.sender, address(this), amountA) */\n      mload(0x40)\n      dup5\n      0xffffffff\n      and\n      0xe0\n      shl\n      dup2\n      mstore\n      0x04\n      add\n      tag_121\n      swap4\n      swap3\n      swap2\n      swap1\n      tag_101\n      jump\t// in\n    tag_121:\n      0x20\n      mload(0x40)\n      dup1\n      dup4\n      sub\n      dup2\n      0x00\n      dup8\n      gas\n      call\n      iszero\n      dup1\n      iszero\n      tag_123\n      jumpi\n      returndatasize\n      0x00\n      dup1\n      returndatacopy\n      revert(0x00, returndatasize)\n    tag_123:\n      pop\n      pop\n      pop\n      pop\n      mload(0x40)\n      returndatasize\n      not(0x1f)\n      0x1f\n      dup3\n      add\n      and\n      dup3\n      add\n      dup1\n      0x40\n      mstore\n      pop\n      dup2\n      add\n      swap1\n      tag_124\n      swap2\n      swap1\n      tag_105\n      jump\t// in\n    tag_124:\n      pop\n        /* \"SimpleDEX.sol\":1284:1290  tokenB */\n      0x02\n      0x00\n      swap1\n      sload\n      swap1\n      0x0100\n      exp\n      swap1\n      div\n      0xffffffffffffffffffffffffffffffffffffffff\n      and\n        /* \"SimpleDEX.sol\":1284:1303  tokenB.transferFrom */\n      0xffffffffffffffffffffffffffffffffffffffff\n      and\n      0x23b872dd\n        /* \"SimpleDEX.sol\":1304:1314  msg.sender */\n      caller\n        /* \"SimpleDEX.sol\":1324:1328  this */\n      address\n        /* \"SimpleDEX.sol\":1331:1338  amountB */\n      dup5\n        /* \"SimpleDEX.sol\":1284:1339  tokenB.transferFrom(msg.sender, address(this), amountB) */\n      mload(0x40)\n      dup5\n      0xffffffff\n      and\n      0xe0\n      shl\n      dup2\n      mstore\n      0x04\n      add\n      tag_125\n      swap4\n      swap3\n      swap2\n      swap1\n      tag_101\n      jump\t// in\n    tag_125:\n      0x20\n      mload(0x40)\n      dup1\n      dup4\n      sub\n      dup2\n      0x00\n      dup8\n      gas\n      call\n      iszero\n      dup1\n      iszero\n      tag_127\n      jumpi\n      returndatasize\n      0x00\n      dup1\n      returndatacopy\n      revert(0x00, returndatasize)\n    tag_127:\n      pop\n      pop\n      pop\n      pop\n      mload(0x40)\n      returndatasize\n      not(0x1f)\n      0x1f\n      dup3\n      add\n      and\n      dup3\n      add\n      dup1\n      0x40\n      mstore\n      pop\n      dup2\n      add\n      swap1\n      tag_128\n      swap2\n      swap1\n      tag_105\n      jump\t// in\n    tag_128:\n      pop\n        /* \"SimpleDEX.sol\":1407:1439  LiquidityAdded(amountA, amountB) */\n      0x38f8a0c92f4c5b0b6877f878cb4c0c8d348a47b76d716c8e78f425043df9515b\n        /* \"SimpleDEX.sol\":1422:1429  amountA */\n      dup3\n        /* \"SimpleDEX.sol\":1431:1438  amountB */\n      dup3\n        /* \"SimpleDEX.sol\":1407:1439  LiquidityAdded(amountA, amountB) */\n      mload(0x40)\n      tag_129\n      swap3\n      swap2\n      swap1\n      tag_112\n      jump\t// in\n    tag_129:\n      mload(0x40)\n      dup1\n      swap2\n      sub\n      swap1\n      log1\n        /* \"SimpleDEX.sol\":1023:1447  function addLiquidity(uint256 amountA, uint256 amountB) external onlyOwner{... */\n      pop\n      pop\n      jump\t// out\n        /* \"SimpleDEX.sol\":1504:1967  function removeLiquidity(uint256 amountA, uint256 amountB) external onlyOwner{... */\n    tag_43:\n        /* \"@openzeppelin/contracts/access/Ownable.sol\":1531:1544  _checkOwner() */\n      tag_131\n        /* \"@openzeppelin/contracts/access/Ownable.sol\":1531:1542  _checkOwner */\n      tag_82\n        /* \"@openzeppelin/contracts/access/Ownable.sol\":1531:1544  _checkOwner() */\n      jump\t// in\n    tag_131:\n        /* \"SimpleDEX.sol\":1610:1616  tokenA */\n      0x01\n      0x00\n      swap1\n      sload\n      swap1\n      0x0100\n      exp\n      swap1\n      div\n      0xffffffffffffffffffffffffffffffffffffffff\n      and\n        /* \"SimpleDEX.sol\":1610:1626  tokenA.balanceOf */\n      0xffffffffffffffffffffffffffffffffffffffff\n      and\n      0x70a08231\n        /* \"SimpleDEX.sol\":1635:1639  this */\n      address\n        /* \"SimpleDEX.sol\":1610:1641  tokenA.balanceOf(address(this)) */\n      mload(0x40)\n      dup3\n      0xffffffff\n      and\n      0xe0\n      shl\n      dup2\n      mstore\n      0x04\n      add\n      tag_133\n      swap2\n      swap1\n      tag_36\n      jump\t// in\n    tag_133:\n      0x20\n      mload(0x40)\n      dup1\n      dup4\n      sub\n      dup2\n      dup7\n      gas\n      staticcall\n      iszero\n      dup1\n      iszero\n      tag_135\n      jumpi\n      returndatasize\n      0x00\n      dup1\n      returndatacopy\n      revert(0x00, returndatasize)\n    tag_135:\n      pop\n      pop\n      pop\n      pop\n      mload(0x40)\n      returndatasize\n      not(0x1f)\n      0x1f\n      dup3\n      add\n      and\n      dup3\n      add\n      dup1\n      0x40\n      mstore\n      pop\n      dup2\n      add\n      swap1\n      tag_136\n      swap2\n      swap1\n      tag_60\n      jump\t// in\n    tag_136:\n        /* \"SimpleDEX.sol\":1599:1606  amountA */\n      dup3\n        /* \"SimpleDEX.sol\":1599:1641  amountA <= tokenA.balanceOf(address(this)) */\n      gt\n      iszero\n        /* \"SimpleDEX.sol\":1599:1687  amountA <= tokenA.balanceOf(address(this)) && amountB <= tokenB.balanceOf(address(this)) */\n      dup1\n      iszero\n      tag_137\n      jumpi\n      pop\n        /* \"SimpleDEX.sol\":1656:1662  tokenB */\n      0x02\n      0x00\n      swap1\n      sload\n      swap1\n      0x0100\n      exp\n      swap1\n      div\n      0xffffffffffffffffffffffffffffffffffffffff\n      and\n        /* \"SimpleDEX.sol\":1656:1672  tokenB.balanceOf */\n      0xffffffffffffffffffffffffffffffffffffffff\n      and\n      0x70a08231\n        /* \"SimpleDEX.sol\":1681:1685  this */\n      address\n        /* \"SimpleDEX.sol\":1656:1687  tokenB.balanceOf(address(this)) */\n      mload(0x40)\n      dup3\n      0xffffffff\n      and\n      0xe0\n      shl\n      dup2\n      mstore\n      0x04\n      add\n      tag_138\n      swap2\n      swap1\n      tag_36\n      jump\t// in\n    tag_138:\n      0x20\n      mload(0x40)\n      dup1\n      dup4\n      sub\n      dup2\n      dup7\n      gas\n      staticcall\n      iszero\n      dup1\n      iszero\n      tag_140\n      jumpi\n      returndatasize\n      0x00\n      dup1\n      returndatacopy\n      revert(0x00, returndatasize)\n    tag_140:\n      pop\n      pop\n      pop\n      pop\n      mload(0x40)\n      returndatasize\n      not(0x1f)\n      0x1f\n      dup3\n      add\n      and\n      dup3\n      add\n      dup1\n      0x40\n      mstore\n      pop\n      dup2\n      add\n      swap1\n      tag_141\n      swap2\n      swap1\n      tag_60\n      jump\t// in\n    tag_141:\n        /* \"SimpleDEX.sol\":1645:1652  amountB */\n      dup2\n        /* \"SimpleDEX.sol\":1645:1687  amountB <= tokenB.balanceOf(address(this)) */\n      gt\n      iszero\n        /* \"SimpleDEX.sol\":1599:1687  amountA <= tokenA.balanceOf(address(this)) && amountB <= tokenB.balanceOf(address(this)) */\n    tag_137:\n        /* \"SimpleDEX.sol\":1591:1714  require(amountA <= tokenA.balanceOf(address(this)) && amountB <= tokenB.balanceOf(address(this)), \"Insufficient liquidity\") */\n      tag_142\n      jumpi\n      mload(0x40)\n      0x08c379a000000000000000000000000000000000000000000000000000000000\n      dup2\n      mstore\n      0x04\n      add\n      tag_143\n      swap1\n      tag_144\n      jump\t// in\n    tag_143:\n      mload(0x40)\n      dup1\n      swap2\n      sub\n      swap1\n      revert\n    tag_142:\n        /* \"SimpleDEX.sol\":1773:1779  tokenA */\n      0x01\n      0x00\n      swap1\n      sload\n      swap1\n      0x0100\n      exp\n      swap1\n      div\n      0xffffffffffffffffffffffffffffffffffffffff\n      and\n        /* \"SimpleDEX.sol\":1773:1788  tokenA.transfer */\n      0xffffffffffffffffffffffffffffffffffffffff\n      and\n      0xa9059cbb\n        /* \"SimpleDEX.sol\":1789:1799  msg.sender */\n      caller\n        /* \"SimpleDEX.sol\":1801:1808  amountA */\n      dup5\n        /* \"SimpleDEX.sol\":1773:1809  tokenA.transfer(msg.sender, amountA) */\n      mload(0x40)\n      dup4\n      0xffffffff\n      and\n      0xe0\n      shl\n      dup2\n      mstore\n      0x04\n      add\n      tag_145\n      swap3\n      swap2\n      swap1\n      tag_107\n      jump\t// in\n    tag_145:\n      0x20\n      mload(0x40)\n      dup1\n      dup4\n      sub\n      dup2\n      0x00\n      dup8\n      gas\n      call\n      iszero\n      dup1\n      iszero\n      tag_147\n      jumpi\n      returndatasize\n      0x00\n      dup1\n      returndatacopy\n      revert(0x00, returndatasize)\n    tag_147:\n      pop\n      pop\n      pop\n      pop\n      mload(0x40)\n      returndatasize\n      not(0x1f)\n      0x1f\n      dup3\n      add\n      and\n      dup3\n      add\n      dup1\n      0x40\n      mstore\n      pop\n      dup2\n      add\n      swap1\n      tag_148\n      swap2\n      swap1\n      tag_105\n      jump\t// in\n    tag_148:\n      pop\n        /* \"SimpleDEX.sol\":1819:1825  tokenB */\n      0x02\n      0x00\n      swap1\n      sload\n      swap1\n      0x0100\n      exp\n      swap1\n      div\n      0xffffffffffffffffffffffffffffffffffffffff\n      and\n        /* \"SimpleDEX.sol\":1819:1834  tokenB.transfer */\n      0xffffffffffffffffffffffffffffffffffffffff\n      and\n      0xa9059cbb\n        /* \"SimpleDEX.sol\":1835:1845  msg.sender */\n      caller\n        /* \"SimpleDEX.sol\":1847:1854  amountB */\n      dup4\n        /* \"SimpleDEX.sol\":1819:1855  tokenB.transfer(msg.sender, amountB) */\n      mload(0x40)\n      dup4\n      0xffffffff\n      and\n      0xe0\n      shl\n      dup2\n      mstore\n      0x04\n      add\n      tag_149\n      swap3\n      swap2\n      swap1\n      tag_107\n      jump\t// in\n    tag_149:\n      0x20\n      mload(0x40)\n      dup1\n      dup4\n      sub\n      dup2\n      0x00\n      dup8\n      gas\n      call\n      iszero\n      dup1\n      iszero\n      tag_151\n      jumpi\n      returndatasize\n      0x00\n      dup1\n      returndatacopy\n      revert(0x00, returndatasize)\n    tag_151:\n      pop\n      pop\n      pop\n      pop\n      mload(0x40)\n      returndatasize\n      not(0x1f)\n      0x1f\n      dup3\n      add\n      and\n      dup3\n      add\n      dup1\n      0x40\n      mstore\n      pop\n      dup2\n      add\n      swap1\n      tag_152\n      swap2\n      swap1\n      tag_105\n      jump\t// in\n    tag_152:\n      pop\n        /* \"SimpleDEX.sol\":1925:1959  LiquidityRemoved(amountA, amountB) */\n      0x6f0f96292ae0038c04f9b6bab30f185d9ca02c471d0983f563f2a4f674aef137\n        /* \"SimpleDEX.sol\":1942:1949  amountA */\n      dup3\n        /* \"SimpleDEX.sol\":1951:1958  amountB */\n      dup3\n        /* \"SimpleDEX.sol\":1925:1959  LiquidityRemoved(amountA, amountB) */\n      mload(0x40)\n      tag_153\n      swap3\n      swap2\n      swap1\n      tag_112\n      jump\t// in\n    tag_153:\n      mload(0x40)\n      dup1\n      swap2\n      sub\n      swap1\n      log1\n        /* \"SimpleDEX.sol\":1504:1967  function removeLiquidity(uint256 amountA, uint256 amountB) external onlyOwner{... */\n      pop\n      pop\n      jump\t// out\n        /* \"SimpleDEX.sol\":2022:2549  function swapAforB(uint256 amountAIn) external {... */\n    tag_46:\n        /* \"SimpleDEX.sol\":2099:2100  0 */\n      0x00\n        /* \"SimpleDEX.sol\":2087:2096  amountAIn */\n      dup2\n        /* \"SimpleDEX.sol\":2087:2100  amountAIn > 0 */\n      gt\n        /* \"SimpleDEX.sol\":2079:2125  require(amountAIn > 0, \"Invalid input amount\") */\n      tag_155\n      jumpi\n      mload(0x40)\n      0x08c379a000000000000000000000000000000000000000000000000000000000\n      dup2\n      mstore\n      0x04\n      add\n      tag_156\n      swap1\n      tag_89\n      jump\t// in\n    tag_156:\n      mload(0x40)\n      dup1\n      swap2\n      sub\n      swap1\n      revert\n    tag_155:\n        /* \"SimpleDEX.sol\":2136:2154  uint256 amountBOut */\n      0x00\n        /* \"SimpleDEX.sol\":2157:2246  getAmountOut(amountAIn, tokenA.balanceOf(address(this)), tokenB.balanceOf(address(this))) */\n      tag_157\n        /* \"SimpleDEX.sol\":2170:2179  amountAIn */\n      dup3\n        /* \"SimpleDEX.sol\":2181:2187  tokenA */\n      0x01\n      0x00\n      swap1\n      sload\n      swap1\n      0x0100\n      exp\n      swap1\n      div\n      0xffffffffffffffffffffffffffffffffffffffff\n      and\n        /* \"SimpleDEX.sol\":2181:2197  tokenA.balanceOf */\n      0xffffffffffffffffffffffffffffffffffffffff\n      and\n      0x70a08231\n        /* \"SimpleDEX.sol\":2206:2210  this */\n      address\n        /* \"SimpleDEX.sol\":2181:2212  tokenA.balanceOf(address(this)) */\n      mload(0x40)\n      dup3\n      0xffffffff\n      and\n      0xe0\n      shl\n      dup2\n      mstore\n      0x04\n      add\n      tag_158\n      swap2\n      swap1\n      tag_36\n      jump\t// in\n    tag_158:\n      0x20\n      mload(0x40)\n      dup1\n      dup4\n      sub\n      dup2\n      dup7\n      gas\n      staticcall\n      iszero\n      dup1\n      iszero\n      tag_160\n      jumpi\n      returndatasize\n      0x00\n      dup1\n      returndatacopy\n      revert(0x00, returndatasize)\n    tag_160:\n      pop\n      pop\n      pop\n      pop\n      mload(0x40)\n      returndatasize\n      not(0x1f)\n      0x1f\n      dup3\n      add\n      and\n      dup3\n      add\n      dup1\n      0x40\n      mstore\n      pop\n      dup2\n      add\n      swap1\n      tag_161\n      swap2\n      swap1\n      tag_60\n      jump\t// in\n    tag_161:\n        /* \"SimpleDEX.sol\":2214:2220  tokenB */\n      0x02\n      0x00\n      swap1\n      sload\n      swap1\n      0x0100\n      exp\n      swap1\n      div\n      0xffffffffffffffffffffffffffffffffffffffff\n      and\n        /* \"SimpleDEX.sol\":2214:2230  tokenB.balanceOf */\n      0xffffffffffffffffffffffffffffffffffffffff\n      and\n      0x70a08231\n        /* \"SimpleDEX.sol\":2239:2243  this */\n      address\n        /* \"SimpleDEX.sol\":2214:2245  tokenB.balanceOf(address(this)) */\n      mload(0x40)\n      dup3\n      0xffffffff\n      and\n      0xe0\n      shl\n      dup2\n      mstore\n      0x04\n      add\n      tag_162\n      swap2\n      swap1\n      tag_36\n      jump\t// in\n    tag_162:\n      0x20\n      mload(0x40)\n      dup1\n      dup4\n      sub\n      dup2\n      dup7\n      gas\n      staticcall\n      iszero\n      dup1\n      iszero\n      tag_164\n      jumpi\n      returndatasize\n      0x00\n      dup1\n      returndatacopy\n      revert(0x00, returndatasize)\n    tag_164:\n      pop\n      pop\n      pop\n      pop\n      mload(0x40)\n      returndatasize\n      not(0x1f)\n      0x1f\n      dup3\n      add\n      and\n      dup3\n      add\n      dup1\n      0x40\n      mstore\n      pop\n      dup2\n      add\n      swap1\n      tag_165\n      swap2\n      swap1\n      tag_60\n      jump\t// in\n    tag_165:\n        /* \"SimpleDEX.sol\":2157:2169  getAmountOut */\n      tag_99\n        /* \"SimpleDEX.sol\":2157:2246  getAmountOut(amountAIn, tokenA.balanceOf(address(this)), tokenB.balanceOf(address(this))) */\n      jump\t// in\n    tag_157:\n        /* \"SimpleDEX.sol\":2136:2246  uint256 amountBOut = getAmountOut(amountAIn, tokenA.balanceOf(address(this)), tokenB.balanceOf(address(this))) */\n      swap1\n      pop\n        /* \"SimpleDEX.sol\":2319:2325  tokenA */\n      0x01\n      0x00\n      swap1\n      sload\n      swap1\n      0x0100\n      exp\n      swap1\n      div\n      0xffffffffffffffffffffffffffffffffffffffff\n      and\n        /* \"SimpleDEX.sol\":2319:2338  tokenA.transferFrom */\n      0xffffffffffffffffffffffffffffffffffffffff\n      and\n      0x23b872dd\n        /* \"SimpleDEX.sol\":2339:2349  msg.sender */\n      caller\n        /* \"SimpleDEX.sol\":2359:2363  this */\n      address\n        /* \"SimpleDEX.sol\":2366:2375  amountAIn */\n      dup6\n        /* \"SimpleDEX.sol\":2319:2376  tokenA.transferFrom(msg.sender, address(this), amountAIn) */\n      mload(0x40)\n      dup5\n      0xffffffff\n      and\n      0xe0\n      shl\n      dup2\n      mstore\n      0x04\n      add\n      tag_166\n      swap4\n      swap3\n      swap2\n      swap1\n      tag_101\n      jump\t// in\n    tag_166:\n      0x20\n      mload(0x40)\n      dup1\n      dup4\n      sub\n      dup2\n      0x00\n      dup8\n      gas\n      call\n      iszero\n      dup1\n      iszero\n      tag_168\n      jumpi\n      returndatasize\n      0x00\n      dup1\n      returndatacopy\n      revert(0x00, returndatasize)\n    tag_168:\n      pop\n      pop\n      pop\n      pop\n      mload(0x40)\n      returndatasize\n      not(0x1f)\n      0x1f\n      dup3\n      add\n      and\n      dup3\n      add\n      dup1\n      0x40\n      mstore\n      pop\n      dup2\n      add\n      swap1\n      tag_169\n      swap2\n      swap1\n      tag_105\n      jump\t// in\n    tag_169:\n      pop\n        /* \"SimpleDEX.sol\":2439:2445  tokenB */\n      0x02\n      0x00\n      swap1\n      sload\n      swap1\n      0x0100\n      exp\n      swap1\n      div\n      0xffffffffffffffffffffffffffffffffffffffff\n      and\n        /* \"SimpleDEX.sol\":2439:2454  tokenB.transfer */\n      0xffffffffffffffffffffffffffffffffffffffff\n      and\n      0xa9059cbb\n        /* \"SimpleDEX.sol\":2455:2465  msg.sender */\n      caller\n        /* \"SimpleDEX.sol\":2467:2477  amountBOut */\n      dup4\n        /* \"SimpleDEX.sol\":2439:2478  tokenB.transfer(msg.sender, amountBOut) */\n      mload(0x40)\n      dup4\n      0xffffffff\n      and\n      0xe0\n      shl\n      dup2\n      mstore\n      0x04\n      add\n      tag_170\n      swap3\n      swap2\n      swap1\n      tag_107\n      jump\t// in\n    tag_170:\n      0x20\n      mload(0x40)\n      dup1\n      dup4\n      sub\n      dup2\n      0x00\n      dup8\n      gas\n      call\n      iszero\n      dup1\n      iszero\n      tag_172\n      jumpi\n      returndatasize\n      0x00\n      dup1\n      returndatacopy\n      revert(0x00, returndatasize)\n    tag_172:\n      pop\n      pop\n      pop\n      pop\n      mload(0x40)\n      returndatasize\n      not(0x1f)\n      0x1f\n      dup3\n      add\n      and\n      dup3\n      add\n      dup1\n      0x40\n      mstore\n      pop\n      dup2\n      add\n      swap1\n      tag_173\n      swap2\n      swap1\n      tag_105\n      jump\t// in\n    tag_173:\n      pop\n        /* \"SimpleDEX.sol\":2508:2518  msg.sender */\n      caller\n        /* \"SimpleDEX.sol\":2494:2542  TokenSwappedA(msg.sender, amountAIn, amountBOut) */\n      0xffffffffffffffffffffffffffffffffffffffff\n      and\n      0x34003120a03799ea4ea8934ecd27dc027c3d298864b97944721756be3c721ab6\n        /* \"SimpleDEX.sol\":2520:2529  amountAIn */\n      dup4\n        /* \"SimpleDEX.sol\":2531:2541  amountBOut */\n      dup4\n        /* \"SimpleDEX.sol\":2494:2542  TokenSwappedA(msg.sender, amountAIn, amountBOut) */\n      mload(0x40)\n      tag_174\n      swap3\n      swap2\n      swap1\n      tag_112\n      jump\t// in\n    tag_174:\n      mload(0x40)\n      dup1\n      swap2\n      sub\n      swap1\n      log2\n        /* \"SimpleDEX.sol\":2069:2549  {... */\n      pop\n        /* \"SimpleDEX.sol\":2022:2549  function swapAforB(uint256 amountAIn) external {... */\n      pop\n      jump\t// out\n        /* \"@openzeppelin/contracts/access/Ownable.sol\":2543:2758  function transferOwnership(address newOwner) public virtual onlyOwner {... */\n    tag_49:\n        /* \"@openzeppelin/contracts/access/Ownable.sol\":1531:1544  _checkOwner() */\n      tag_176\n        /* \"@openzeppelin/contracts/access/Ownable.sol\":1531:1542  _checkOwner */\n      tag_82\n        /* \"@openzeppelin/contracts/access/Ownable.sol\":1531:1544  _checkOwner() */\n      jump\t// in\n    tag_176:\n        /* \"@openzeppelin/contracts/access/Ownable.sol\":2647:2648  0 */\n      0x00\n        /* \"@openzeppelin/contracts/access/Ownable.sol\":2627:2649  newOwner == address(0) */\n      0xffffffffffffffffffffffffffffffffffffffff\n      and\n        /* \"@openzeppelin/contracts/access/Ownable.sol\":2627:2635  newOwner */\n      dup2\n        /* \"@openzeppelin/contracts/access/Ownable.sol\":2627:2649  newOwner == address(0) */\n      0xffffffffffffffffffffffffffffffffffffffff\n      and\n      sub\n        /* \"@openzeppelin/contracts/access/Ownable.sol\":2623:2714  if (newOwner == address(0)) {... */\n      tag_178\n      jumpi\n        /* \"@openzeppelin/contracts/access/Ownable.sol\":2700:2701  0 */\n      0x00\n        /* \"@openzeppelin/contracts/access/Ownable.sol\":2672:2703  OwnableInvalidOwner(address(0)) */\n      mload(0x40)\n      0x1e4fbdf700000000000000000000000000000000000000000000000000000000\n      dup2\n      mstore\n      0x04\n      add\n      tag_179\n      swap2\n      swap1\n      tag_36\n      jump\t// in\n    tag_179:\n      mload(0x40)\n      dup1\n      swap2\n      sub\n      swap1\n      revert\n        /* \"@openzeppelin/contracts/access/Ownable.sol\":2623:2714  if (newOwner == address(0)) {... */\n    tag_178:\n        /* \"@openzeppelin/contracts/access/Ownable.sol\":2723:2751  _transferOwnership(newOwner) */\n      tag_180\n        /* \"@openzeppelin/contracts/access/Ownable.sol\":2742:2750  newOwner */\n      dup2\n        /* \"@openzeppelin/contracts/access/Ownable.sol\":2723:2741  _transferOwnership */\n      tag_85\n        /* \"@openzeppelin/contracts/access/Ownable.sol\":2723:2751  _transferOwnership(newOwner) */\n      jump\t// in\n    tag_180:\n        /* \"@openzeppelin/contracts/access/Ownable.sol\":2543:2758  function transferOwnership(address newOwner) public virtual onlyOwner {... */\n      pop\n      jump\t// out\n        /* \"@openzeppelin/contracts/access/Ownable.sol\":1796:1958  function _checkOwner() internal view virtual {... */\n    tag_82:\n        /* \"@openzeppelin/contracts/access/Ownable.sol\":1866:1878  _msgSender() */\n      tag_182\n        /* \"@openzeppelin/contracts/access/Ownable.sol\":1866:1876  _msgSender */\n      tag_183\n        /* \"@openzeppelin/contracts/access/Ownable.sol\":1866:1878  _msgSender() */\n      jump\t// in\n    tag_182:\n        /* \"@openzeppelin/contracts/access/Ownable.sol\":1855:1878  owner() != _msgSender() */\n      0xffffffffffffffffffffffffffffffffffffffff\n      and\n        /* \"@openzeppelin/contracts/access/Ownable.sol\":1855:1862  owner() */\n      tag_184\n        /* \"@openzeppelin/contracts/access/Ownable.sol\":1855:1860  owner */\n      tag_34\n        /* \"@openzeppelin/contracts/access/Ownable.sol\":1855:1862  owner() */\n      jump\t// in\n    tag_184:\n        /* \"@openzeppelin/contracts/access/Ownable.sol\":1855:1878  owner() != _msgSender() */\n      0xffffffffffffffffffffffffffffffffffffffff\n      and\n      eq\n        /* \"@openzeppelin/contracts/access/Ownable.sol\":1851:1952  if (owner() != _msgSender()) {... */\n      tag_185\n      jumpi\n        /* \"@openzeppelin/contracts/access/Ownable.sol\":1928:1940  _msgSender() */\n      tag_186\n        /* \"@openzeppelin/contracts/access/Ownable.sol\":1928:1938  _msgSender */\n      tag_183\n        /* \"@openzeppelin/contracts/access/Ownable.sol\":1928:1940  _msgSender() */\n      jump\t// in\n    tag_186:\n        /* \"@openzeppelin/contracts/access/Ownable.sol\":1901:1941  OwnableUnauthorizedAccount(_msgSender()) */\n      mload(0x40)\n      0x118cdaa700000000000000000000000000000000000000000000000000000000\n      dup2\n      mstore\n      0x04\n      add\n      tag_187\n      swap2\n      swap1\n      tag_36\n      jump\t// in\n    tag_187:\n      mload(0x40)\n      dup1\n      swap2\n      sub\n      swap1\n      revert\n        /* \"@openzeppelin/contracts/access/Ownable.sol\":1851:1952  if (owner() != _msgSender()) {... */\n    tag_185:\n        /* \"@openzeppelin/contracts/access/Ownable.sol\":1796:1958  function _checkOwner() internal view virtual {... */\n      jump\t// out\n        /* \"@openzeppelin/contracts/access/Ownable.sol\":2912:3099  function _transferOwnership(address newOwner) internal virtual {... */\n    tag_85:\n        /* \"@openzeppelin/contracts/access/Ownable.sol\":2985:3001  address oldOwner */\n      0x00\n        /* \"@openzeppelin/contracts/access/Ownable.sol\":3004:3010  _owner */\n      dup1\n      0x00\n      swap1\n      sload\n      swap1\n      0x0100\n      exp\n      swap1\n      div\n      0xffffffffffffffffffffffffffffffffffffffff\n      and\n        /* \"@openzeppelin/contracts/access/Ownable.sol\":2985:3010  address oldOwner = _owner */\n      swap1\n      pop\n        /* \"@openzeppelin/contracts/access/Ownable.sol\":3029:3037  newOwner */\n      dup2\n        /* \"@openzeppelin/contracts/access/Ownable.sol\":3020:3026  _owner */\n      0x00\n      dup1\n        /* \"@openzeppelin/contracts/access/Ownable.sol\":3020:3037  _owner = newOwner */\n      0x0100\n      exp\n      dup2\n      sload\n      dup2\n      0xffffffffffffffffffffffffffffffffffffffff\n      mul\n      not\n      and\n      swap1\n      dup4\n      0xffffffffffffffffffffffffffffffffffffffff\n      and\n      mul\n      or\n      swap1\n      sstore\n      pop\n        /* \"@openzeppelin/contracts/access/Ownable.sol\":3083:3091  newOwner */\n      dup2\n        /* \"@openzeppelin/contracts/access/Ownable.sol\":3052:3092  OwnershipTransferred(oldOwner, newOwner) */\n      0xffffffffffffffffffffffffffffffffffffffff\n      and\n        /* \"@openzeppelin/contracts/access/Ownable.sol\":3073:3081  oldOwner */\n      dup2\n        /* \"@openzeppelin/contracts/access/Ownable.sol\":3052:3092  OwnershipTransferred(oldOwner, newOwner) */\n      0xffffffffffffffffffffffffffffffffffffffff\n      and\n      0x8be0079c531659141344cd1fd0a4f28419497f9722a3daafe3b4186f6b6457e0\n      mload(0x40)\n      mload(0x40)\n      dup1\n      swap2\n      sub\n      swap1\n      log3\n        /* \"@openzeppelin/contracts/access/Ownable.sol\":2975:3099  {... */\n      pop\n        /* \"@openzeppelin/contracts/access/Ownable.sol\":2912:3099  function _transferOwnership(address newOwner) internal virtual {... */\n      pop\n      jump\t// out\n        /* \"SimpleDEX.sol\":3597:3863  function getAmountOut(uint256 amountIn, uint256 reserveIn, uint256 reserveOut) private pure returns (uint256) {... */\n    tag_99:\n        /* \"SimpleDEX.sol\":3698:3705  uint256 */\n      0x00\n        /* \"SimpleDEX.sol\":3722:3739  uint256 numerator */\n      dup1\n        /* \"SimpleDEX.sol\":3753:3763  reserveOut */\n      dup3\n        /* \"SimpleDEX.sol\":3742:3750  amountIn */\n      dup6\n        /* \"SimpleDEX.sol\":3742:3763  amountIn * reserveOut */\n      tag_190\n      swap2\n      swap1\n      tag_66\n      jump\t// in\n    tag_190:\n        /* \"SimpleDEX.sol\":3722:3763  uint256 numerator = amountIn * reserveOut */\n      swap1\n      pop\n        /* \"SimpleDEX.sol\":3773:3792  uint256 denominator */\n      0x00\n        /* \"SimpleDEX.sol\":3807:3815  amountIn */\n      dup6\n        /* \"SimpleDEX.sol\":3795:3804  reserveIn */\n      dup6\n        /* \"SimpleDEX.sol\":3795:3815  reserveIn + amountIn */\n      tag_191\n      swap2\n      swap1\n      tag_192\n      jump\t// in\n    tag_191:\n        /* \"SimpleDEX.sol\":3773:3815  uint256 denominator = reserveIn + amountIn */\n      swap1\n      pop\n        /* \"SimpleDEX.sol\":3845:3856  denominator */\n      dup1\n        /* \"SimpleDEX.sol\":3833:3842  numerator */\n      dup3\n        /* \"SimpleDEX.sol\":3833:3856  numerator / denominator */\n      tag_193\n      swap2\n      swap1\n      tag_68\n      jump\t// in\n    tag_193:\n        /* \"SimpleDEX.sol\":3826:3856  return numerator / denominator */\n      swap3\n      pop\n      pop\n      pop\n        /* \"SimpleDEX.sol\":3597:3863  function getAmountOut(uint256 amountIn, uint256 reserveIn, uint256 reserveOut) private pure returns (uint256) {... */\n      swap4\n      swap3\n      pop\n      pop\n      pop\n      jump\t// out\n        /* \"@openzeppelin/contracts/utils/Context.sol\":656:752  function _msgSender() internal view virtual returns (address) {... */\n    tag_183:\n        /* \"@openzeppelin/contracts/utils/Context.sol\":709:716  address */\n      0x00\n        /* \"@openzeppelin/contracts/utils/Context.sol\":735:745  msg.sender */\n      caller\n        /* \"@openzeppelin/contracts/utils/Context.sol\":728:745  return msg.sender */\n      swap1\n      pop\n        /* \"@openzeppelin/contracts/utils/Context.sol\":656:752  function _msgSender() internal view virtual returns (address) {... */\n      swap1\n      jump\t// out\n        /* \"#utility.yul\":7:133   */\n    tag_195:\n        /* \"#utility.yul\":44:51   */\n      0x00\n        /* \"#utility.yul\":84:126   */\n      0xffffffffffffffffffffffffffffffffffffffff\n        /* \"#utility.yul\":77:82   */\n      dup3\n        /* \"#utility.yul\":73:127   */\n      and\n        /* \"#utility.yul\":62:127   */\n      swap1\n      pop\n        /* \"#utility.yul\":7:133   */\n      swap2\n      swap1\n      pop\n      jump\t// out\n        /* \"#utility.yul\":139:199   */\n    tag_196:\n        /* \"#utility.yul\":167:170   */\n      0x00\n        /* \"#utility.yul\":188:193   */\n      dup2\n        /* \"#utility.yul\":181:193   */\n      swap1\n      pop\n        /* \"#utility.yul\":139:199   */\n      swap2\n      swap1\n      pop\n      jump\t// out\n        /* \"#utility.yul\":205:347   */\n    tag_197:\n        /* \"#utility.yul\":255:264   */\n      0x00\n        /* \"#utility.yul\":288:341   */\n      tag_231\n        /* \"#utility.yul\":306:340   */\n      tag_232\n        /* \"#utility.yul\":315:339   */\n      tag_233\n        /* \"#utility.yul\":333:338   */\n      dup5\n        /* \"#utility.yul\":315:339   */\n      tag_195\n      jump\t// in\n    tag_233:\n        /* \"#utility.yul\":306:340   */\n      tag_196\n      jump\t// in\n    tag_232:\n        /* \"#utility.yul\":288:341   */\n      tag_195\n      jump\t// in\n    tag_231:\n        /* \"#utility.yul\":275:341   */\n      swap1\n      pop\n        /* \"#utility.yul\":205:347   */\n      swap2\n      swap1\n      pop\n      jump\t// out\n        /* \"#utility.yul\":353:479   */\n    tag_198:\n        /* \"#utility.yul\":403:412   */\n      0x00\n        /* \"#utility.yul\":436:473   */\n      tag_235\n        /* \"#utility.yul\":467:472   */\n      dup3\n        /* \"#utility.yul\":436:473   */\n      tag_197\n      jump\t// in\n    tag_235:\n        /* \"#utility.yul\":423:473   */\n      swap1\n      pop\n        /* \"#utility.yul\":353:479   */\n      swap2\n      swap1\n      pop\n      jump\t// out\n        /* \"#utility.yul\":485:625   */\n    tag_199:\n        /* \"#utility.yul\":549:558   */\n      0x00\n        /* \"#utility.yul\":582:619   */\n      tag_237\n        /* \"#utility.yul\":613:618   */\n      dup3\n        /* \"#utility.yul\":582:619   */\n      tag_198\n      jump\t// in\n    tag_237:\n        /* \"#utility.yul\":569:619   */\n      swap1\n      pop\n        /* \"#utility.yul\":485:625   */\n      swap2\n      swap1\n      pop\n      jump\t// out\n        /* \"#utility.yul\":631:790   */\n    tag_200:\n        /* \"#utility.yul\":732:783   */\n      tag_239\n        /* \"#utility.yul\":777:782   */\n      dup2\n        /* \"#utility.yul\":732:783   */\n      tag_199\n      jump\t// in\n    tag_239:\n        /* \"#utility.yul\":727:730   */\n      dup3\n        /* \"#utility.yul\":720:784   */\n      mstore\n        /* \"#utility.yul\":631:790   */\n      pop\n      pop\n      jump\t// out\n        /* \"#utility.yul\":796:1046   */\n    tag_17:\n        /* \"#utility.yul\":903:907   */\n      0x00\n        /* \"#utility.yul\":941:943   */\n      0x20\n        /* \"#utility.yul\":930:939   */\n      dup3\n        /* \"#utility.yul\":926:944   */\n      add\n        /* \"#utility.yul\":918:944   */\n      swap1\n      pop\n        /* \"#utility.yul\":954:1039   */\n      tag_241\n        /* \"#utility.yul\":1036:1037   */\n      0x00\n        /* \"#utility.yul\":1025:1034   */\n      dup4\n        /* \"#utility.yul\":1021:1038   */\n      add\n        /* \"#utility.yul\":1012:1018   */\n      dup5\n        /* \"#utility.yul\":954:1039   */\n      tag_200\n      jump\t// in\n    tag_241:\n        /* \"#utility.yul\":796:1046   */\n      swap3\n      swap2\n      pop\n      pop\n      jump\t// out\n        /* \"#utility.yul\":1133:1250   */\n    tag_202:\n        /* \"#utility.yul\":1242:1243   */\n      0x00\n        /* \"#utility.yul\":1239:1240   */\n      dup1\n        /* \"#utility.yul\":1232:1244   */\n      revert\n        /* \"#utility.yul\":1379:1475   */\n    tag_204:\n        /* \"#utility.yul\":1416:1423   */\n      0x00\n        /* \"#utility.yul\":1445:1469   */\n      tag_246\n        /* \"#utility.yul\":1463:1468   */\n      dup3\n        /* \"#utility.yul\":1445:1469   */\n      tag_195\n      jump\t// in\n    tag_246:\n        /* \"#utility.yul\":1434:1469   */\n      swap1\n      pop\n        /* \"#utility.yul\":1379:1475   */\n      swap2\n      swap1\n      pop\n      jump\t// out\n        /* \"#utility.yul\":1481:1603   */\n    tag_205:\n        /* \"#utility.yul\":1554:1578   */\n      tag_248\n        /* \"#utility.yul\":1572:1577   */\n      dup2\n        /* \"#utility.yul\":1554:1578   */\n      tag_204\n      jump\t// in\n    tag_248:\n        /* \"#utility.yul\":1547:1552   */\n      dup2\n        /* \"#utility.yul\":1544:1579   */\n      eq\n        /* \"#utility.yul\":1534:1597   */\n      tag_249\n      jumpi\n        /* \"#utility.yul\":1593:1594   */\n      0x00\n        /* \"#utility.yul\":1590:1591   */\n      dup1\n        /* \"#utility.yul\":1583:1595   */\n      revert\n        /* \"#utility.yul\":1534:1597   */\n    tag_249:\n        /* \"#utility.yul\":1481:1603   */\n      pop\n      jump\t// out\n        /* \"#utility.yul\":1609:1748   */\n    tag_206:\n        /* \"#utility.yul\":1655:1660   */\n      0x00\n        /* \"#utility.yul\":1693:1699   */\n      dup2\n        /* \"#utility.yul\":1680:1700   */\n      calldataload\n        /* \"#utility.yul\":1671:1700   */\n      swap1\n      pop\n        /* \"#utility.yul\":1709:1742   */\n      tag_251\n        /* \"#utility.yul\":1736:1741   */\n      dup2\n        /* \"#utility.yul\":1709:1742   */\n      tag_205\n      jump\t// in\n    tag_251:\n        /* \"#utility.yul\":1609:1748   */\n      swap3\n      swap2\n      pop\n      pop\n      jump\t// out\n        /* \"#utility.yul\":1754:2083   */\n    tag_20:\n        /* \"#utility.yul\":1813:1819   */\n      0x00\n        /* \"#utility.yul\":1862:1864   */\n      0x20\n        /* \"#utility.yul\":1850:1859   */\n      dup3\n        /* \"#utility.yul\":1841:1848   */\n      dup5\n        /* \"#utility.yul\":1837:1860   */\n      sub\n        /* \"#utility.yul\":1833:1865   */\n      slt\n        /* \"#utility.yul\":1830:1949   */\n      iszero\n      tag_253\n      jumpi\n        /* \"#utility.yul\":1868:1947   */\n      tag_254\n      tag_202\n      jump\t// in\n    tag_254:\n        /* \"#utility.yul\":1830:1949   */\n    tag_253:\n        /* \"#utility.yul\":1988:1989   */\n      0x00\n        /* \"#utility.yul\":2013:2066   */\n      tag_255\n        /* \"#utility.yul\":2058:2065   */\n      dup5\n        /* \"#utility.yul\":2049:2055   */\n      dup3\n        /* \"#utility.yul\":2038:2047   */\n      dup6\n        /* \"#utility.yul\":2034:2056   */\n      add\n        /* \"#utility.yul\":2013:2066   */\n      tag_206\n      jump\t// in\n    tag_255:\n        /* \"#utility.yul\":2003:2066   */\n      swap2\n      pop\n        /* \"#utility.yul\":1959:2076   */\n      pop\n        /* \"#utility.yul\":1754:2083   */\n      swap3\n      swap2\n      pop\n      pop\n      jump\t// out\n        /* \"#utility.yul\":2089:2166   */\n    tag_207:\n        /* \"#utility.yul\":2126:2133   */\n      0x00\n        /* \"#utility.yul\":2155:2160   */\n      dup2\n        /* \"#utility.yul\":2144:2160   */\n      swap1\n      pop\n        /* \"#utility.yul\":2089:2166   */\n      swap2\n      swap1\n      pop\n      jump\t// out\n        /* \"#utility.yul\":2172:2290   */\n    tag_208:\n        /* \"#utility.yul\":2259:2283   */\n      tag_258\n        /* \"#utility.yul\":2277:2282   */\n      dup2\n        /* \"#utility.yul\":2259:2283   */\n      tag_207\n      jump\t// in\n    tag_258:\n        /* \"#utility.yul\":2254:2257   */\n      dup3\n        /* \"#utility.yul\":2247:2284   */\n      mstore\n        /* \"#utility.yul\":2172:2290   */\n      pop\n      pop\n      jump\t// out\n        /* \"#utility.yul\":2296:2518   */\n    tag_23:\n        /* \"#utility.yul\":2389:2393   */\n      0x00\n        /* \"#utility.yul\":2427:2429   */\n      0x20\n        /* \"#utility.yul\":2416:2425   */\n      dup3\n        /* \"#utility.yul\":2412:2430   */\n      add\n        /* \"#utility.yul\":2404:2430   */\n      swap1\n      pop\n        /* \"#utility.yul\":2440:2511   */\n      tag_260\n        /* \"#utility.yul\":2508:2509   */\n      0x00\n        /* \"#utility.yul\":2497:2506   */\n      dup4\n        /* \"#utility.yul\":2493:2510   */\n      add\n        /* \"#utility.yul\":2484:2490   */\n      dup5\n        /* \"#utility.yul\":2440:2511   */\n      tag_208\n      jump\t// in\n    tag_260:\n        /* \"#utility.yul\":2296:2518   */\n      swap3\n      swap2\n      pop\n      pop\n      jump\t// out\n        /* \"#utility.yul\":2524:2646   */\n    tag_209:\n        /* \"#utility.yul\":2597:2621   */\n      tag_262\n        /* \"#utility.yul\":2615:2620   */\n      dup2\n        /* \"#utility.yul\":2597:2621   */\n      tag_207\n      jump\t// in\n    tag_262:\n        /* \"#utility.yul\":2590:2595   */\n      dup2\n        /* \"#utility.yul\":2587:2622   */\n      eq\n        /* \"#utility.yul\":2577:2640   */\n      tag_263\n      jumpi\n        /* \"#utility.yul\":2636:2637   */\n      0x00\n        /* \"#utility.yul\":2633:2634   */\n      dup1\n        /* \"#utility.yul\":2626:2638   */\n      revert\n        /* \"#utility.yul\":2577:2640   */\n    tag_263:\n        /* \"#utility.yul\":2524:2646   */\n      pop\n      jump\t// out\n        /* \"#utility.yul\":2652:2791   */\n    tag_210:\n        /* \"#utility.yul\":2698:2703   */\n      0x00\n        /* \"#utility.yul\":2736:2742   */\n      dup2\n        /* \"#utility.yul\":2723:2743   */\n      calldataload\n        /* \"#utility.yul\":2714:2743   */\n      swap1\n      pop\n        /* \"#utility.yul\":2752:2785   */\n      tag_265\n        /* \"#utility.yul\":2779:2784   */\n      dup2\n        /* \"#utility.yul\":2752:2785   */\n      tag_209\n      jump\t// in\n    tag_265:\n        /* \"#utility.yul\":2652:2791   */\n      swap3\n      swap2\n      pop\n      pop\n      jump\t// out\n        /* \"#utility.yul\":2797:3126   */\n    tag_31:\n        /* \"#utility.yul\":2856:2862   */\n      0x00\n        /* \"#utility.yul\":2905:2907   */\n      0x20\n        /* \"#utility.yul\":2893:2902   */\n      dup3\n        /* \"#utility.yul\":2884:2891   */\n      dup5\n        /* \"#utility.yul\":2880:2903   */\n      sub\n        /* \"#utility.yul\":2876:2908   */\n      slt\n        /* \"#utility.yul\":2873:2992   */\n      iszero\n      tag_267\n      jumpi\n        /* \"#utility.yul\":2911:2990   */\n      tag_268\n      tag_202\n      jump\t// in\n    tag_268:\n        /* \"#utility.yul\":2873:2992   */\n    tag_267:\n        /* \"#utility.yul\":3031:3032   */\n      0x00\n        /* \"#utility.yul\":3056:3109   */\n      tag_269\n        /* \"#utility.yul\":3101:3108   */\n      dup5\n        /* \"#utility.yul\":3092:3098   */\n      dup3\n        /* \"#utility.yul\":3081:3090   */\n      dup6\n        /* \"#utility.yul\":3077:3099   */\n      add\n        /* \"#utility.yul\":3056:3109   */\n      tag_210\n      jump\t// in\n    tag_269:\n        /* \"#utility.yul\":3046:3109   */\n      swap2\n      pop\n        /* \"#utility.yul\":3002:3119   */\n      pop\n        /* \"#utility.yul\":2797:3126   */\n      swap3\n      swap2\n      pop\n      pop\n      jump\t// out\n        /* \"#utility.yul\":3132:3250   */\n    tag_211:\n        /* \"#utility.yul\":3219:3243   */\n      tag_271\n        /* \"#utility.yul\":3237:3242   */\n      dup2\n        /* \"#utility.yul\":3219:3243   */\n      tag_204\n      jump\t// in\n    tag_271:\n        /* \"#utility.yul\":3214:3217   */\n      dup3\n        /* \"#utility.yul\":3207:3244   */\n      mstore\n        /* \"#utility.yul\":3132:3250   */\n      pop\n      pop\n      jump\t// out\n        /* \"#utility.yul\":3256:3478   */\n    tag_36:\n        /* \"#utility.yul\":3349:3353   */\n      0x00\n        /* \"#utility.yul\":3387:3389   */\n      0x20\n        /* \"#utility.yul\":3376:3385   */\n      dup3\n        /* \"#utility.yul\":3372:3390   */\n      add\n        /* \"#utility.yul\":3364:3390   */\n      swap1\n      pop\n        /* \"#utility.yul\":3400:3471   */\n      tag_273\n        /* \"#utility.yul\":3468:3469   */\n      0x00\n        /* \"#utility.yul\":3457:3466   */\n      dup4\n        /* \"#utility.yul\":3453:3470   */\n      add\n        /* \"#utility.yul\":3444:3450   */\n      dup5\n        /* \"#utility.yul\":3400:3471   */\n      tag_211\n      jump\t// in\n    tag_273:\n        /* \"#utility.yul\":3256:3478   */\n      swap3\n      swap2\n      pop\n      pop\n      jump\t// out\n        /* \"#utility.yul\":3484:3958   */\n    tag_39:\n        /* \"#utility.yul\":3552:3558   */\n      0x00\n        /* \"#utility.yul\":3560:3566   */\n      dup1\n        /* \"#utility.yul\":3609:3611   */\n      0x40\n        /* \"#utility.yul\":3597:3606   */\n      dup4\n        /* \"#utility.yul\":3588:3595   */\n      dup6\n        /* \"#utility.yul\":3584:3607   */\n      sub\n        /* \"#utility.yul\":3580:3612   */\n      slt\n        /* \"#utility.yul\":3577:3696   */\n      iszero\n      tag_275\n      jumpi\n        /* \"#utility.yul\":3615:3694   */\n      tag_276\n      tag_202\n      jump\t// in\n    tag_276:\n        /* \"#utility.yul\":3577:3696   */\n    tag_275:\n        /* \"#utility.yul\":3735:3736   */\n      0x00\n        /* \"#utility.yul\":3760:3813   */\n      tag_277\n        /* \"#utility.yul\":3805:3812   */\n      dup6\n        /* \"#utility.yul\":3796:3802   */\n      dup3\n        /* \"#utility.yul\":3785:3794   */\n      dup7\n        /* \"#utility.yul\":3781:3803   */\n      add\n        /* \"#utility.yul\":3760:3813   */\n      tag_210\n      jump\t// in\n    tag_277:\n        /* \"#utility.yul\":3750:3813   */\n      swap3\n      pop\n        /* \"#utility.yul\":3706:3823   */\n      pop\n        /* \"#utility.yul\":3862:3864   */\n      0x20\n        /* \"#utility.yul\":3888:3941   */\n      tag_278\n        /* \"#utility.yul\":3933:3940   */\n      dup6\n        /* \"#utility.yul\":3924:3930   */\n      dup3\n        /* \"#utility.yul\":3913:3922   */\n      dup7\n        /* \"#utility.yul\":3909:3931   */\n      add\n        /* \"#utility.yul\":3888:3941   */\n      tag_210\n      jump\t// in\n    tag_278:\n        /* \"#utility.yul\":3878:3941   */\n      swap2\n      pop\n        /* \"#utility.yul\":3833:3951   */\n      pop\n        /* \"#utility.yul\":3484:3958   */\n      swap3\n      pop\n      swap3\n      swap1\n      pop\n      jump\t// out\n        /* \"#utility.yul\":3964:4133   */\n    tag_212:\n        /* \"#utility.yul\":4048:4059   */\n      0x00\n        /* \"#utility.yul\":4082:4088   */\n      dup3\n        /* \"#utility.yul\":4077:4080   */\n      dup3\n        /* \"#utility.yul\":4070:4089   */\n      mstore\n        /* \"#utility.yul\":4122:4126   */\n      0x20\n        /* \"#utility.yul\":4117:4120   */\n      dup3\n        /* \"#utility.yul\":4113:4127   */\n      add\n        /* \"#utility.yul\":4098:4127   */\n      swap1\n      pop\n        /* \"#utility.yul\":3964:4133   */\n      swap3\n      swap2\n      pop\n      pop\n      jump\t// out\n        /* \"#utility.yul\":4139:4302   */\n    tag_213:\n        /* \"#utility.yul\":4279:4294   */\n      0x696e76616c696420746f6b656e00000000000000000000000000000000000000\n        /* \"#utility.yul\":4275:4276   */\n      0x00\n        /* \"#utility.yul\":4267:4273   */\n      dup3\n        /* \"#utility.yul\":4263:4277   */\n      add\n        /* \"#utility.yul\":4256:4295   */\n      mstore\n        /* \"#utility.yul\":4139:4302   */\n      pop\n      jump\t// out\n        /* \"#utility.yul\":4308:4674   */\n    tag_214:\n        /* \"#utility.yul\":4450:4453   */\n      0x00\n        /* \"#utility.yul\":4471:4538   */\n      tag_282\n        /* \"#utility.yul\":4535:4537   */\n      0x0d\n        /* \"#utility.yul\":4530:4533   */\n      dup4\n        /* \"#utility.yul\":4471:4538   */\n      tag_212\n      jump\t// in\n    tag_282:\n        /* \"#utility.yul\":4464:4538   */\n      swap2\n      pop\n        /* \"#utility.yul\":4547:4640   */\n      tag_283\n        /* \"#utility.yul\":4636:4639   */\n      dup3\n        /* \"#utility.yul\":4547:4640   */\n      tag_213\n      jump\t// in\n    tag_283:\n        /* \"#utility.yul\":4665:4667   */\n      0x20\n        /* \"#utility.yul\":4660:4663   */\n      dup3\n        /* \"#utility.yul\":4656:4668   */\n      add\n        /* \"#utility.yul\":4649:4668   */\n      swap1\n      pop\n        /* \"#utility.yul\":4308:4674   */\n      swap2\n      swap1\n      pop\n      jump\t// out\n        /* \"#utility.yul\":4680:5099   */\n    tag_54:\n        /* \"#utility.yul\":4846:4850   */\n      0x00\n        /* \"#utility.yul\":4884:4886   */\n      0x20\n        /* \"#utility.yul\":4873:4882   */\n      dup3\n        /* \"#utility.yul\":4869:4887   */\n      add\n        /* \"#utility.yul\":4861:4887   */\n      swap1\n      pop\n        /* \"#utility.yul\":4933:4942   */\n      dup2\n        /* \"#utility.yul\":4927:4931   */\n      dup2\n        /* \"#utility.yul\":4923:4943   */\n      sub\n        /* \"#utility.yul\":4919:4920   */\n      0x00\n        /* \"#utility.yul\":4908:4917   */\n      dup4\n        /* \"#utility.yul\":4904:4921   */\n      add\n        /* \"#utility.yul\":4897:4944   */\n      mstore\n        /* \"#utility.yul\":4961:5092   */\n      tag_285\n        /* \"#utility.yul\":5087:5091   */\n      dup2\n        /* \"#utility.yul\":4961:5092   */\n      tag_214\n      jump\t// in\n    tag_285:\n        /* \"#utility.yul\":4953:5092   */\n      swap1\n      pop\n        /* \"#utility.yul\":4680:5099   */\n      swap2\n      swap1\n      pop\n      jump\t// out\n        /* \"#utility.yul\":5105:5248   */\n    tag_215:\n        /* \"#utility.yul\":5162:5167   */\n      0x00\n        /* \"#utility.yul\":5193:5199   */\n      dup2\n        /* \"#utility.yul\":5187:5200   */\n      mload\n        /* \"#utility.yul\":5178:5200   */\n      swap1\n      pop\n        /* \"#utility.yul\":5209:5242   */\n      tag_287\n        /* \"#utility.yul\":5236:5241   */\n      dup2\n        /* \"#utility.yul\":5209:5242   */\n      tag_209\n      jump\t// in\n    tag_287:\n        /* \"#utility.yul\":5105:5248   */\n      swap3\n      swap2\n      pop\n      pop\n      jump\t// out\n        /* \"#utility.yul\":5254:5605   */\n    tag_60:\n        /* \"#utility.yul\":5324:5330   */\n      0x00\n        /* \"#utility.yul\":5373:5375   */\n      0x20\n        /* \"#utility.yul\":5361:5370   */\n      dup3\n        /* \"#utility.yul\":5352:5359   */\n      dup5\n        /* \"#utility.yul\":5348:5371   */\n      sub\n        /* \"#utility.yul\":5344:5376   */\n      slt\n        /* \"#utility.yul\":5341:5460   */\n      iszero\n      tag_289\n      jumpi\n        /* \"#utility.yul\":5379:5458   */\n      tag_290\n      tag_202\n      jump\t// in\n    tag_290:\n        /* \"#utility.yul\":5341:5460   */\n    tag_289:\n        /* \"#utility.yul\":5499:5500   */\n      0x00\n        /* \"#utility.yul\":5524:5588   */\n      tag_291\n        /* \"#utility.yul\":5580:5587   */\n      dup5\n        /* \"#utility.yul\":5571:5577   */\n      dup3\n        /* \"#utility.yul\":5560:5569   */\n      dup6\n        /* \"#utility.yul\":5556:5578   */\n      add\n        /* \"#utility.yul\":5524:5588   */\n      tag_215\n      jump\t// in\n    tag_291:\n        /* \"#utility.yul\":5514:5588   */\n      swap2\n      pop\n        /* \"#utility.yul\":5470:5598   */\n      pop\n        /* \"#utility.yul\":5254:5605   */\n      swap3\n      swap2\n      pop\n      pop\n      jump\t// out\n        /* \"#utility.yul\":5611:5791   */\n    tag_216:\n        /* \"#utility.yul\":5659:5736   */\n      0x4e487b7100000000000000000000000000000000000000000000000000000000\n        /* \"#utility.yul\":5656:5657   */\n      0x00\n        /* \"#utility.yul\":5649:5737   */\n      mstore\n        /* \"#utility.yul\":5756:5760   */\n      0x11\n        /* \"#utility.yul\":5753:5754   */\n      0x04\n        /* \"#utility.yul\":5746:5761   */\n      mstore\n        /* \"#utility.yul\":5780:5784   */\n      0x24\n        /* \"#utility.yul\":5777:5778   */\n      0x00\n        /* \"#utility.yul\":5770:5785   */\n      revert\n        /* \"#utility.yul\":5797:6207   */\n    tag_66:\n        /* \"#utility.yul\":5837:5844   */\n      0x00\n        /* \"#utility.yul\":5860:5880   */\n      tag_294\n        /* \"#utility.yul\":5878:5879   */\n      dup3\n        /* \"#utility.yul\":5860:5880   */\n      tag_207\n      jump\t// in\n    tag_294:\n        /* \"#utility.yul\":5855:5880   */\n      swap2\n      pop\n        /* \"#utility.yul\":5894:5914   */\n      tag_295\n        /* \"#utility.yul\":5912:5913   */\n      dup4\n        /* \"#utility.yul\":5894:5914   */\n      tag_207\n      jump\t// in\n    tag_295:\n        /* \"#utility.yul\":5889:5914   */\n      swap3\n      pop\n        /* \"#utility.yul\":5949:5950   */\n      dup3\n        /* \"#utility.yul\":5946:5947   */\n      dup3\n        /* \"#utility.yul\":5942:5951   */\n      mul\n        /* \"#utility.yul\":5971:6001   */\n      tag_296\n        /* \"#utility.yul\":5989:6000   */\n      dup2\n        /* \"#utility.yul\":5971:6001   */\n      tag_207\n      jump\t// in\n    tag_296:\n        /* \"#utility.yul\":5960:6001   */\n      swap2\n      pop\n        /* \"#utility.yul\":6150:6151   */\n      dup3\n        /* \"#utility.yul\":6141:6148   */\n      dup3\n        /* \"#utility.yul\":6137:6152   */\n      div\n        /* \"#utility.yul\":6134:6135   */\n      dup5\n        /* \"#utility.yul\":6131:6153   */\n      eq\n        /* \"#utility.yul\":6111:6112   */\n      dup4\n        /* \"#utility.yul\":6104:6113   */\n      iszero\n        /* \"#utility.yul\":6084:6167   */\n      or\n        /* \"#utility.yul\":6061:6200   */\n      tag_297\n      jumpi\n        /* \"#utility.yul\":6180:6198   */\n      tag_298\n      tag_216\n      jump\t// in\n    tag_298:\n        /* \"#utility.yul\":6061:6200   */\n    tag_297:\n        /* \"#utility.yul\":5845:6207   */\n      pop\n        /* \"#utility.yul\":5797:6207   */\n      swap3\n      swap2\n      pop\n      pop\n      jump\t// out\n        /* \"#utility.yul\":6213:6393   */\n    tag_217:\n        /* \"#utility.yul\":6261:6338   */\n      0x4e487b7100000000000000000000000000000000000000000000000000000000\n        /* \"#utility.yul\":6258:6259   */\n      0x00\n        /* \"#utility.yul\":6251:6339   */\n      mstore\n        /* \"#utility.yul\":6358:6362   */\n      0x12\n        /* \"#utility.yul\":6355:6356   */\n      0x04\n        /* \"#utility.yul\":6348:6363   */\n      mstore\n        /* \"#utility.yul\":6382:6386   */\n      0x24\n        /* \"#utility.yul\":6379:6380   */\n      0x00\n        /* \"#utility.yul\":6372:6387   */\n      revert\n        /* \"#utility.yul\":6399:6584   */\n    tag_68:\n        /* \"#utility.yul\":6439:6440   */\n      0x00\n        /* \"#utility.yul\":6456:6476   */\n      tag_301\n        /* \"#utility.yul\":6474:6475   */\n      dup3\n        /* \"#utility.yul\":6456:6476   */\n      tag_207\n      jump\t// in\n    tag_301:\n        /* \"#utility.yul\":6451:6476   */\n      swap2\n      pop\n        /* \"#utility.yul\":6490:6510   */\n      tag_302\n        /* \"#utility.yul\":6508:6509   */\n      dup4\n        /* \"#utility.yul\":6490:6510   */\n      tag_207\n      jump\t// in\n    tag_302:\n        /* \"#utility.yul\":6485:6510   */\n      swap3\n      pop\n        /* \"#utility.yul\":6529:6530   */\n      dup3\n        /* \"#utility.yul\":6519:6554   */\n      tag_303\n      jumpi\n        /* \"#utility.yul\":6534:6552   */\n      tag_304\n      tag_217\n      jump\t// in\n    tag_304:\n        /* \"#utility.yul\":6519:6554   */\n    tag_303:\n        /* \"#utility.yul\":6576:6577   */\n      dup3\n        /* \"#utility.yul\":6573:6574   */\n      dup3\n        /* \"#utility.yul\":6569:6578   */\n      div\n        /* \"#utility.yul\":6564:6578   */\n      swap1\n      pop\n        /* \"#utility.yul\":6399:6584   */\n      swap3\n      swap2\n      pop\n      pop\n      jump\t// out\n        /* \"#utility.yul\":6590:6760   */\n    tag_218:\n        /* \"#utility.yul\":6730:6752   */\n      0x496e76616c696420696e70757420616d6f756e74000000000000000000000000\n        /* \"#utility.yul\":6726:6727   */\n      0x00\n        /* \"#utility.yul\":6718:6724   */\n      dup3\n        /* \"#utility.yul\":6714:6728   */\n      add\n        /* \"#utility.yul\":6707:6753   */\n      mstore\n        /* \"#utility.yul\":6590:6760   */\n      pop\n      jump\t// out\n        /* \"#utility.yul\":6766:7132   */\n    tag_219:\n        /* \"#utility.yul\":6908:6911   */\n      0x00\n        /* \"#utility.yul\":6929:6996   */\n      tag_307\n        /* \"#utility.yul\":6993:6995   */\n      0x14\n        /* \"#utility.yul\":6988:6991   */\n      dup4\n        /* \"#utility.yul\":6929:6996   */\n      tag_212\n      jump\t// in\n    tag_307:\n        /* \"#utility.yul\":6922:6996   */\n      swap2\n      pop\n        /* \"#utility.yul\":7005:7098   */\n      tag_308\n        /* \"#utility.yul\":7094:7097   */\n      dup3\n        /* \"#utility.yul\":7005:7098   */\n      tag_218\n      jump\t// in\n    tag_308:\n        /* \"#utility.yul\":7123:7125   */\n      0x20\n        /* \"#utility.yul\":7118:7121   */\n      dup3\n        /* \"#utility.yul\":7114:7126   */\n      add\n        /* \"#utility.yul\":7107:7126   */\n      swap1\n      pop\n        /* \"#utility.yul\":6766:7132   */\n      swap2\n      swap1\n      pop\n      jump\t// out\n        /* \"#utility.yul\":7138:7557   */\n    tag_89:\n        /* \"#utility.yul\":7304:7308   */\n      0x00\n        /* \"#utility.yul\":7342:7344   */\n      0x20\n        /* \"#utility.yul\":7331:7340   */\n      dup3\n        /* \"#utility.yul\":7327:7345   */\n      add\n        /* \"#utility.yul\":7319:7345   */\n      swap1\n      pop\n        /* \"#utility.yul\":7391:7400   */\n      dup2\n        /* \"#utility.yul\":7385:7389   */\n      dup2\n        /* \"#utility.yul\":7381:7401   */\n      sub\n        /* \"#utility.yul\":7377:7378   */\n      0x00\n        /* \"#utility.yul\":7366:7375   */\n      dup4\n        /* \"#utility.yul\":7362:7379   */\n      add\n        /* \"#utility.yul\":7355:7402   */\n      mstore\n        /* \"#utility.yul\":7419:7550   */\n      tag_310\n        /* \"#utility.yul\":7545:7549   */\n      dup2\n        /* \"#utility.yul\":7419:7550   */\n      tag_219\n      jump\t// in\n    tag_310:\n        /* \"#utility.yul\":7411:7550   */\n      swap1\n      pop\n        /* \"#utility.yul\":7138:7557   */\n      swap2\n      swap1\n      pop\n      jump\t// out\n        /* \"#utility.yul\":7563:8005   */\n    tag_101:\n        /* \"#utility.yul\":7712:7716   */\n      0x00\n        /* \"#utility.yul\":7750:7752   */\n      0x60\n        /* \"#utility.yul\":7739:7748   */\n      dup3\n        /* \"#utility.yul\":7735:7753   */\n      add\n        /* \"#utility.yul\":7727:7753   */\n      swap1\n      pop\n        /* \"#utility.yul\":7763:7834   */\n      tag_312\n        /* \"#utility.yul\":7831:7832   */\n      0x00\n        /* \"#utility.yul\":7820:7829   */\n      dup4\n        /* \"#utility.yul\":7816:7833   */\n      add\n        /* \"#utility.yul\":7807:7813   */\n      dup7\n        /* \"#utility.yul\":7763:7834   */\n      tag_211\n      jump\t// in\n    tag_312:\n        /* \"#utility.yul\":7844:7916   */\n      tag_313\n        /* \"#utility.yul\":7912:7914   */\n      0x20\n        /* \"#utility.yul\":7901:7910   */\n      dup4\n        /* \"#utility.yul\":7897:7915   */\n      add\n        /* \"#utility.yul\":7888:7894   */\n      dup6\n        /* \"#utility.yul\":7844:7916   */\n      tag_211\n      jump\t// in\n    tag_313:\n        /* \"#utility.yul\":7926:7998   */\n      tag_314\n        /* \"#utility.yul\":7994:7996   */\n      0x40\n        /* \"#utility.yul\":7983:7992   */\n      dup4\n        /* \"#utility.yul\":7979:7997   */\n      add\n        /* \"#utility.yul\":7970:7976   */\n      dup5\n        /* \"#utility.yul\":7926:7998   */\n      tag_208\n      jump\t// in\n    tag_314:\n        /* \"#utility.yul\":7563:8005   */\n      swap5\n      swap4\n      pop\n      pop\n      pop\n      pop\n      jump\t// out\n        /* \"#utility.yul\":8011:8101   */\n    tag_220:\n        /* \"#utility.yul\":8045:8052   */\n      0x00\n        /* \"#utility.yul\":8088:8093   */\n      dup2\n        /* \"#utility.yul\":8081:8094   */\n      iszero\n        /* \"#utility.yul\":8074:8095   */\n      iszero\n        /* \"#utility.yul\":8063:8095   */\n      swap1\n      pop\n        /* \"#utility.yul\":8011:8101   */\n      swap2\n      swap1\n      pop\n      jump\t// out\n        /* \"#utility.yul\":8107:8223   */\n    tag_221:\n        /* \"#utility.yul\":8177:8198   */\n      tag_317\n        /* \"#utility.yul\":8192:8197   */\n      dup2\n        /* \"#utility.yul\":8177:8198   */\n      tag_220\n      jump\t// in\n    tag_317:\n        /* \"#utility.yul\":8170:8175   */\n      dup2\n        /* \"#utility.yul\":8167:8199   */\n      eq\n        /* \"#utility.yul\":8157:8217   */\n      tag_318\n      jumpi\n        /* \"#utility.yul\":8213:8214   */\n      0x00\n        /* \"#utility.yul\":8210:8211   */\n      dup1\n        /* \"#utility.yul\":8203:8215   */\n      revert\n        /* \"#utility.yul\":8157:8217   */\n    tag_318:\n        /* \"#utility.yul\":8107:8223   */\n      pop\n      jump\t// out\n        /* \"#utility.yul\":8229:8366   */\n    tag_222:\n        /* \"#utility.yul\":8283:8288   */\n      0x00\n        /* \"#utility.yul\":8314:8320   */\n      dup2\n        /* \"#utility.yul\":8308:8321   */\n      mload\n        /* \"#utility.yul\":8299:8321   */\n      swap1\n      pop\n        /* \"#utility.yul\":8330:8360   */\n      tag_320\n        /* \"#utility.yul\":8354:8359   */\n      dup2\n        /* \"#utility.yul\":8330:8360   */\n      tag_221\n      jump\t// in\n    tag_320:\n        /* \"#utility.yul\":8229:8366   */\n      swap3\n      swap2\n      pop\n      pop\n      jump\t// out\n        /* \"#utility.yul\":8372:8717   */\n    tag_105:\n        /* \"#utility.yul\":8439:8445   */\n      0x00\n        /* \"#utility.yul\":8488:8490   */\n      0x20\n        /* \"#utility.yul\":8476:8485   */\n      dup3\n        /* \"#utility.yul\":8467:8474   */\n      dup5\n        /* \"#utility.yul\":8463:8486   */\n      sub\n        /* \"#utility.yul\":8459:8491   */\n      slt\n        /* \"#utility.yul\":8456:8575   */\n      iszero\n      tag_322\n      jumpi\n        /* \"#utility.yul\":8494:8573   */\n      tag_323\n      tag_202\n      jump\t// in\n    tag_323:\n        /* \"#utility.yul\":8456:8575   */\n    tag_322:\n        /* \"#utility.yul\":8614:8615   */\n      0x00\n        /* \"#utility.yul\":8639:8700   */\n      tag_324\n        /* \"#utility.yul\":8692:8699   */\n      dup5\n        /* \"#utility.yul\":8683:8689   */\n      dup3\n        /* \"#utility.yul\":8672:8681   */\n      dup6\n        /* \"#utility.yul\":8668:8690   */\n      add\n        /* \"#utility.yul\":8639:8700   */\n      tag_222\n      jump\t// in\n    tag_324:\n        /* \"#utility.yul\":8629:8700   */\n      swap2\n      pop\n        /* \"#utility.yul\":8585:8710   */\n      pop\n        /* \"#utility.yul\":8372:8717   */\n      swap3\n      swap2\n      pop\n      pop\n      jump\t// out\n        /* \"#utility.yul\":8723:9055   */\n    tag_107:\n        /* \"#utility.yul\":8844:8848   */\n      0x00\n        /* \"#utility.yul\":8882:8884   */\n      0x40\n        /* \"#utility.yul\":8871:8880   */\n      dup3\n        /* \"#utility.yul\":8867:8885   */\n      add\n        /* \"#utility.yul\":8859:8885   */\n      swap1\n      pop\n        /* \"#utility.yul\":8895:8966   */\n      tag_326\n        /* \"#utility.yul\":8963:8964   */\n      0x00\n        /* \"#utility.yul\":8952:8961   */\n      dup4\n        /* \"#utility.yul\":8948:8965   */\n      add\n        /* \"#utility.yul\":8939:8945   */\n      dup6\n        /* \"#utility.yul\":8895:8966   */\n      tag_211\n      jump\t// in\n    tag_326:\n        /* \"#utility.yul\":8976:9048   */\n      tag_327\n        /* \"#utility.yul\":9044:9046   */\n      0x20\n        /* \"#utility.yul\":9033:9042   */\n      dup4\n        /* \"#utility.yul\":9029:9047   */\n      add\n        /* \"#utility.yul\":9020:9026   */\n      dup5\n        /* \"#utility.yul\":8976:9048   */\n      tag_208\n      jump\t// in\n    tag_327:\n        /* \"#utility.yul\":8723:9055   */\n      swap4\n      swap3\n      pop\n      pop\n      pop\n      jump\t// out\n        /* \"#utility.yul\":9061:9393   */\n    tag_112:\n        /* \"#utility.yul\":9182:9186   */\n      0x00\n        /* \"#utility.yul\":9220:9222   */\n      0x40\n        /* \"#utility.yul\":9209:9218   */\n      dup3\n        /* \"#utility.yul\":9205:9223   */\n      add\n        /* \"#utility.yul\":9197:9223   */\n      swap1\n      pop\n        /* \"#utility.yul\":9233:9304   */\n      tag_329\n        /* \"#utility.yul\":9301:9302   */\n      0x00\n        /* \"#utility.yul\":9290:9299   */\n      dup4\n        /* \"#utility.yul\":9286:9303   */\n      add\n        /* \"#utility.yul\":9277:9283   */\n      dup6\n        /* \"#utility.yul\":9233:9304   */\n      tag_208\n      jump\t// in\n    tag_329:\n        /* \"#utility.yul\":9314:9386   */\n      tag_330\n        /* \"#utility.yul\":9382:9384   */\n      0x20\n        /* \"#utility.yul\":9371:9380   */\n      dup4\n        /* \"#utility.yul\":9367:9385   */\n      add\n        /* \"#utility.yul\":9358:9364   */\n      dup5\n        /* \"#utility.yul\":9314:9386   */\n      tag_208\n      jump\t// in\n    tag_330:\n        /* \"#utility.yul\":9061:9393   */\n      swap4\n      swap3\n      pop\n      pop\n      pop\n      jump\t// out\n        /* \"#utility.yul\":9399:9564   */\n    tag_223:\n        /* \"#utility.yul\":9539:9556   */\n      0x496e76616c696420616d6f756e74730000000000000000000000000000000000\n        /* \"#utility.yul\":9535:9536   */\n      0x00\n        /* \"#utility.yul\":9527:9533   */\n      dup3\n        /* \"#utility.yul\":9523:9537   */\n      add\n        /* \"#utility.yul\":9516:9557   */\n      mstore\n        /* \"#utility.yul\":9399:9564   */\n      pop\n      jump\t// out\n        /* \"#utility.yul\":9570:9936   */\n    tag_224:\n        /* \"#utility.yul\":9712:9715   */\n      0x00\n        /* \"#utility.yul\":9733:9800   */\n      tag_333\n        /* \"#utility.yul\":9797:9799   */\n      0x0f\n        /* \"#utility.yul\":9792:9795   */\n      dup4\n        /* \"#utility.yul\":9733:9800   */\n      tag_212\n      jump\t// in\n    tag_333:\n        /* \"#utility.yul\":9726:9800   */\n      swap2\n      pop\n        /* \"#utility.yul\":9809:9902   */\n      tag_334\n        /* \"#utility.yul\":9898:9901   */\n      dup3\n        /* \"#utility.yul\":9809:9902   */\n      tag_223\n      jump\t// in\n    tag_334:\n        /* \"#utility.yul\":9927:9929   */\n      0x20\n        /* \"#utility.yul\":9922:9925   */\n      dup3\n        /* \"#utility.yul\":9918:9930   */\n      add\n        /* \"#utility.yul\":9911:9930   */\n      swap1\n      pop\n        /* \"#utility.yul\":9570:9936   */\n      swap2\n      swap1\n      pop\n      jump\t// out\n        /* \"#utility.yul\":9942:10361   */\n    tag_120:\n        /* \"#utility.yul\":10108:10112   */\n      0x00\n        /* \"#utility.yul\":10146:10148   */\n      0x20\n        /* \"#utility.yul\":10135:10144   */\n      dup3\n        /* \"#utility.yul\":10131:10149   */\n      add\n        /* \"#utility.yul\":10123:10149   */\n      swap1\n      pop\n        /* \"#utility.yul\":10195:10204   */\n      dup2\n        /* \"#utility.yul\":10189:10193   */\n      dup2\n        /* \"#utility.yul\":10185:10205   */\n      sub\n        /* \"#utility.yul\":10181:10182   */\n      0x00\n        /* \"#utility.yul\":10170:10179   */\n      dup4\n        /* \"#utility.yul\":10166:10183   */\n      add\n        /* \"#utility.yul\":10159:10206   */\n      mstore\n        /* \"#utility.yul\":10223:10354   */\n      tag_336\n        /* \"#utility.yul\":10349:10353   */\n      dup2\n        /* \"#utility.yul\":10223:10354   */\n      tag_224\n      jump\t// in\n    tag_336:\n        /* \"#utility.yul\":10215:10354   */\n      swap1\n      pop\n        /* \"#utility.yul\":9942:10361   */\n      swap2\n      swap1\n      pop\n      jump\t// out\n        /* \"#utility.yul\":10367:10539   */\n    tag_225:\n        /* \"#utility.yul\":10507:10531   */\n      0x496e73756666696369656e74206c697175696469747900000000000000000000\n        /* \"#utility.yul\":10503:10504   */\n      0x00\n        /* \"#utility.yul\":10495:10501   */\n      dup3\n        /* \"#utility.yul\":10491:10505   */\n      add\n        /* \"#utility.yul\":10484:10532   */\n      mstore\n        /* \"#utility.yul\":10367:10539   */\n      pop\n      jump\t// out\n        /* \"#utility.yul\":10545:10911   */\n    tag_226:\n        /* \"#utility.yul\":10687:10690   */\n      0x00\n        /* \"#utility.yul\":10708:10775   */\n      tag_339\n        /* \"#utility.yul\":10772:10774   */\n      0x16\n        /* \"#utility.yul\":10767:10770   */\n      dup4\n        /* \"#utility.yul\":10708:10775   */\n      tag_212\n      jump\t// in\n    tag_339:\n        /* \"#utility.yul\":10701:10775   */\n      swap2\n      pop\n        /* \"#utility.yul\":10784:10877   */\n      tag_340\n        /* \"#utility.yul\":10873:10876   */\n      dup3\n        /* \"#utility.yul\":10784:10877   */\n      tag_225\n      jump\t// in\n    tag_340:\n        /* \"#utility.yul\":10902:10904   */\n      0x20\n        /* \"#utility.yul\":10897:10900   */\n      dup3\n        /* \"#utility.yul\":10893:10905   */\n      add\n        /* \"#utility.yul\":10886:10905   */\n      swap1\n      pop\n        /* \"#utility.yul\":10545:10911   */\n      swap2\n      swap1\n      pop\n      jump\t// out\n        /* \"#utility.yul\":10917:11336   */\n    tag_144:\n        /* \"#utility.yul\":11083:11087   */\n      0x00\n        /* \"#utility.yul\":11121:11123   */\n      0x20\n        /* \"#utility.yul\":11110:11119   */\n      dup3\n        /* \"#utility.yul\":11106:11124   */\n      add\n        /* \"#utility.yul\":11098:11124   */\n      swap1\n      pop\n        /* \"#utility.yul\":11170:11179   */\n      dup2\n        /* \"#utility.yul\":11164:11168   */\n      dup2\n        /* \"#utility.yul\":11160:11180   */\n      sub\n        /* \"#utility.yul\":11156:11157   */\n      0x00\n        /* \"#utility.yul\":11145:11154   */\n      dup4\n        /* \"#utility.yul\":11141:11158   */\n      add\n        /* \"#utility.yul\":11134:11181   */\n      mstore\n        /* \"#utility.yul\":11198:11329   */\n      tag_342\n        /* \"#utility.yul\":11324:11328   */\n      dup2\n        /* \"#utility.yul\":11198:11329   */\n      tag_226\n      jump\t// in\n    tag_342:\n        /* \"#utility.yul\":11190:11329   */\n      swap1\n      pop\n        /* \"#utility.yul\":10917:11336   */\n      swap2\n      swap1\n      pop\n      jump\t// out\n        /* \"#utility.yul\":11342:11533   */\n    tag_192:\n        /* \"#utility.yul\":11382:11385   */\n      0x00\n        /* \"#utility.yul\":11401:11421   */\n      tag_344\n        /* \"#utility.yul\":11419:11420   */\n      dup3\n        /* \"#utility.yul\":11401:11421   */\n      tag_207\n      jump\t// in\n    tag_344:\n        /* \"#utility.yul\":11396:11421   */\n      swap2\n      pop\n        /* \"#utility.yul\":11435:11455   */\n      tag_345\n        /* \"#utility.yul\":11453:11454   */\n      dup4\n        /* \"#utility.yul\":11435:11455   */\n      tag_207\n      jump\t// in\n    tag_345:\n        /* \"#utility.yul\":11430:11455   */\n      swap3\n      pop\n        /* \"#utility.yul\":11478:11479   */\n      dup3\n        /* \"#utility.yul\":11475:11476   */\n      dup3\n        /* \"#utility.yul\":11471:11480   */\n      add\n        /* \"#utility.yul\":11464:11480   */\n      swap1\n      pop\n        /* \"#utility.yul\":11499:11502   */\n      dup1\n        /* \"#utility.yul\":11496:11497   */\n      dup3\n        /* \"#utility.yul\":11493:11503   */\n      gt\n        /* \"#utility.yul\":11490:11526   */\n      iszero\n      tag_346\n      jumpi\n        /* \"#utility.yul\":11506:11524   */\n      tag_347\n      tag_216\n      jump\t// in\n    tag_347:\n        /* \"#utility.yul\":11490:11526   */\n    tag_346:\n        /* \"#utility.yul\":11342:11533   */\n      swap3\n      swap2\n      pop\n      pop\n      jump\t// out\n\n    auxdata: 0xa264697066735822122019e59fa550b595b5ca2d83dccf87fb8fc5e13847551e869ff13c8d1d4bf64f8d64736f6c634300081a0033\n}\n",
				"bytecode": {
					"linkReferences": {},
					"object": "608060405234801561000f575f80fd5b50604051611bdb380380611bdb83398181016040528101906100319190610258565b335f73ffffffffffffffffffffffffffffffffffffffff168173ffffffffffffffffffffffffffffffffffffffff16036100a2575f6040517f1e4fbdf700000000000000000000000000000000000000000000000000000000815260040161009991906102a5565b60405180910390fd5b6100b18161013960201b60201c565b508160015f6101000a81548173ffffffffffffffffffffffffffffffffffffffff021916908373ffffffffffffffffffffffffffffffffffffffff1602179055508060025f6101000a81548173ffffffffffffffffffffffffffffffffffffffff021916908373ffffffffffffffffffffffffffffffffffffffff16021790555050506102be565b5f805f9054906101000a900473ffffffffffffffffffffffffffffffffffffffff169050815f806101000a81548173ffffffffffffffffffffffffffffffffffffffff021916908373ffffffffffffffffffffffffffffffffffffffff1602179055508173ffffffffffffffffffffffffffffffffffffffff168173ffffffffffffffffffffffffffffffffffffffff167f8be0079c531659141344cd1fd0a4f28419497f9722a3daafe3b4186f6b6457e060405160405180910390a35050565b5f80fd5b5f73ffffffffffffffffffffffffffffffffffffffff82169050919050565b5f610227826101fe565b9050919050565b6102378161021d565b8114610241575f80fd5b50565b5f815190506102528161022e565b92915050565b5f806040838503121561026e5761026d6101fa565b5b5f61027b85828601610244565b925050602061028c85828601610244565b9150509250929050565b61029f8161021d565b82525050565b5f6020820190506102b85f830184610296565b92915050565b611910806102cb5f395ff3fe608060405234801561000f575f80fd5b506004361061009c575f3560e01c80638da5cb5b116100645780638da5cb5b146101325780639cd441da146101505780639d7de6b31461016c578063e4f1f70a14610188578063f2fde38b146101a45761009c565b80630fc63d10146100a057806341976e09146100be5780635f64b55b146100ee578063715018a61461010c5780638014a7aa14610116575b5f80fd5b6100a86101c0565b6040516100b5919061139b565b60405180910390f35b6100d860048036038101906100d391906113f3565b6101e5565b6040516100e59190611436565b60405180910390f35b6100f66105cb565b604051610103919061139b565b60405180910390f35b6101146105f0565b005b610130600480360381019061012b9190611479565b610603565b005b61013a610913565b60405161014791906114b3565b60405180910390f35b61016a600480360381019061016591906114cc565b61093a565b005b610186600480360381019061018191906114cc565b610b0a565b005b6101a2600480360381019061019d9190611479565b610e08565b005b6101be60048036038101906101b991906113f3565b611118565b005b60015f9054906101000a900473ffffffffffffffffffffffffffffffffffffffff1681565b5f60015f9054906101000a900473ffffffffffffffffffffffffffffffffffffffff1673ffffffffffffffffffffffffffffffffffffffff168273ffffffffffffffffffffffffffffffffffffffff16148061028d575060025f9054906101000a900473ffffffffffffffffffffffffffffffffffffffff1673ffffffffffffffffffffffffffffffffffffffff168273ffffffffffffffffffffffffffffffffffffffff16145b6102cc576040517f08c379a00000000000000000000000000000000000000000000000000000000081526004016102c390611564565b60405180910390fd5b60015f9054906101000a900473ffffffffffffffffffffffffffffffffffffffff1673ffffffffffffffffffffffffffffffffffffffff168273ffffffffffffffffffffffffffffffffffffffff16146104745760025f9054906101000a900473ffffffffffffffffffffffffffffffffffffffff1673ffffffffffffffffffffffffffffffffffffffff166370a08231306040518263ffffffff1660e01b815260040161037a91906114b3565b602060405180830381865afa158015610395573d5f803e3d5ffd5b505050506040513d601f19601f820116820180604052508101906103b99190611596565b670de0b6b3a764000060015f9054906101000a900473ffffffffffffffffffffffffffffffffffffffff1673ffffffffffffffffffffffffffffffffffffffff166370a08231306040518263ffffffff1660e01b815260040161041c91906114b3565b602060405180830381865afa158015610437573d5f803e3d5ffd5b505050506040513d601f19601f8201168201806040525081019061045b9190611596565b61046591906115ee565b61046f919061165c565b6105c4565b60015f9054906101000a900473ffffffffffffffffffffffffffffffffffffffff1673ffffffffffffffffffffffffffffffffffffffff166370a08231306040518263ffffffff1660e01b81526004016104ce91906114b3565b602060405180830381865afa1580156104e9573d5f803e3d5ffd5b505050506040513d601f19601f8201168201806040525081019061050d9190611596565b670de0b6b3a764000060025f9054906101000a900473ffffffffffffffffffffffffffffffffffffffff1673ffffffffffffffffffffffffffffffffffffffff166370a08231306040518263ffffffff1660e01b815260040161057091906114b3565b602060405180830381865afa15801561058b573d5f803e3d5ffd5b505050506040513d601f19601f820116820180604052508101906105af9190611596565b6105b991906115ee565b6105c3919061165c565b5b9050919050565b60025f9054906101000a900473ffffffffffffffffffffffffffffffffffffffff1681565b6105f861119c565b6106015f611223565b565b5f8111610645576040517f08c379a000000000000000000000000000000000000000000000000000000000815260040161063c906116d6565b60405180910390fd5b5f6107818260025f9054906101000a900473ffffffffffffffffffffffffffffffffffffffff1673ffffffffffffffffffffffffffffffffffffffff166370a08231306040518263ffffffff1660e01b81526004016106a491906114b3565b602060405180830381865afa1580156106bf573d5f803e3d5ffd5b505050506040513d601f19601f820116820180604052508101906106e39190611596565b60015f9054906101000a900473ffffffffffffffffffffffffffffffffffffffff1673ffffffffffffffffffffffffffffffffffffffff166370a08231306040518263ffffffff1660e01b815260040161073d91906114b3565b602060405180830381865afa158015610758573d5f803e3d5ffd5b505050506040513d601f19601f8201168201806040525081019061077c9190611596565b6112e4565b905060025f9054906101000a900473ffffffffffffffffffffffffffffffffffffffff1673ffffffffffffffffffffffffffffffffffffffff166323b872dd3330856040518463ffffffff1660e01b81526004016107e1939291906116f4565b6020604051808303815f875af11580156107fd573d5f803e3d5ffd5b505050506040513d601f19601f82011682018060405250810190610821919061175e565b5060015f9054906101000a900473ffffffffffffffffffffffffffffffffffffffff1673ffffffffffffffffffffffffffffffffffffffff1663a9059cbb33836040518363ffffffff1660e01b815260040161087e929190611789565b6020604051808303815f875af115801561089a573d5f803e3d5ffd5b505050506040513d601f19601f820116820180604052508101906108be919061175e565b503373ffffffffffffffffffffffffffffffffffffffff167f4d2686a74a4dd58b9157e4d394f3174eb9597147f1c59ddd5c95e86c8fc58fb383836040516109079291906117b0565b60405180910390a25050565b5f805f9054906101000a900473ffffffffffffffffffffffffffffffffffffffff16905090565b61094261119c565b5f8211801561095057505f81115b61098f576040517f08c379a000000000000000000000000000000000000000000000000000000000815260040161098690611821565b60405180910390fd5b60015f9054906101000a900473ffffffffffffffffffffffffffffffffffffffff1673ffffffffffffffffffffffffffffffffffffffff166323b872dd3330856040518463ffffffff1660e01b81526004016109ed939291906116f4565b6020604051808303815f875af1158015610a09573d5f803e3d5ffd5b505050506040513d601f19601f82011682018060405250810190610a2d919061175e565b5060025f9054906101000a900473ffffffffffffffffffffffffffffffffffffffff1673ffffffffffffffffffffffffffffffffffffffff166323b872dd3330846040518463ffffffff1660e01b8152600401610a8c939291906116f4565b6020604051808303815f875af1158015610aa8573d5f803e3d5ffd5b505050506040513d601f19601f82011682018060405250810190610acc919061175e565b507f38f8a0c92f4c5b0b6877f878cb4c0c8d348a47b76d716c8e78f425043df9515b8282604051610afe9291906117b0565b60405180910390a15050565b610b1261119c565b60015f9054906101000a900473ffffffffffffffffffffffffffffffffffffffff1673ffffffffffffffffffffffffffffffffffffffff166370a08231306040518263ffffffff1660e01b8152600401610b6c91906114b3565b602060405180830381865afa158015610b87573d5f803e3d5ffd5b505050506040513d601f19601f82011682018060405250810190610bab9190611596565b8211158015610c52575060025f9054906101000a900473ffffffffffffffffffffffffffffffffffffffff1673ffffffffffffffffffffffffffffffffffffffff166370a08231306040518263ffffffff1660e01b8152600401610c0f91906114b3565b602060405180830381865afa158015610c2a573d5f803e3d5ffd5b505050506040513d601f19601f82011682018060405250810190610c4e9190611596565b8111155b610c91576040517f08c379a0000000000000000000000000000000000000000000000000000000008152600401610c8890611889565b60405180910390fd5b60015f9054906101000a900473ffffffffffffffffffffffffffffffffffffffff1673ffffffffffffffffffffffffffffffffffffffff1663a9059cbb33846040518363ffffffff1660e01b8152600401610ced929190611789565b6020604051808303815f875af1158015610d09573d5f803e3d5ffd5b505050506040513d601f19601f82011682018060405250810190610d2d919061175e565b5060025f9054906101000a900473ffffffffffffffffffffffffffffffffffffffff1673ffffffffffffffffffffffffffffffffffffffff1663a9059cbb33836040518363ffffffff1660e01b8152600401610d8a929190611789565b6020604051808303815f875af1158015610da6573d5f803e3d5ffd5b505050506040513d601f19601f82011682018060405250810190610dca919061175e565b507f6f0f96292ae0038c04f9b6bab30f185d9ca02c471d0983f563f2a4f674aef1378282604051610dfc9291906117b0565b60405180910390a15050565b5f8111610e4a576040517f08c379a0000000000000000000000000000000000000000000000000000000008152600401610e41906116d6565b60405180910390fd5b5f610f868260015f9054906101000a900473ffffffffffffffffffffffffffffffffffffffff1673ffffffffffffffffffffffffffffffffffffffff166370a08231306040518263ffffffff1660e01b8152600401610ea991906114b3565b602060405180830381865afa158015610ec4573d5f803e3d5ffd5b505050506040513d601f19601f82011682018060405250810190610ee89190611596565b60025f9054906101000a900473ffffffffffffffffffffffffffffffffffffffff1673ffffffffffffffffffffffffffffffffffffffff166370a08231306040518263ffffffff1660e01b8152600401610f4291906114b3565b602060405180830381865afa158015610f5d573d5f803e3d5ffd5b505050506040513d601f19601f82011682018060405250810190610f819190611596565b6112e4565b905060015f9054906101000a900473ffffffffffffffffffffffffffffffffffffffff1673ffffffffffffffffffffffffffffffffffffffff166323b872dd3330856040518463ffffffff1660e01b8152600401610fe6939291906116f4565b6020604051808303815f875af1158015611002573d5f803e3d5ffd5b505050506040513d601f19601f82011682018060405250810190611026919061175e565b5060025f9054906101000a900473ffffffffffffffffffffffffffffffffffffffff1673ffffffffffffffffffffffffffffffffffffffff1663a9059cbb33836040518363ffffffff1660e01b8152600401611083929190611789565b6020604051808303815f875af115801561109f573d5f803e3d5ffd5b505050506040513d601f19601f820116820180604052508101906110c3919061175e565b503373ffffffffffffffffffffffffffffffffffffffff167f34003120a03799ea4ea8934ecd27dc027c3d298864b97944721756be3c721ab6838360405161110c9291906117b0565b60405180910390a25050565b61112061119c565b5f73ffffffffffffffffffffffffffffffffffffffff168173ffffffffffffffffffffffffffffffffffffffff1603611190575f6040517f1e4fbdf700000000000000000000000000000000000000000000000000000000815260040161118791906114b3565b60405180910390fd5b61119981611223565b50565b6111a461131a565b73ffffffffffffffffffffffffffffffffffffffff166111c2610913565b73ffffffffffffffffffffffffffffffffffffffff1614611221576111e561131a565b6040517f118cdaa700000000000000000000000000000000000000000000000000000000815260040161121891906114b3565b60405180910390fd5b565b5f805f9054906101000a900473ffffffffffffffffffffffffffffffffffffffff169050815f806101000a81548173ffffffffffffffffffffffffffffffffffffffff021916908373ffffffffffffffffffffffffffffffffffffffff1602179055508173ffffffffffffffffffffffffffffffffffffffff168173ffffffffffffffffffffffffffffffffffffffff167f8be0079c531659141344cd1fd0a4f28419497f9722a3daafe3b4186f6b6457e060405160405180910390a35050565b5f8082856112f291906115ee565b90505f858561130191906118a7565b9050808261130f919061165c565b925050509392505050565b5f33905090565b5f73ffffffffffffffffffffffffffffffffffffffff82169050919050565b5f819050919050565b5f61136361135e61135984611321565b611340565b611321565b9050919050565b5f61137482611349565b9050919050565b5f6113858261136a565b9050919050565b6113958161137b565b82525050565b5f6020820190506113ae5f83018461138c565b92915050565b5f80fd5b5f6113c282611321565b9050919050565b6113d2816113b8565b81146113dc575f80fd5b50565b5f813590506113ed816113c9565b92915050565b5f60208284031215611408576114076113b4565b5b5f611415848285016113df565b91505092915050565b5f819050919050565b6114308161141e565b82525050565b5f6020820190506114495f830184611427565b92915050565b6114588161141e565b8114611462575f80fd5b50565b5f813590506114738161144f565b92915050565b5f6020828403121561148e5761148d6113b4565b5b5f61149b84828501611465565b91505092915050565b6114ad816113b8565b82525050565b5f6020820190506114c65f8301846114a4565b92915050565b5f80604083850312156114e2576114e16113b4565b5b5f6114ef85828601611465565b925050602061150085828601611465565b9150509250929050565b5f82825260208201905092915050565b7f696e76616c696420746f6b656e000000000000000000000000000000000000005f82015250565b5f61154e600d8361150a565b91506115598261151a565b602082019050919050565b5f6020820190508181035f83015261157b81611542565b9050919050565b5f815190506115908161144f565b92915050565b5f602082840312156115ab576115aa6113b4565b5b5f6115b884828501611582565b91505092915050565b7f4e487b71000000000000000000000000000000000000000000000000000000005f52601160045260245ffd5b5f6115f88261141e565b91506116038361141e565b92508282026116118161141e565b91508282048414831517611628576116276115c1565b5b5092915050565b7f4e487b71000000000000000000000000000000000000000000000000000000005f52601260045260245ffd5b5f6116668261141e565b91506116718361141e565b9250826116815761168061162f565b5b828204905092915050565b7f496e76616c696420696e70757420616d6f756e740000000000000000000000005f82015250565b5f6116c060148361150a565b91506116cb8261168c565b602082019050919050565b5f6020820190508181035f8301526116ed816116b4565b9050919050565b5f6060820190506117075f8301866114a4565b61171460208301856114a4565b6117216040830184611427565b949350505050565b5f8115159050919050565b61173d81611729565b8114611747575f80fd5b50565b5f8151905061175881611734565b92915050565b5f60208284031215611773576117726113b4565b5b5f6117808482850161174a565b91505092915050565b5f60408201905061179c5f8301856114a4565b6117a96020830184611427565b9392505050565b5f6040820190506117c35f830185611427565b6117d06020830184611427565b9392505050565b7f496e76616c696420616d6f756e747300000000000000000000000000000000005f82015250565b5f61180b600f8361150a565b9150611816826117d7565b602082019050919050565b5f6020820190508181035f830152611838816117ff565b9050919050565b7f496e73756666696369656e74206c6971756964697479000000000000000000005f82015250565b5f61187360168361150a565b915061187e8261183f565b602082019050919050565b5f6020820190508181035f8301526118a081611867565b9050919050565b5f6118b18261141e565b91506118bc8361141e565b92508282019050808211156118d4576118d36115c1565b5b9291505056fea264697066735822122019e59fa550b595b5ca2d83dccf87fb8fc5e13847551e869ff13c8d1d4bf64f8d64736f6c634300081a0033",
					"opcodes": "PUSH1 0x80 PUSH1 0x40 MSTORE CALLVALUE DUP1 ISZERO PUSH2 0xF JUMPI PUSH0 DUP1 REVERT JUMPDEST POP PUSH1 0x40 MLOAD PUSH2 0x1BDB CODESIZE SUB DUP1 PUSH2 0x1BDB DUP4 CODECOPY DUP2 DUP2 ADD PUSH1 0x40 MSTORE DUP2 ADD SWAP1 PUSH2 0x31 SWAP2 SWAP1 PUSH2 0x258 JUMP JUMPDEST CALLER PUSH0 PUSH20 0xFFFFFFFFFFFFFFFFFFFFFFFFFFFFFFFFFFFFFFFF AND DUP2 PUSH20 0xFFFFFFFFFFFFFFFFFFFFFFFFFFFFFFFFFFFFFFFF AND SUB PUSH2 0xA2 JUMPI PUSH0 PUSH1 0x40 MLOAD PUSH32 0x1E4FBDF700000000000000000000000000000000000000000000000000000000 DUP2 MSTORE PUSH1 0x4 ADD PUSH2 0x99 SWAP2 SWAP1 PUSH2 0x2A5 JUMP JUMPDEST PUSH1 0x40 MLOAD DUP1 SWAP2 SUB SWAP1 REVERT JUMPDEST PUSH2 0xB1 DUP2 PUSH2 0x139 PUSH1 0x20 SHL PUSH1 0x20 SHR JUMP JUMPDEST POP DUP2 PUSH1 0x1 PUSH0 PUSH2 0x100 EXP DUP2 SLOAD DUP2 PUSH20 0xFFFFFFFFFFFFFFFFFFFFFFFFFFFFFFFFFFFFFFFF MUL NOT AND SWAP1 DUP4 PUSH20 0xFFFFFFFFFFFFFFFFFFFFFFFFFFFFFFFFFFFFFFFF AND MUL OR SWAP1 SSTORE POP DUP1 PUSH1 0x2 PUSH0 PUSH2 0x100 EXP DUP2 SLOAD DUP2 PUSH20 0xFFFFFFFFFFFFFFFFFFFFFFFFFFFFFFFFFFFFFFFF MUL NOT AND SWAP1 DUP4 PUSH20 0xFFFFFFFFFFFFFFFFFFFFFFFFFFFFFFFFFFFFFFFF AND MUL OR SWAP1 SSTORE POP POP POP PUSH2 0x2BE JUMP JUMPDEST PUSH0 DUP1 PUSH0 SWAP1 SLOAD SWAP1 PUSH2 0x100 EXP SWAP1 DIV PUSH20 0xFFFFFFFFFFFFFFFFFFFFFFFFFFFFFFFFFFFFFFFF AND SWAP1 POP DUP2 PUSH0 DUP1 PUSH2 0x100 EXP DUP2 SLOAD DUP2 PUSH20 0xFFFFFFFFFFFFFFFFFFFFFFFFFFFFFFFFFFFFFFFF MUL NOT AND SWAP1 DUP4 PUSH20 0xFFFFFFFFFFFFFFFFFFFFFFFFFFFFFFFFFFFFFFFF AND MUL OR SWAP1 SSTORE POP DUP2 PUSH20 0xFFFFFFFFFFFFFFFFFFFFFFFFFFFFFFFFFFFFFFFF AND DUP2 PUSH20 0xFFFFFFFFFFFFFFFFFFFFFFFFFFFFFFFFFFFFFFFF AND PUSH32 0x8BE0079C531659141344CD1FD0A4F28419497F9722A3DAAFE3B4186F6B6457E0 PUSH1 0x40 MLOAD PUSH1 0x40 MLOAD DUP1 SWAP2 SUB SWAP1 LOG3 POP POP JUMP JUMPDEST PUSH0 DUP1 REVERT JUMPDEST PUSH0 PUSH20 0xFFFFFFFFFFFFFFFFFFFFFFFFFFFFFFFFFFFFFFFF DUP3 AND SWAP1 POP SWAP2 SWAP1 POP JUMP JUMPDEST PUSH0 PUSH2 0x227 DUP3 PUSH2 0x1FE JUMP JUMPDEST SWAP1 POP SWAP2 SWAP1 POP JUMP JUMPDEST PUSH2 0x237 DUP2 PUSH2 0x21D JUMP JUMPDEST DUP2 EQ PUSH2 0x241 JUMPI PUSH0 DUP1 REVERT JUMPDEST POP JUMP JUMPDEST PUSH0 DUP2 MLOAD SWAP1 POP PUSH2 0x252 DUP2 PUSH2 0x22E JUMP JUMPDEST SWAP3 SWAP2 POP POP JUMP JUMPDEST PUSH0 DUP1 PUSH1 0x40 DUP4 DUP6 SUB SLT ISZERO PUSH2 0x26E JUMPI PUSH2 0x26D PUSH2 0x1FA JUMP JUMPDEST JUMPDEST PUSH0 PUSH2 0x27B DUP6 DUP3 DUP7 ADD PUSH2 0x244 JUMP JUMPDEST SWAP3 POP POP PUSH1 0x20 PUSH2 0x28C DUP6 DUP3 DUP7 ADD PUSH2 0x244 JUMP JUMPDEST SWAP2 POP POP SWAP3 POP SWAP3 SWAP1 POP JUMP JUMPDEST PUSH2 0x29F DUP2 PUSH2 0x21D JUMP JUMPDEST DUP3 MSTORE POP POP JUMP JUMPDEST PUSH0 PUSH1 0x20 DUP3 ADD SWAP1 POP PUSH2 0x2B8 PUSH0 DUP4 ADD DUP5 PUSH2 0x296 JUMP JUMPDEST SWAP3 SWAP2 POP POP JUMP JUMPDEST PUSH2 0x1910 DUP1 PUSH2 0x2CB PUSH0 CODECOPY PUSH0 RETURN INVALID PUSH1 0x80 PUSH1 0x40 MSTORE CALLVALUE DUP1 ISZERO PUSH2 0xF JUMPI PUSH0 DUP1 REVERT JUMPDEST POP PUSH1 0x4 CALLDATASIZE LT PUSH2 0x9C JUMPI PUSH0 CALLDATALOAD PUSH1 0xE0 SHR DUP1 PUSH4 0x8DA5CB5B GT PUSH2 0x64 JUMPI DUP1 PUSH4 0x8DA5CB5B EQ PUSH2 0x132 JUMPI DUP1 PUSH4 0x9CD441DA EQ PUSH2 0x150 JUMPI DUP1 PUSH4 0x9D7DE6B3 EQ PUSH2 0x16C JUMPI DUP1 PUSH4 0xE4F1F70A EQ PUSH2 0x188 JUMPI DUP1 PUSH4 0xF2FDE38B EQ PUSH2 0x1A4 JUMPI PUSH2 0x9C JUMP JUMPDEST DUP1 PUSH4 0xFC63D10 EQ PUSH2 0xA0 JUMPI DUP1 PUSH4 0x41976E09 EQ PUSH2 0xBE JUMPI DUP1 PUSH4 0x5F64B55B EQ PUSH2 0xEE JUMPI DUP1 PUSH4 0x715018A6 EQ PUSH2 0x10C JUMPI DUP1 PUSH4 0x8014A7AA EQ PUSH2 0x116 JUMPI JUMPDEST PUSH0 DUP1 REVERT JUMPDEST PUSH2 0xA8 PUSH2 0x1C0 JUMP JUMPDEST PUSH1 0x40 MLOAD PUSH2 0xB5 SWAP2 SWAP1 PUSH2 0x139B JUMP JUMPDEST PUSH1 0x40 MLOAD DUP1 SWAP2 SUB SWAP1 RETURN JUMPDEST PUSH2 0xD8 PUSH1 0x4 DUP1 CALLDATASIZE SUB DUP2 ADD SWAP1 PUSH2 0xD3 SWAP2 SWAP1 PUSH2 0x13F3 JUMP JUMPDEST PUSH2 0x1E5 JUMP JUMPDEST PUSH1 0x40 MLOAD PUSH2 0xE5 SWAP2 SWAP1 PUSH2 0x1436 JUMP JUMPDEST PUSH1 0x40 MLOAD DUP1 SWAP2 SUB SWAP1 RETURN JUMPDEST PUSH2 0xF6 PUSH2 0x5CB JUMP JUMPDEST PUSH1 0x40 MLOAD PUSH2 0x103 SWAP2 SWAP1 PUSH2 0x139B JUMP JUMPDEST PUSH1 0x40 MLOAD DUP1 SWAP2 SUB SWAP1 RETURN JUMPDEST PUSH2 0x114 PUSH2 0x5F0 JUMP JUMPDEST STOP JUMPDEST PUSH2 0x130 PUSH1 0x4 DUP1 CALLDATASIZE SUB DUP2 ADD SWAP1 PUSH2 0x12B SWAP2 SWAP1 PUSH2 0x1479 JUMP JUMPDEST PUSH2 0x603 JUMP JUMPDEST STOP JUMPDEST PUSH2 0x13A PUSH2 0x913 JUMP JUMPDEST PUSH1 0x40 MLOAD PUSH2 0x147 SWAP2 SWAP1 PUSH2 0x14B3 JUMP JUMPDEST PUSH1 0x40 MLOAD DUP1 SWAP2 SUB SWAP1 RETURN JUMPDEST PUSH2 0x16A PUSH1 0x4 DUP1 CALLDATASIZE SUB DUP2 ADD SWAP1 PUSH2 0x165 SWAP2 SWAP1 PUSH2 0x14CC JUMP JUMPDEST PUSH2 0x93A JUMP JUMPDEST STOP JUMPDEST PUSH2 0x186 PUSH1 0x4 DUP1 CALLDATASIZE SUB DUP2 ADD SWAP1 PUSH2 0x181 SWAP2 SWAP1 PUSH2 0x14CC JUMP JUMPDEST PUSH2 0xB0A JUMP JUMPDEST STOP JUMPDEST PUSH2 0x1A2 PUSH1 0x4 DUP1 CALLDATASIZE SUB DUP2 ADD SWAP1 PUSH2 0x19D SWAP2 SWAP1 PUSH2 0x1479 JUMP JUMPDEST PUSH2 0xE08 JUMP JUMPDEST STOP JUMPDEST PUSH2 0x1BE PUSH1 0x4 DUP1 CALLDATASIZE SUB DUP2 ADD SWAP1 PUSH2 0x1B9 SWAP2 SWAP1 PUSH2 0x13F3 JUMP JUMPDEST PUSH2 0x1118 JUMP JUMPDEST STOP JUMPDEST PUSH1 0x1 PUSH0 SWAP1 SLOAD SWAP1 PUSH2 0x100 EXP SWAP1 DIV PUSH20 0xFFFFFFFFFFFFFFFFFFFFFFFFFFFFFFFFFFFFFFFF AND DUP2 JUMP JUMPDEST PUSH0 PUSH1 0x1 PUSH0 SWAP1 SLOAD SWAP1 PUSH2 0x100 EXP SWAP1 DIV PUSH20 0xFFFFFFFFFFFFFFFFFFFFFFFFFFFFFFFFFFFFFFFF AND PUSH20 0xFFFFFFFFFFFFFFFFFFFFFFFFFFFFFFFFFFFFFFFF AND DUP3 PUSH20 0xFFFFFFFFFFFFFFFFFFFFFFFFFFFFFFFFFFFFFFFF AND EQ DUP1 PUSH2 0x28D JUMPI POP PUSH1 0x2 PUSH0 SWAP1 SLOAD SWAP1 PUSH2 0x100 EXP SWAP1 DIV PUSH20 0xFFFFFFFFFFFFFFFFFFFFFFFFFFFFFFFFFFFFFFFF AND PUSH20 0xFFFFFFFFFFFFFFFFFFFFFFFFFFFFFFFFFFFFFFFF AND DUP3 PUSH20 0xFFFFFFFFFFFFFFFFFFFFFFFFFFFFFFFFFFFFFFFF AND EQ JUMPDEST PUSH2 0x2CC JUMPI PUSH1 0x40 MLOAD PUSH32 0x8C379A000000000000000000000000000000000000000000000000000000000 DUP2 MSTORE PUSH1 0x4 ADD PUSH2 0x2C3 SWAP1 PUSH2 0x1564 JUMP JUMPDEST PUSH1 0x40 MLOAD DUP1 SWAP2 SUB SWAP1 REVERT JUMPDEST PUSH1 0x1 PUSH0 SWAP1 SLOAD SWAP1 PUSH2 0x100 EXP SWAP1 DIV PUSH20 0xFFFFFFFFFFFFFFFFFFFFFFFFFFFFFFFFFFFFFFFF AND PUSH20 0xFFFFFFFFFFFFFFFFFFFFFFFFFFFFFFFFFFFFFFFF AND DUP3 PUSH20 0xFFFFFFFFFFFFFFFFFFFFFFFFFFFFFFFFFFFFFFFF AND EQ PUSH2 0x474 JUMPI PUSH1 0x2 PUSH0 SWAP1 SLOAD SWAP1 PUSH2 0x100 EXP SWAP1 DIV PUSH20 0xFFFFFFFFFFFFFFFFFFFFFFFFFFFFFFFFFFFFFFFF AND PUSH20 0xFFFFFFFFFFFFFFFFFFFFFFFFFFFFFFFFFFFFFFFF AND PUSH4 0x70A08231 ADDRESS PUSH1 0x40 MLOAD DUP3 PUSH4 0xFFFFFFFF AND PUSH1 0xE0 SHL DUP2 MSTORE PUSH1 0x4 ADD PUSH2 0x37A SWAP2 SWAP1 PUSH2 0x14B3 JUMP JUMPDEST PUSH1 0x20 PUSH1 0x40 MLOAD DUP1 DUP4 SUB DUP2 DUP7 GAS STATICCALL ISZERO DUP1 ISZERO PUSH2 0x395 JUMPI RETURNDATASIZE PUSH0 DUP1 RETURNDATACOPY RETURNDATASIZE PUSH0 REVERT JUMPDEST POP POP POP POP PUSH1 0x40 MLOAD RETURNDATASIZE PUSH1 0x1F NOT PUSH1 0x1F DUP3 ADD AND DUP3 ADD DUP1 PUSH1 0x40 MSTORE POP DUP2 ADD SWAP1 PUSH2 0x3B9 SWAP2 SWAP1 PUSH2 0x1596 JUMP JUMPDEST PUSH8 0xDE0B6B3A7640000 PUSH1 0x1 PUSH0 SWAP1 SLOAD SWAP1 PUSH2 0x100 EXP SWAP1 DIV PUSH20 0xFFFFFFFFFFFFFFFFFFFFFFFFFFFFFFFFFFFFFFFF AND PUSH20 0xFFFFFFFFFFFFFFFFFFFFFFFFFFFFFFFFFFFFFFFF AND PUSH4 0x70A08231 ADDRESS PUSH1 0x40 MLOAD DUP3 PUSH4 0xFFFFFFFF AND PUSH1 0xE0 SHL DUP2 MSTORE PUSH1 0x4 ADD PUSH2 0x41C SWAP2 SWAP1 PUSH2 0x14B3 JUMP JUMPDEST PUSH1 0x20 PUSH1 0x40 MLOAD DUP1 DUP4 SUB DUP2 DUP7 GAS STATICCALL ISZERO DUP1 ISZERO PUSH2 0x437 JUMPI RETURNDATASIZE PUSH0 DUP1 RETURNDATACOPY RETURNDATASIZE PUSH0 REVERT JUMPDEST POP POP POP POP PUSH1 0x40 MLOAD RETURNDATASIZE PUSH1 0x1F NOT PUSH1 0x1F DUP3 ADD AND DUP3 ADD DUP1 PUSH1 0x40 MSTORE POP DUP2 ADD SWAP1 PUSH2 0x45B SWAP2 SWAP1 PUSH2 0x1596 JUMP JUMPDEST PUSH2 0x465 SWAP2 SWAP1 PUSH2 0x15EE JUMP JUMPDEST PUSH2 0x46F SWAP2 SWAP1 PUSH2 0x165C JUMP JUMPDEST PUSH2 0x5C4 JUMP JUMPDEST PUSH1 0x1 PUSH0 SWAP1 SLOAD SWAP1 PUSH2 0x100 EXP SWAP1 DIV PUSH20 0xFFFFFFFFFFFFFFFFFFFFFFFFFFFFFFFFFFFFFFFF AND PUSH20 0xFFFFFFFFFFFFFFFFFFFFFFFFFFFFFFFFFFFFFFFF AND PUSH4 0x70A08231 ADDRESS PUSH1 0x40 MLOAD DUP3 PUSH4 0xFFFFFFFF AND PUSH1 0xE0 SHL DUP2 MSTORE PUSH1 0x4 ADD PUSH2 0x4CE SWAP2 SWAP1 PUSH2 0x14B3 JUMP JUMPDEST PUSH1 0x20 PUSH1 0x40 MLOAD DUP1 DUP4 SUB DUP2 DUP7 GAS STATICCALL ISZERO DUP1 ISZERO PUSH2 0x4E9 JUMPI RETURNDATASIZE PUSH0 DUP1 RETURNDATACOPY RETURNDATASIZE PUSH0 REVERT JUMPDEST POP POP POP POP PUSH1 0x40 MLOAD RETURNDATASIZE PUSH1 0x1F NOT PUSH1 0x1F DUP3 ADD AND DUP3 ADD DUP1 PUSH1 0x40 MSTORE POP DUP2 ADD SWAP1 PUSH2 0x50D SWAP2 SWAP1 PUSH2 0x1596 JUMP JUMPDEST PUSH8 0xDE0B6B3A7640000 PUSH1 0x2 PUSH0 SWAP1 SLOAD SWAP1 PUSH2 0x100 EXP SWAP1 DIV PUSH20 0xFFFFFFFFFFFFFFFFFFFFFFFFFFFFFFFFFFFFFFFF AND PUSH20 0xFFFFFFFFFFFFFFFFFFFFFFFFFFFFFFFFFFFFFFFF AND PUSH4 0x70A08231 ADDRESS PUSH1 0x40 MLOAD DUP3 PUSH4 0xFFFFFFFF AND PUSH1 0xE0 SHL DUP2 MSTORE PUSH1 0x4 ADD PUSH2 0x570 SWAP2 SWAP1 PUSH2 0x14B3 JUMP JUMPDEST PUSH1 0x20 PUSH1 0x40 MLOAD DUP1 DUP4 SUB DUP2 DUP7 GAS STATICCALL ISZERO DUP1 ISZERO PUSH2 0x58B JUMPI RETURNDATASIZE PUSH0 DUP1 RETURNDATACOPY RETURNDATASIZE PUSH0 REVERT JUMPDEST POP POP POP POP PUSH1 0x40 MLOAD RETURNDATASIZE PUSH1 0x1F NOT PUSH1 0x1F DUP3 ADD AND DUP3 ADD DUP1 PUSH1 0x40 MSTORE POP DUP2 ADD SWAP1 PUSH2 0x5AF SWAP2 SWAP1 PUSH2 0x1596 JUMP JUMPDEST PUSH2 0x5B9 SWAP2 SWAP1 PUSH2 0x15EE JUMP JUMPDEST PUSH2 0x5C3 SWAP2 SWAP1 PUSH2 0x165C JUMP JUMPDEST JUMPDEST SWAP1 POP SWAP2 SWAP1 POP JUMP JUMPDEST PUSH1 0x2 PUSH0 SWAP1 SLOAD SWAP1 PUSH2 0x100 EXP SWAP1 DIV PUSH20 0xFFFFFFFFFFFFFFFFFFFFFFFFFFFFFFFFFFFFFFFF AND DUP2 JUMP JUMPDEST PUSH2 0x5F8 PUSH2 0x119C JUMP JUMPDEST PUSH2 0x601 PUSH0 PUSH2 0x1223 JUMP JUMPDEST JUMP JUMPDEST PUSH0 DUP2 GT PUSH2 0x645 JUMPI PUSH1 0x40 MLOAD PUSH32 0x8C379A000000000000000000000000000000000000000000000000000000000 DUP2 MSTORE PUSH1 0x4 ADD PUSH2 0x63C SWAP1 PUSH2 0x16D6 JUMP JUMPDEST PUSH1 0x40 MLOAD DUP1 SWAP2 SUB SWAP1 REVERT JUMPDEST PUSH0 PUSH2 0x781 DUP3 PUSH1 0x2 PUSH0 SWAP1 SLOAD SWAP1 PUSH2 0x100 EXP SWAP1 DIV PUSH20 0xFFFFFFFFFFFFFFFFFFFFFFFFFFFFFFFFFFFFFFFF AND PUSH20 0xFFFFFFFFFFFFFFFFFFFFFFFFFFFFFFFFFFFFFFFF AND PUSH4 0x70A08231 ADDRESS PUSH1 0x40 MLOAD DUP3 PUSH4 0xFFFFFFFF AND PUSH1 0xE0 SHL DUP2 MSTORE PUSH1 0x4 ADD PUSH2 0x6A4 SWAP2 SWAP1 PUSH2 0x14B3 JUMP JUMPDEST PUSH1 0x20 PUSH1 0x40 MLOAD DUP1 DUP4 SUB DUP2 DUP7 GAS STATICCALL ISZERO DUP1 ISZERO PUSH2 0x6BF JUMPI RETURNDATASIZE PUSH0 DUP1 RETURNDATACOPY RETURNDATASIZE PUSH0 REVERT JUMPDEST POP POP POP POP PUSH1 0x40 MLOAD RETURNDATASIZE PUSH1 0x1F NOT PUSH1 0x1F DUP3 ADD AND DUP3 ADD DUP1 PUSH1 0x40 MSTORE POP DUP2 ADD SWAP1 PUSH2 0x6E3 SWAP2 SWAP1 PUSH2 0x1596 JUMP JUMPDEST PUSH1 0x1 PUSH0 SWAP1 SLOAD SWAP1 PUSH2 0x100 EXP SWAP1 DIV PUSH20 0xFFFFFFFFFFFFFFFFFFFFFFFFFFFFFFFFFFFFFFFF AND PUSH20 0xFFFFFFFFFFFFFFFFFFFFFFFFFFFFFFFFFFFFFFFF AND PUSH4 0x70A08231 ADDRESS PUSH1 0x40 MLOAD DUP3 PUSH4 0xFFFFFFFF AND PUSH1 0xE0 SHL DUP2 MSTORE PUSH1 0x4 ADD PUSH2 0x73D SWAP2 SWAP1 PUSH2 0x14B3 JUMP JUMPDEST PUSH1 0x20 PUSH1 0x40 MLOAD DUP1 DUP4 SUB DUP2 DUP7 GAS STATICCALL ISZERO DUP1 ISZERO PUSH2 0x758 JUMPI RETURNDATASIZE PUSH0 DUP1 RETURNDATACOPY RETURNDATASIZE PUSH0 REVERT JUMPDEST POP POP POP POP PUSH1 0x40 MLOAD RETURNDATASIZE PUSH1 0x1F NOT PUSH1 0x1F DUP3 ADD AND DUP3 ADD DUP1 PUSH1 0x40 MSTORE POP DUP2 ADD SWAP1 PUSH2 0x77C SWAP2 SWAP1 PUSH2 0x1596 JUMP JUMPDEST PUSH2 0x12E4 JUMP JUMPDEST SWAP1 POP PUSH1 0x2 PUSH0 SWAP1 SLOAD SWAP1 PUSH2 0x100 EXP SWAP1 DIV PUSH20 0xFFFFFFFFFFFFFFFFFFFFFFFFFFFFFFFFFFFFFFFF AND PUSH20 0xFFFFFFFFFFFFFFFFFFFFFFFFFFFFFFFFFFFFFFFF AND PUSH4 0x23B872DD CALLER ADDRESS DUP6 PUSH1 0x40 MLOAD DUP5 PUSH4 0xFFFFFFFF AND PUSH1 0xE0 SHL DUP2 MSTORE PUSH1 0x4 ADD PUSH2 0x7E1 SWAP4 SWAP3 SWAP2 SWAP1 PUSH2 0x16F4 JUMP JUMPDEST PUSH1 0x20 PUSH1 0x40 MLOAD DUP1 DUP4 SUB DUP2 PUSH0 DUP8 GAS CALL ISZERO DUP1 ISZERO PUSH2 0x7FD JUMPI RETURNDATASIZE PUSH0 DUP1 RETURNDATACOPY RETURNDATASIZE PUSH0 REVERT JUMPDEST POP POP POP POP PUSH1 0x40 MLOAD RETURNDATASIZE PUSH1 0x1F NOT PUSH1 0x1F DUP3 ADD AND DUP3 ADD DUP1 PUSH1 0x40 MSTORE POP DUP2 ADD SWAP1 PUSH2 0x821 SWAP2 SWAP1 PUSH2 0x175E JUMP JUMPDEST POP PUSH1 0x1 PUSH0 SWAP1 SLOAD SWAP1 PUSH2 0x100 EXP SWAP1 DIV PUSH20 0xFFFFFFFFFFFFFFFFFFFFFFFFFFFFFFFFFFFFFFFF AND PUSH20 0xFFFFFFFFFFFFFFFFFFFFFFFFFFFFFFFFFFFFFFFF AND PUSH4 0xA9059CBB CALLER DUP4 PUSH1 0x40 MLOAD DUP4 PUSH4 0xFFFFFFFF AND PUSH1 0xE0 SHL DUP2 MSTORE PUSH1 0x4 ADD PUSH2 0x87E SWAP3 SWAP2 SWAP1 PUSH2 0x1789 JUMP JUMPDEST PUSH1 0x20 PUSH1 0x40 MLOAD DUP1 DUP4 SUB DUP2 PUSH0 DUP8 GAS CALL ISZERO DUP1 ISZERO PUSH2 0x89A JUMPI RETURNDATASIZE PUSH0 DUP1 RETURNDATACOPY RETURNDATASIZE PUSH0 REVERT JUMPDEST POP POP POP POP PUSH1 0x40 MLOAD RETURNDATASIZE PUSH1 0x1F NOT PUSH1 0x1F DUP3 ADD AND DUP3 ADD DUP1 PUSH1 0x40 MSTORE POP DUP2 ADD SWAP1 PUSH2 0x8BE SWAP2 SWAP1 PUSH2 0x175E JUMP JUMPDEST POP CALLER PUSH20 0xFFFFFFFFFFFFFFFFFFFFFFFFFFFFFFFFFFFFFFFF AND PUSH32 0x4D2686A74A4DD58B9157E4D394F3174EB9597147F1C59DDD5C95E86C8FC58FB3 DUP4 DUP4 PUSH1 0x40 MLOAD PUSH2 0x907 SWAP3 SWAP2 SWAP1 PUSH2 0x17B0 JUMP JUMPDEST PUSH1 0x40 MLOAD DUP1 SWAP2 SUB SWAP1 LOG2 POP POP JUMP JUMPDEST PUSH0 DUP1 PUSH0 SWAP1 SLOAD SWAP1 PUSH2 0x100 EXP SWAP1 DIV PUSH20 0xFFFFFFFFFFFFFFFFFFFFFFFFFFFFFFFFFFFFFFFF AND SWAP1 POP SWAP1 JUMP JUMPDEST PUSH2 0x942 PUSH2 0x119C JUMP JUMPDEST PUSH0 DUP3 GT DUP1 ISZERO PUSH2 0x950 JUMPI POP PUSH0 DUP2 GT JUMPDEST PUSH2 0x98F JUMPI PUSH1 0x40 MLOAD PUSH32 0x8C379A000000000000000000000000000000000000000000000000000000000 DUP2 MSTORE PUSH1 0x4 ADD PUSH2 0x986 SWAP1 PUSH2 0x1821 JUMP JUMPDEST PUSH1 0x40 MLOAD DUP1 SWAP2 SUB SWAP1 REVERT JUMPDEST PUSH1 0x1 PUSH0 SWAP1 SLOAD SWAP1 PUSH2 0x100 EXP SWAP1 DIV PUSH20 0xFFFFFFFFFFFFFFFFFFFFFFFFFFFFFFFFFFFFFFFF AND PUSH20 0xFFFFFFFFFFFFFFFFFFFFFFFFFFFFFFFFFFFFFFFF AND PUSH4 0x23B872DD CALLER ADDRESS DUP6 PUSH1 0x40 MLOAD DUP5 PUSH4 0xFFFFFFFF AND PUSH1 0xE0 SHL DUP2 MSTORE PUSH1 0x4 ADD PUSH2 0x9ED SWAP4 SWAP3 SWAP2 SWAP1 PUSH2 0x16F4 JUMP JUMPDEST PUSH1 0x20 PUSH1 0x40 MLOAD DUP1 DUP4 SUB DUP2 PUSH0 DUP8 GAS CALL ISZERO DUP1 ISZERO PUSH2 0xA09 JUMPI RETURNDATASIZE PUSH0 DUP1 RETURNDATACOPY RETURNDATASIZE PUSH0 REVERT JUMPDEST POP POP POP POP PUSH1 0x40 MLOAD RETURNDATASIZE PUSH1 0x1F NOT PUSH1 0x1F DUP3 ADD AND DUP3 ADD DUP1 PUSH1 0x40 MSTORE POP DUP2 ADD SWAP1 PUSH2 0xA2D SWAP2 SWAP1 PUSH2 0x175E JUMP JUMPDEST POP PUSH1 0x2 PUSH0 SWAP1 SLOAD SWAP1 PUSH2 0x100 EXP SWAP1 DIV PUSH20 0xFFFFFFFFFFFFFFFFFFFFFFFFFFFFFFFFFFFFFFFF AND PUSH20 0xFFFFFFFFFFFFFFFFFFFFFFFFFFFFFFFFFFFFFFFF AND PUSH4 0x23B872DD CALLER ADDRESS DUP5 PUSH1 0x40 MLOAD DUP5 PUSH4 0xFFFFFFFF AND PUSH1 0xE0 SHL DUP2 MSTORE PUSH1 0x4 ADD PUSH2 0xA8C SWAP4 SWAP3 SWAP2 SWAP1 PUSH2 0x16F4 JUMP JUMPDEST PUSH1 0x20 PUSH1 0x40 MLOAD DUP1 DUP4 SUB DUP2 PUSH0 DUP8 GAS CALL ISZERO DUP1 ISZERO PUSH2 0xAA8 JUMPI RETURNDATASIZE PUSH0 DUP1 RETURNDATACOPY RETURNDATASIZE PUSH0 REVERT JUMPDEST POP POP POP POP PUSH1 0x40 MLOAD RETURNDATASIZE PUSH1 0x1F NOT PUSH1 0x1F DUP3 ADD AND DUP3 ADD DUP1 PUSH1 0x40 MSTORE POP DUP2 ADD SWAP1 PUSH2 0xACC SWAP2 SWAP1 PUSH2 0x175E JUMP JUMPDEST POP PUSH32 0x38F8A0C92F4C5B0B6877F878CB4C0C8D348A47B76D716C8E78F425043DF9515B DUP3 DUP3 PUSH1 0x40 MLOAD PUSH2 0xAFE SWAP3 SWAP2 SWAP1 PUSH2 0x17B0 JUMP JUMPDEST PUSH1 0x40 MLOAD DUP1 SWAP2 SUB SWAP1 LOG1 POP POP JUMP JUMPDEST PUSH2 0xB12 PUSH2 0x119C JUMP JUMPDEST PUSH1 0x1 PUSH0 SWAP1 SLOAD SWAP1 PUSH2 0x100 EXP SWAP1 DIV PUSH20 0xFFFFFFFFFFFFFFFFFFFFFFFFFFFFFFFFFFFFFFFF AND PUSH20 0xFFFFFFFFFFFFFFFFFFFFFFFFFFFFFFFFFFFFFFFF AND PUSH4 0x70A08231 ADDRESS PUSH1 0x40 MLOAD DUP3 PUSH4 0xFFFFFFFF AND PUSH1 0xE0 SHL DUP2 MSTORE PUSH1 0x4 ADD PUSH2 0xB6C SWAP2 SWAP1 PUSH2 0x14B3 JUMP JUMPDEST PUSH1 0x20 PUSH1 0x40 MLOAD DUP1 DUP4 SUB DUP2 DUP7 GAS STATICCALL ISZERO DUP1 ISZERO PUSH2 0xB87 JUMPI RETURNDATASIZE PUSH0 DUP1 RETURNDATACOPY RETURNDATASIZE PUSH0 REVERT JUMPDEST POP POP POP POP PUSH1 0x40 MLOAD RETURNDATASIZE PUSH1 0x1F NOT PUSH1 0x1F DUP3 ADD AND DUP3 ADD DUP1 PUSH1 0x40 MSTORE POP DUP2 ADD SWAP1 PUSH2 0xBAB SWAP2 SWAP1 PUSH2 0x1596 JUMP JUMPDEST DUP3 GT ISZERO DUP1 ISZERO PUSH2 0xC52 JUMPI POP PUSH1 0x2 PUSH0 SWAP1 SLOAD SWAP1 PUSH2 0x100 EXP SWAP1 DIV PUSH20 0xFFFFFFFFFFFFFFFFFFFFFFFFFFFFFFFFFFFFFFFF AND PUSH20 0xFFFFFFFFFFFFFFFFFFFFFFFFFFFFFFFFFFFFFFFF AND PUSH4 0x70A08231 ADDRESS PUSH1 0x40 MLOAD DUP3 PUSH4 0xFFFFFFFF AND PUSH1 0xE0 SHL DUP2 MSTORE PUSH1 0x4 ADD PUSH2 0xC0F SWAP2 SWAP1 PUSH2 0x14B3 JUMP JUMPDEST PUSH1 0x20 PUSH1 0x40 MLOAD DUP1 DUP4 SUB DUP2 DUP7 GAS STATICCALL ISZERO DUP1 ISZERO PUSH2 0xC2A JUMPI RETURNDATASIZE PUSH0 DUP1 RETURNDATACOPY RETURNDATASIZE PUSH0 REVERT JUMPDEST POP POP POP POP PUSH1 0x40 MLOAD RETURNDATASIZE PUSH1 0x1F NOT PUSH1 0x1F DUP3 ADD AND DUP3 ADD DUP1 PUSH1 0x40 MSTORE POP DUP2 ADD SWAP1 PUSH2 0xC4E SWAP2 SWAP1 PUSH2 0x1596 JUMP JUMPDEST DUP2 GT ISZERO JUMPDEST PUSH2 0xC91 JUMPI PUSH1 0x40 MLOAD PUSH32 0x8C379A000000000000000000000000000000000000000000000000000000000 DUP2 MSTORE PUSH1 0x4 ADD PUSH2 0xC88 SWAP1 PUSH2 0x1889 JUMP JUMPDEST PUSH1 0x40 MLOAD DUP1 SWAP2 SUB SWAP1 REVERT JUMPDEST PUSH1 0x1 PUSH0 SWAP1 SLOAD SWAP1 PUSH2 0x100 EXP SWAP1 DIV PUSH20 0xFFFFFFFFFFFFFFFFFFFFFFFFFFFFFFFFFFFFFFFF AND PUSH20 0xFFFFFFFFFFFFFFFFFFFFFFFFFFFFFFFFFFFFFFFF AND PUSH4 0xA9059CBB CALLER DUP5 PUSH1 0x40 MLOAD DUP4 PUSH4 0xFFFFFFFF AND PUSH1 0xE0 SHL DUP2 MSTORE PUSH1 0x4 ADD PUSH2 0xCED SWAP3 SWAP2 SWAP1 PUSH2 0x1789 JUMP JUMPDEST PUSH1 0x20 PUSH1 0x40 MLOAD DUP1 DUP4 SUB DUP2 PUSH0 DUP8 GAS CALL ISZERO DUP1 ISZERO PUSH2 0xD09 JUMPI RETURNDATASIZE PUSH0 DUP1 RETURNDATACOPY RETURNDATASIZE PUSH0 REVERT JUMPDEST POP POP POP POP PUSH1 0x40 MLOAD RETURNDATASIZE PUSH1 0x1F NOT PUSH1 0x1F DUP3 ADD AND DUP3 ADD DUP1 PUSH1 0x40 MSTORE POP DUP2 ADD SWAP1 PUSH2 0xD2D SWAP2 SWAP1 PUSH2 0x175E JUMP JUMPDEST POP PUSH1 0x2 PUSH0 SWAP1 SLOAD SWAP1 PUSH2 0x100 EXP SWAP1 DIV PUSH20 0xFFFFFFFFFFFFFFFFFFFFFFFFFFFFFFFFFFFFFFFF AND PUSH20 0xFFFFFFFFFFFFFFFFFFFFFFFFFFFFFFFFFFFFFFFF AND PUSH4 0xA9059CBB CALLER DUP4 PUSH1 0x40 MLOAD DUP4 PUSH4 0xFFFFFFFF AND PUSH1 0xE0 SHL DUP2 MSTORE PUSH1 0x4 ADD PUSH2 0xD8A SWAP3 SWAP2 SWAP1 PUSH2 0x1789 JUMP JUMPDEST PUSH1 0x20 PUSH1 0x40 MLOAD DUP1 DUP4 SUB DUP2 PUSH0 DUP8 GAS CALL ISZERO DUP1 ISZERO PUSH2 0xDA6 JUMPI RETURNDATASIZE PUSH0 DUP1 RETURNDATACOPY RETURNDATASIZE PUSH0 REVERT JUMPDEST POP POP POP POP PUSH1 0x40 MLOAD RETURNDATASIZE PUSH1 0x1F NOT PUSH1 0x1F DUP3 ADD AND DUP3 ADD DUP1 PUSH1 0x40 MSTORE POP DUP2 ADD SWAP1 PUSH2 0xDCA SWAP2 SWAP1 PUSH2 0x175E JUMP JUMPDEST POP PUSH32 0x6F0F96292AE0038C04F9B6BAB30F185D9CA02C471D0983F563F2A4F674AEF137 DUP3 DUP3 PUSH1 0x40 MLOAD PUSH2 0xDFC SWAP3 SWAP2 SWAP1 PUSH2 0x17B0 JUMP JUMPDEST PUSH1 0x40 MLOAD DUP1 SWAP2 SUB SWAP1 LOG1 POP POP JUMP JUMPDEST PUSH0 DUP2 GT PUSH2 0xE4A JUMPI PUSH1 0x40 MLOAD PUSH32 0x8C379A000000000000000000000000000000000000000000000000000000000 DUP2 MSTORE PUSH1 0x4 ADD PUSH2 0xE41 SWAP1 PUSH2 0x16D6 JUMP JUMPDEST PUSH1 0x40 MLOAD DUP1 SWAP2 SUB SWAP1 REVERT JUMPDEST PUSH0 PUSH2 0xF86 DUP3 PUSH1 0x1 PUSH0 SWAP1 SLOAD SWAP1 PUSH2 0x100 EXP SWAP1 DIV PUSH20 0xFFFFFFFFFFFFFFFFFFFFFFFFFFFFFFFFFFFFFFFF AND PUSH20 0xFFFFFFFFFFFFFFFFFFFFFFFFFFFFFFFFFFFFFFFF AND PUSH4 0x70A08231 ADDRESS PUSH1 0x40 MLOAD DUP3 PUSH4 0xFFFFFFFF AND PUSH1 0xE0 SHL DUP2 MSTORE PUSH1 0x4 ADD PUSH2 0xEA9 SWAP2 SWAP1 PUSH2 0x14B3 JUMP JUMPDEST PUSH1 0x20 PUSH1 0x40 MLOAD DUP1 DUP4 SUB DUP2 DUP7 GAS STATICCALL ISZERO DUP1 ISZERO PUSH2 0xEC4 JUMPI RETURNDATASIZE PUSH0 DUP1 RETURNDATACOPY RETURNDATASIZE PUSH0 REVERT JUMPDEST POP POP POP POP PUSH1 0x40 MLOAD RETURNDATASIZE PUSH1 0x1F NOT PUSH1 0x1F DUP3 ADD AND DUP3 ADD DUP1 PUSH1 0x40 MSTORE POP DUP2 ADD SWAP1 PUSH2 0xEE8 SWAP2 SWAP1 PUSH2 0x1596 JUMP JUMPDEST PUSH1 0x2 PUSH0 SWAP1 SLOAD SWAP1 PUSH2 0x100 EXP SWAP1 DIV PUSH20 0xFFFFFFFFFFFFFFFFFFFFFFFFFFFFFFFFFFFFFFFF AND PUSH20 0xFFFFFFFFFFFFFFFFFFFFFFFFFFFFFFFFFFFFFFFF AND PUSH4 0x70A08231 ADDRESS PUSH1 0x40 MLOAD DUP3 PUSH4 0xFFFFFFFF AND PUSH1 0xE0 SHL DUP2 MSTORE PUSH1 0x4 ADD PUSH2 0xF42 SWAP2 SWAP1 PUSH2 0x14B3 JUMP JUMPDEST PUSH1 0x20 PUSH1 0x40 MLOAD DUP1 DUP4 SUB DUP2 DUP7 GAS STATICCALL ISZERO DUP1 ISZERO PUSH2 0xF5D JUMPI RETURNDATASIZE PUSH0 DUP1 RETURNDATACOPY RETURNDATASIZE PUSH0 REVERT JUMPDEST POP POP POP POP PUSH1 0x40 MLOAD RETURNDATASIZE PUSH1 0x1F NOT PUSH1 0x1F DUP3 ADD AND DUP3 ADD DUP1 PUSH1 0x40 MSTORE POP DUP2 ADD SWAP1 PUSH2 0xF81 SWAP2 SWAP1 PUSH2 0x1596 JUMP JUMPDEST PUSH2 0x12E4 JUMP JUMPDEST SWAP1 POP PUSH1 0x1 PUSH0 SWAP1 SLOAD SWAP1 PUSH2 0x100 EXP SWAP1 DIV PUSH20 0xFFFFFFFFFFFFFFFFFFFFFFFFFFFFFFFFFFFFFFFF AND PUSH20 0xFFFFFFFFFFFFFFFFFFFFFFFFFFFFFFFFFFFFFFFF AND PUSH4 0x23B872DD CALLER ADDRESS DUP6 PUSH1 0x40 MLOAD DUP5 PUSH4 0xFFFFFFFF AND PUSH1 0xE0 SHL DUP2 MSTORE PUSH1 0x4 ADD PUSH2 0xFE6 SWAP4 SWAP3 SWAP2 SWAP1 PUSH2 0x16F4 JUMP JUMPDEST PUSH1 0x20 PUSH1 0x40 MLOAD DUP1 DUP4 SUB DUP2 PUSH0 DUP8 GAS CALL ISZERO DUP1 ISZERO PUSH2 0x1002 JUMPI RETURNDATASIZE PUSH0 DUP1 RETURNDATACOPY RETURNDATASIZE PUSH0 REVERT JUMPDEST POP POP POP POP PUSH1 0x40 MLOAD RETURNDATASIZE PUSH1 0x1F NOT PUSH1 0x1F DUP3 ADD AND DUP3 ADD DUP1 PUSH1 0x40 MSTORE POP DUP2 ADD SWAP1 PUSH2 0x1026 SWAP2 SWAP1 PUSH2 0x175E JUMP JUMPDEST POP PUSH1 0x2 PUSH0 SWAP1 SLOAD SWAP1 PUSH2 0x100 EXP SWAP1 DIV PUSH20 0xFFFFFFFFFFFFFFFFFFFFFFFFFFFFFFFFFFFFFFFF AND PUSH20 0xFFFFFFFFFFFFFFFFFFFFFFFFFFFFFFFFFFFFFFFF AND PUSH4 0xA9059CBB CALLER DUP4 PUSH1 0x40 MLOAD DUP4 PUSH4 0xFFFFFFFF AND PUSH1 0xE0 SHL DUP2 MSTORE PUSH1 0x4 ADD PUSH2 0x1083 SWAP3 SWAP2 SWAP1 PUSH2 0x1789 JUMP JUMPDEST PUSH1 0x20 PUSH1 0x40 MLOAD DUP1 DUP4 SUB DUP2 PUSH0 DUP8 GAS CALL ISZERO DUP1 ISZERO PUSH2 0x109F JUMPI RETURNDATASIZE PUSH0 DUP1 RETURNDATACOPY RETURNDATASIZE PUSH0 REVERT JUMPDEST POP POP POP POP PUSH1 0x40 MLOAD RETURNDATASIZE PUSH1 0x1F NOT PUSH1 0x1F DUP3 ADD AND DUP3 ADD DUP1 PUSH1 0x40 MSTORE POP DUP2 ADD SWAP1 PUSH2 0x10C3 SWAP2 SWAP1 PUSH2 0x175E JUMP JUMPDEST POP CALLER PUSH20 0xFFFFFFFFFFFFFFFFFFFFFFFFFFFFFFFFFFFFFFFF AND PUSH32 0x34003120A03799EA4EA8934ECD27DC027C3D298864B97944721756BE3C721AB6 DUP4 DUP4 PUSH1 0x40 MLOAD PUSH2 0x110C SWAP3 SWAP2 SWAP1 PUSH2 0x17B0 JUMP JUMPDEST PUSH1 0x40 MLOAD DUP1 SWAP2 SUB SWAP1 LOG2 POP POP JUMP JUMPDEST PUSH2 0x1120 PUSH2 0x119C JUMP JUMPDEST PUSH0 PUSH20 0xFFFFFFFFFFFFFFFFFFFFFFFFFFFFFFFFFFFFFFFF AND DUP2 PUSH20 0xFFFFFFFFFFFFFFFFFFFFFFFFFFFFFFFFFFFFFFFF AND SUB PUSH2 0x1190 JUMPI PUSH0 PUSH1 0x40 MLOAD PUSH32 0x1E4FBDF700000000000000000000000000000000000000000000000000000000 DUP2 MSTORE PUSH1 0x4 ADD PUSH2 0x1187 SWAP2 SWAP1 PUSH2 0x14B3 JUMP JUMPDEST PUSH1 0x40 MLOAD DUP1 SWAP2 SUB SWAP1 REVERT JUMPDEST PUSH2 0x1199 DUP2 PUSH2 0x1223 JUMP JUMPDEST POP JUMP JUMPDEST PUSH2 0x11A4 PUSH2 0x131A JUMP JUMPDEST PUSH20 0xFFFFFFFFFFFFFFFFFFFFFFFFFFFFFFFFFFFFFFFF AND PUSH2 0x11C2 PUSH2 0x913 JUMP JUMPDEST PUSH20 0xFFFFFFFFFFFFFFFFFFFFFFFFFFFFFFFFFFFFFFFF AND EQ PUSH2 0x1221 JUMPI PUSH2 0x11E5 PUSH2 0x131A JUMP JUMPDEST PUSH1 0x40 MLOAD PUSH32 0x118CDAA700000000000000000000000000000000000000000000000000000000 DUP2 MSTORE PUSH1 0x4 ADD PUSH2 0x1218 SWAP2 SWAP1 PUSH2 0x14B3 JUMP JUMPDEST PUSH1 0x40 MLOAD DUP1 SWAP2 SUB SWAP1 REVERT JUMPDEST JUMP JUMPDEST PUSH0 DUP1 PUSH0 SWAP1 SLOAD SWAP1 PUSH2 0x100 EXP SWAP1 DIV PUSH20 0xFFFFFFFFFFFFFFFFFFFFFFFFFFFFFFFFFFFFFFFF AND SWAP1 POP DUP2 PUSH0 DUP1 PUSH2 0x100 EXP DUP2 SLOAD DUP2 PUSH20 0xFFFFFFFFFFFFFFFFFFFFFFFFFFFFFFFFFFFFFFFF MUL NOT AND SWAP1 DUP4 PUSH20 0xFFFFFFFFFFFFFFFFFFFFFFFFFFFFFFFFFFFFFFFF AND MUL OR SWAP1 SSTORE POP DUP2 PUSH20 0xFFFFFFFFFFFFFFFFFFFFFFFFFFFFFFFFFFFFFFFF AND DUP2 PUSH20 0xFFFFFFFFFFFFFFFFFFFFFFFFFFFFFFFFFFFFFFFF AND PUSH32 0x8BE0079C531659141344CD1FD0A4F28419497F9722A3DAAFE3B4186F6B6457E0 PUSH1 0x40 MLOAD PUSH1 0x40 MLOAD DUP1 SWAP2 SUB SWAP1 LOG3 POP POP JUMP JUMPDEST PUSH0 DUP1 DUP3 DUP6 PUSH2 0x12F2 SWAP2 SWAP1 PUSH2 0x15EE JUMP JUMPDEST SWAP1 POP PUSH0 DUP6 DUP6 PUSH2 0x1301 SWAP2 SWAP1 PUSH2 0x18A7 JUMP JUMPDEST SWAP1 POP DUP1 DUP3 PUSH2 0x130F SWAP2 SWAP1 PUSH2 0x165C JUMP JUMPDEST SWAP3 POP POP POP SWAP4 SWAP3 POP POP POP JUMP JUMPDEST PUSH0 CALLER SWAP1 POP SWAP1 JUMP JUMPDEST PUSH0 PUSH20 0xFFFFFFFFFFFFFFFFFFFFFFFFFFFFFFFFFFFFFFFF DUP3 AND SWAP1 POP SWAP2 SWAP1 POP JUMP JUMPDEST PUSH0 DUP2 SWAP1 POP SWAP2 SWAP1 POP JUMP JUMPDEST PUSH0 PUSH2 0x1363 PUSH2 0x135E PUSH2 0x1359 DUP5 PUSH2 0x1321 JUMP JUMPDEST PUSH2 0x1340 JUMP JUMPDEST PUSH2 0x1321 JUMP JUMPDEST SWAP1 POP SWAP2 SWAP1 POP JUMP JUMPDEST PUSH0 PUSH2 0x1374 DUP3 PUSH2 0x1349 JUMP JUMPDEST SWAP1 POP SWAP2 SWAP1 POP JUMP JUMPDEST PUSH0 PUSH2 0x1385 DUP3 PUSH2 0x136A JUMP JUMPDEST SWAP1 POP SWAP2 SWAP1 POP JUMP JUMPDEST PUSH2 0x1395 DUP2 PUSH2 0x137B JUMP JUMPDEST DUP3 MSTORE POP POP JUMP JUMPDEST PUSH0 PUSH1 0x20 DUP3 ADD SWAP1 POP PUSH2 0x13AE PUSH0 DUP4 ADD DUP5 PUSH2 0x138C JUMP JUMPDEST SWAP3 SWAP2 POP POP JUMP JUMPDEST PUSH0 DUP1 REVERT JUMPDEST PUSH0 PUSH2 0x13C2 DUP3 PUSH2 0x1321 JUMP JUMPDEST SWAP1 POP SWAP2 SWAP1 POP JUMP JUMPDEST PUSH2 0x13D2 DUP2 PUSH2 0x13B8 JUMP JUMPDEST DUP2 EQ PUSH2 0x13DC JUMPI PUSH0 DUP1 REVERT JUMPDEST POP JUMP JUMPDEST PUSH0 DUP2 CALLDATALOAD SWAP1 POP PUSH2 0x13ED DUP2 PUSH2 0x13C9 JUMP JUMPDEST SWAP3 SWAP2 POP POP JUMP JUMPDEST PUSH0 PUSH1 0x20 DUP3 DUP5 SUB SLT ISZERO PUSH2 0x1408 JUMPI PUSH2 0x1407 PUSH2 0x13B4 JUMP JUMPDEST JUMPDEST PUSH0 PUSH2 0x1415 DUP5 DUP3 DUP6 ADD PUSH2 0x13DF JUMP JUMPDEST SWAP2 POP POP SWAP3 SWAP2 POP POP JUMP JUMPDEST PUSH0 DUP2 SWAP1 POP SWAP2 SWAP1 POP JUMP JUMPDEST PUSH2 0x1430 DUP2 PUSH2 0x141E JUMP JUMPDEST DUP3 MSTORE POP POP JUMP JUMPDEST PUSH0 PUSH1 0x20 DUP3 ADD SWAP1 POP PUSH2 0x1449 PUSH0 DUP4 ADD DUP5 PUSH2 0x1427 JUMP JUMPDEST SWAP3 SWAP2 POP POP JUMP JUMPDEST PUSH2 0x1458 DUP2 PUSH2 0x141E JUMP JUMPDEST DUP2 EQ PUSH2 0x1462 JUMPI PUSH0 DUP1 REVERT JUMPDEST POP JUMP JUMPDEST PUSH0 DUP2 CALLDATALOAD SWAP1 POP PUSH2 0x1473 DUP2 PUSH2 0x144F JUMP JUMPDEST SWAP3 SWAP2 POP POP JUMP JUMPDEST PUSH0 PUSH1 0x20 DUP3 DUP5 SUB SLT ISZERO PUSH2 0x148E JUMPI PUSH2 0x148D PUSH2 0x13B4 JUMP JUMPDEST JUMPDEST PUSH0 PUSH2 0x149B DUP5 DUP3 DUP6 ADD PUSH2 0x1465 JUMP JUMPDEST SWAP2 POP POP SWAP3 SWAP2 POP POP JUMP JUMPDEST PUSH2 0x14AD DUP2 PUSH2 0x13B8 JUMP JUMPDEST DUP3 MSTORE POP POP JUMP JUMPDEST PUSH0 PUSH1 0x20 DUP3 ADD SWAP1 POP PUSH2 0x14C6 PUSH0 DUP4 ADD DUP5 PUSH2 0x14A4 JUMP JUMPDEST SWAP3 SWAP2 POP POP JUMP JUMPDEST PUSH0 DUP1 PUSH1 0x40 DUP4 DUP6 SUB SLT ISZERO PUSH2 0x14E2 JUMPI PUSH2 0x14E1 PUSH2 0x13B4 JUMP JUMPDEST JUMPDEST PUSH0 PUSH2 0x14EF DUP6 DUP3 DUP7 ADD PUSH2 0x1465 JUMP JUMPDEST SWAP3 POP POP PUSH1 0x20 PUSH2 0x1500 DUP6 DUP3 DUP7 ADD PUSH2 0x1465 JUMP JUMPDEST SWAP2 POP POP SWAP3 POP SWAP3 SWAP1 POP JUMP JUMPDEST PUSH0 DUP3 DUP3 MSTORE PUSH1 0x20 DUP3 ADD SWAP1 POP SWAP3 SWAP2 POP POP JUMP JUMPDEST PUSH32 0x696E76616C696420746F6B656E00000000000000000000000000000000000000 PUSH0 DUP3 ADD MSTORE POP JUMP JUMPDEST PUSH0 PUSH2 0x154E PUSH1 0xD DUP4 PUSH2 0x150A JUMP JUMPDEST SWAP2 POP PUSH2 0x1559 DUP3 PUSH2 0x151A JUMP JUMPDEST PUSH1 0x20 DUP3 ADD SWAP1 POP SWAP2 SWAP1 POP JUMP JUMPDEST PUSH0 PUSH1 0x20 DUP3 ADD SWAP1 POP DUP2 DUP2 SUB PUSH0 DUP4 ADD MSTORE PUSH2 0x157B DUP2 PUSH2 0x1542 JUMP JUMPDEST SWAP1 POP SWAP2 SWAP1 POP JUMP JUMPDEST PUSH0 DUP2 MLOAD SWAP1 POP PUSH2 0x1590 DUP2 PUSH2 0x144F JUMP JUMPDEST SWAP3 SWAP2 POP POP JUMP JUMPDEST PUSH0 PUSH1 0x20 DUP3 DUP5 SUB SLT ISZERO PUSH2 0x15AB JUMPI PUSH2 0x15AA PUSH2 0x13B4 JUMP JUMPDEST JUMPDEST PUSH0 PUSH2 0x15B8 DUP5 DUP3 DUP6 ADD PUSH2 0x1582 JUMP JUMPDEST SWAP2 POP POP SWAP3 SWAP2 POP POP JUMP JUMPDEST PUSH32 0x4E487B7100000000000000000000000000000000000000000000000000000000 PUSH0 MSTORE PUSH1 0x11 PUSH1 0x4 MSTORE PUSH1 0x24 PUSH0 REVERT JUMPDEST PUSH0 PUSH2 0x15F8 DUP3 PUSH2 0x141E JUMP JUMPDEST SWAP2 POP PUSH2 0x1603 DUP4 PUSH2 0x141E JUMP JUMPDEST SWAP3 POP DUP3 DUP3 MUL PUSH2 0x1611 DUP2 PUSH2 0x141E JUMP JUMPDEST SWAP2 POP DUP3 DUP3 DIV DUP5 EQ DUP4 ISZERO OR PUSH2 0x1628 JUMPI PUSH2 0x1627 PUSH2 0x15C1 JUMP JUMPDEST JUMPDEST POP SWAP3 SWAP2 POP POP JUMP JUMPDEST PUSH32 0x4E487B7100000000000000000000000000000000000000000000000000000000 PUSH0 MSTORE PUSH1 0x12 PUSH1 0x4 MSTORE PUSH1 0x24 PUSH0 REVERT JUMPDEST PUSH0 PUSH2 0x1666 DUP3 PUSH2 0x141E JUMP JUMPDEST SWAP2 POP PUSH2 0x1671 DUP4 PUSH2 0x141E JUMP JUMPDEST SWAP3 POP DUP3 PUSH2 0x1681 JUMPI PUSH2 0x1680 PUSH2 0x162F JUMP JUMPDEST JUMPDEST DUP3 DUP3 DIV SWAP1 POP SWAP3 SWAP2 POP POP JUMP JUMPDEST PUSH32 0x496E76616C696420696E70757420616D6F756E74000000000000000000000000 PUSH0 DUP3 ADD MSTORE POP JUMP JUMPDEST PUSH0 PUSH2 0x16C0 PUSH1 0x14 DUP4 PUSH2 0x150A JUMP JUMPDEST SWAP2 POP PUSH2 0x16CB DUP3 PUSH2 0x168C JUMP JUMPDEST PUSH1 0x20 DUP3 ADD SWAP1 POP SWAP2 SWAP1 POP JUMP JUMPDEST PUSH0 PUSH1 0x20 DUP3 ADD SWAP1 POP DUP2 DUP2 SUB PUSH0 DUP4 ADD MSTORE PUSH2 0x16ED DUP2 PUSH2 0x16B4 JUMP JUMPDEST SWAP1 POP SWAP2 SWAP1 POP JUMP JUMPDEST PUSH0 PUSH1 0x60 DUP3 ADD SWAP1 POP PUSH2 0x1707 PUSH0 DUP4 ADD DUP7 PUSH2 0x14A4 JUMP JUMPDEST PUSH2 0x1714 PUSH1 0x20 DUP4 ADD DUP6 PUSH2 0x14A4 JUMP JUMPDEST PUSH2 0x1721 PUSH1 0x40 DUP4 ADD DUP5 PUSH2 0x1427 JUMP JUMPDEST SWAP5 SWAP4 POP POP POP POP JUMP JUMPDEST PUSH0 DUP2 ISZERO ISZERO SWAP1 POP SWAP2 SWAP1 POP JUMP JUMPDEST PUSH2 0x173D DUP2 PUSH2 0x1729 JUMP JUMPDEST DUP2 EQ PUSH2 0x1747 JUMPI PUSH0 DUP1 REVERT JUMPDEST POP JUMP JUMPDEST PUSH0 DUP2 MLOAD SWAP1 POP PUSH2 0x1758 DUP2 PUSH2 0x1734 JUMP JUMPDEST SWAP3 SWAP2 POP POP JUMP JUMPDEST PUSH0 PUSH1 0x20 DUP3 DUP5 SUB SLT ISZERO PUSH2 0x1773 JUMPI PUSH2 0x1772 PUSH2 0x13B4 JUMP JUMPDEST JUMPDEST PUSH0 PUSH2 0x1780 DUP5 DUP3 DUP6 ADD PUSH2 0x174A JUMP JUMPDEST SWAP2 POP POP SWAP3 SWAP2 POP POP JUMP JUMPDEST PUSH0 PUSH1 0x40 DUP3 ADD SWAP1 POP PUSH2 0x179C PUSH0 DUP4 ADD DUP6 PUSH2 0x14A4 JUMP JUMPDEST PUSH2 0x17A9 PUSH1 0x20 DUP4 ADD DUP5 PUSH2 0x1427 JUMP JUMPDEST SWAP4 SWAP3 POP POP POP JUMP JUMPDEST PUSH0 PUSH1 0x40 DUP3 ADD SWAP1 POP PUSH2 0x17C3 PUSH0 DUP4 ADD DUP6 PUSH2 0x1427 JUMP JUMPDEST PUSH2 0x17D0 PUSH1 0x20 DUP4 ADD DUP5 PUSH2 0x1427 JUMP JUMPDEST SWAP4 SWAP3 POP POP POP JUMP JUMPDEST PUSH32 0x496E76616C696420616D6F756E74730000000000000000000000000000000000 PUSH0 DUP3 ADD MSTORE POP JUMP JUMPDEST PUSH0 PUSH2 0x180B PUSH1 0xF DUP4 PUSH2 0x150A JUMP JUMPDEST SWAP2 POP PUSH2 0x1816 DUP3 PUSH2 0x17D7 JUMP JUMPDEST PUSH1 0x20 DUP3 ADD SWAP1 POP SWAP2 SWAP1 POP JUMP JUMPDEST PUSH0 PUSH1 0x20 DUP3 ADD SWAP1 POP DUP2 DUP2 SUB PUSH0 DUP4 ADD MSTORE PUSH2 0x1838 DUP2 PUSH2 0x17FF JUMP JUMPDEST SWAP1 POP SWAP2 SWAP1 POP JUMP JUMPDEST PUSH32 0x496E73756666696369656E74206C697175696469747900000000000000000000 PUSH0 DUP3 ADD MSTORE POP JUMP JUMPDEST PUSH0 PUSH2 0x1873 PUSH1 0x16 DUP4 PUSH2 0x150A JUMP JUMPDEST SWAP2 POP PUSH2 0x187E DUP3 PUSH2 0x183F JUMP JUMPDEST PUSH1 0x20 DUP3 ADD SWAP1 POP SWAP2 SWAP1 POP JUMP JUMPDEST PUSH0 PUSH1 0x20 DUP3 ADD SWAP1 POP DUP2 DUP2 SUB PUSH0 DUP4 ADD MSTORE PUSH2 0x18A0 DUP2 PUSH2 0x1867 JUMP JUMPDEST SWAP1 POP SWAP2 SWAP1 POP JUMP JUMPDEST PUSH0 PUSH2 0x18B1 DUP3 PUSH2 0x141E JUMP JUMPDEST SWAP2 POP PUSH2 0x18BC DUP4 PUSH2 0x141E JUMP JUMPDEST SWAP3 POP DUP3 DUP3 ADD SWAP1 POP DUP1 DUP3 GT ISZERO PUSH2 0x18D4 JUMPI PUSH2 0x18D3 PUSH2 0x15C1 JUMP JUMPDEST JUMPDEST SWAP3 SWAP2 POP POP JUMP INVALID LOG2 PUSH5 0x6970667358 0x22 SLT KECCAK256 NOT 0xE5 SWAP16 0xA5 POP 0xB5 SWAP6 0xB5 0xCA 0x2D DUP4 0xDC 0xCF DUP8 0xFB DUP16 0xC5 0xE1 CODESIZE SELFBALANCE SSTORE 0x1E DUP7 SWAP16 CALL EXTCODECOPY DUP14 SAR 0x4B 0xF6 0x4F DUP14 PUSH5 0x736F6C6343 STOP ADDMOD BYTE STOP CALLER "
				},
				"gasEstimates": {
					"creation": {
						"codeDepositCost": "1283200",
						"executionCost": "infinite",
						"totalCost": "infinite"
					},
					"external": {
						"addLiquidity(uint256,uint256)": "infinite",
						"getPrice(address)": "infinite",
						"owner()": "2515",
						"removeLiquidity(uint256,uint256)": "infinite",
						"renounceOwnership()": "infinite",
						"swapAforB(uint256)": "infinite",
						"swapBforA(uint256)": "infinite",
						"tokenA()": "infinite",
						"tokenB()": "infinite",
						"transferOwnership(address)": "infinite"
					},
					"internal": {
						"getAmountOut(uint256,uint256,uint256)": "infinite"
					}
				},
				"methodIdentifiers": {
					"addLiquidity(uint256,uint256)": "9cd441da",
					"getPrice(address)": "41976e09",
					"owner()": "8da5cb5b",
					"removeLiquidity(uint256,uint256)": "9d7de6b3",
					"renounceOwnership()": "715018a6",
					"swapAforB(uint256)": "e4f1f70a",
					"swapBforA(uint256)": "8014a7aa",
					"tokenA()": "0fc63d10",
					"tokenB()": "5f64b55b",
					"transferOwnership(address)": "f2fde38b"
				}
			},
			"storageLayout": {
				"storage": [
					{
						"astId": 8,
						"contract": "SimpleDEX.sol:SimpleDEX",
						"label": "_owner",
						"offset": 0,
						"slot": "0",
						"type": "t_address"
					},
					{
						"astId": 264,
						"contract": "SimpleDEX.sol:SimpleDEX",
						"label": "tokenA",
						"offset": 0,
						"slot": "1",
						"type": "t_contract(IERC20)225"
					},
					{
						"astId": 267,
						"contract": "SimpleDEX.sol:SimpleDEX",
						"label": "tokenB",
						"offset": 0,
						"slot": "2",
						"type": "t_contract(IERC20)225"
					}
				],
				"types": {
					"t_address": {
						"encoding": "inplace",
						"label": "address",
						"numberOfBytes": "20"
					},
					"t_contract(IERC20)225": {
						"encoding": "inplace",
						"label": "contract IERC20",
						"numberOfBytes": "20"
					}
				}
			},
			"userdoc": {
				"kind": "user",
				"methods": {},
				"version": 1
			}
		}
	}
}